{
  "_format": "hh-sol-artifact-1",
  "contractName": "MixtapeSocialRegistry",
  "sourceName": "contracts/MixtapeSocialRegistry.sol",
  "abi": [
    {
      "inputs": [],
      "stateMutability": "nonpayable",
      "type": "constructor"
    },
    {
      "anonymous": false,
      "inputs": [
        {
          "indexed": true,
          "internalType": "address",
          "name": "mixtape",
          "type": "address"
        },
        {
          "indexed": true,
          "internalType": "address",
          "name": "author",
          "type": "address"
        },
        {
          "indexed": false,
          "internalType": "string",
          "name": "text",
          "type": "string"
        }
      ],
      "name": "CommentAdded",
      "type": "event"
    },
    {
      "anonymous": false,
      "inputs": [
        {
          "indexed": true,
          "internalType": "address",
          "name": "mixtape",
          "type": "address"
        },
        {
          "indexed": true,
          "internalType": "address",
          "name": "liker",
          "type": "address"
        }
      ],
      "name": "MixtapeLiked",
      "type": "event"
    },
    {
      "anonymous": false,
      "inputs": [
        {
          "indexed": true,
          "internalType": "address",
          "name": "mixtape",
          "type": "address"
        },
        {
          "indexed": true,
          "internalType": "address",
          "name": "unliker",
          "type": "address"
        }
      ],
      "name": "MixtapeUnliked",
      "type": "event"
    },
    {
      "anonymous": false,
      "inputs": [
        {
          "indexed": true,
          "internalType": "address",
          "name": "previousOwner",
          "type": "address"
        },
        {
          "indexed": true,
          "internalType": "address",
          "name": "newOwner",
          "type": "address"
        }
      ],
      "name": "OwnershipTransferred",
      "type": "event"
    },
    {
      "inputs": [
        {
          "internalType": "address",
          "name": "mixtapeTba",
          "type": "address"
        },
        {
          "internalType": "string",
          "name": "text",
          "type": "string"
        }
      ],
      "name": "addComment",
      "outputs": [
        {
          "internalType": "bool",
          "name": "",
          "type": "bool"
        }
      ],
      "stateMutability": "nonpayable",
      "type": "function"
    },
    {
      "inputs": [
        {
          "internalType": "address",
          "name": "mixtapeTba",
          "type": "address"
        }
      ],
      "name": "getComments",
      "outputs": [
        {
          "components": [
            {
              "internalType": "address",
              "name": "author",
              "type": "address"
            },
            {
              "internalType": "string",
              "name": "text",
              "type": "string"
            },
            {
              "internalType": "uint256",
              "name": "timestamp",
              "type": "uint256"
            }
          ],
          "internalType": "struct MixtapeSocialRegistry.Comment[]",
          "name": "",
          "type": "tuple[]"
        }
      ],
      "stateMutability": "view",
      "type": "function"
    },
    {
      "inputs": [
        {
          "internalType": "address",
          "name": "mixtapeTba",
          "type": "address"
        }
      ],
      "name": "getCommentsCount",
      "outputs": [
        {
          "internalType": "uint256",
          "name": "",
          "type": "uint256"
        }
      ],
      "stateMutability": "view",
      "type": "function"
    },
    {
      "inputs": [
        {
          "internalType": "address",
          "name": "mixtapeTba",
          "type": "address"
        }
      ],
      "name": "getLikesCount",
      "outputs": [
        {
          "internalType": "uint256",
          "name": "",
          "type": "uint256"
        }
      ],
      "stateMutability": "view",
      "type": "function"
    },
    {
      "inputs": [
        {
          "internalType": "address",
          "name": "mixtapeTba",
          "type": "address"
        },
        {
          "internalType": "address",
          "name": "liker",
          "type": "address"
        }
      ],
      "name": "hasLiked",
      "outputs": [
        {
          "internalType": "bool",
          "name": "",
          "type": "bool"
        }
      ],
      "stateMutability": "view",
      "type": "function"
    },
    {
      "inputs": [
        {
          "internalType": "address",
          "name": "mixtapeTba",
          "type": "address"
        }
      ],
      "name": "like",
      "outputs": [
        {
          "internalType": "bool",
          "name": "",
          "type": "bool"
        }
      ],
      "stateMutability": "nonpayable",
      "type": "function"
    },
    {
      "inputs": [],
      "name": "owner",
      "outputs": [
        {
          "internalType": "address",
          "name": "",
          "type": "address"
        }
      ],
      "stateMutability": "view",
      "type": "function"
    },
    {
      "inputs": [],
      "name": "renounceOwnership",
      "outputs": [],
      "stateMutability": "nonpayable",
      "type": "function"
    },
    {
      "inputs": [
        {
          "internalType": "address",
          "name": "newOwner",
          "type": "address"
        }
      ],
      "name": "transferOwnership",
      "outputs": [],
      "stateMutability": "nonpayable",
      "type": "function"
    },
    {
      "inputs": [
        {
          "internalType": "address",
          "name": "mixtapeTba",
          "type": "address"
        }
      ],
      "name": "unlike",
      "outputs": [
        {
          "internalType": "bool",
          "name": "",
          "type": "bool"
        }
      ],
      "stateMutability": "nonpayable",
      "type": "function"
    }
  ],
  "bytecode": "0x608060405234801561001057600080fd5b5061002d61002261003260201b60201c565b61003a60201b60201c565b6100fe565b600033905090565b60008060009054906101000a900473ffffffffffffffffffffffffffffffffffffffff169050816000806101000a81548173ffffffffffffffffffffffffffffffffffffffff021916908373ffffffffffffffffffffffffffffffffffffffff1602179055508173ffffffffffffffffffffffffffffffffffffffff168173ffffffffffffffffffffffffffffffffffffffff167f8be0079c531659141344cd1fd0a4f28419497f9722a3daafe3b4186f6b6457e060405160405180910390a35050565b611c568061010d6000396000f3fe608060405234801561001057600080fd5b506004361061009e5760003560e01c80638da5cb5b116100665780638da5cb5b1461016d578063d845b1311461018b578063e2005b98146101bb578063e465c465146101eb578063f2fde38b1461021b5761009e565b806302a77492146100a357806317fe375f146100d3578063715018a6146101035780637f2e13931461010d5780638924474e1461013d575b600080fd5b6100bd60048036038101906100b89190610f58565b610237565b6040516100ca9190610f9e565b60405180910390f35b6100ed60048036038101906100e89190610f58565b610280565b6040516100fa9190611179565b60405180910390f35b61010b610410565b005b6101276004803603810190610122919061119b565b610424565b60405161013491906111f6565b60405180910390f35b61015760048036038101906101529190610f58565b6104b8565b6040516101649190610f9e565b60405180910390f35b610175610504565b6040516101829190611220565b60405180910390f35b6101a560048036038101906101a09190610f58565b61052d565b6040516101b291906111f6565b60405180910390f35b6101d560048036038101906101d09190611370565b6107b3565b6040516101e291906111f6565b60405180910390f35b61020560048036038101906102009190610f58565b610a24565b60405161021291906111f6565b60405180910390f35b61023560048036038101906102309190610f58565b610d19565b005b6000600160008373ffffffffffffffffffffffffffffffffffffffff1673ffffffffffffffffffffffffffffffffffffffff168152602001908152602001600020549050919050565b6060600360008373ffffffffffffffffffffffffffffffffffffffff1673ffffffffffffffffffffffffffffffffffffffff168152602001908152602001600020805480602002602001604051908101604052809291908181526020016000905b8282101561040557838290600052602060002090600302016040518060600160405290816000820160009054906101000a900473ffffffffffffffffffffffffffffffffffffffff1673ffffffffffffffffffffffffffffffffffffffff1673ffffffffffffffffffffffffffffffffffffffff16815260200160018201805461036a906113fb565b80601f0160208091040260200160405190810160405280929190818152602001828054610396906113fb565b80156103e35780601f106103b8576101008083540402835291602001916103e3565b820191906000526020600020905b8154815290600101906020018083116103c657829003601f168201915b50505050508152602001600282015481525050815260200190600101906102e1565b505050509050919050565b610418610d9c565b6104226000610e1a565b565b6000600260008473ffffffffffffffffffffffffffffffffffffffff1673ffffffffffffffffffffffffffffffffffffffff16815260200190815260200160002060008373ffffffffffffffffffffffffffffffffffffffff1673ffffffffffffffffffffffffffffffffffffffff16815260200190815260200160002060009054906101000a900460ff16905092915050565b6000600360008373ffffffffffffffffffffffffffffffffffffffff1673ffffffffffffffffffffffffffffffffffffffff168152602001908152602001600020805490509050919050565b60008060009054906101000a900473ffffffffffffffffffffffffffffffffffffffff16905090565b60008073ffffffffffffffffffffffffffffffffffffffff168273ffffffffffffffffffffffffffffffffffffffff160361059d576040517f08c379a0000000000000000000000000000000000000000000000000000000008152600401610594906114af565b60405180910390fd5b600260008373ffffffffffffffffffffffffffffffffffffffff1673ffffffffffffffffffffffffffffffffffffffff16815260200190815260200160002060003373ffffffffffffffffffffffffffffffffffffffff1673ffffffffffffffffffffffffffffffffffffffff16815260200190815260200160002060009054906101000a900460ff16610666576040517f08c379a000000000000000000000000000000000000000000000000000000000815260040161065d90611541565b60405180910390fd5b6000600260008473ffffffffffffffffffffffffffffffffffffffff1673ffffffffffffffffffffffffffffffffffffffff16815260200190815260200160002060003373ffffffffffffffffffffffffffffffffffffffff1673ffffffffffffffffffffffffffffffffffffffff16815260200190815260200160002060006101000a81548160ff021916908315150217905550600160008373ffffffffffffffffffffffffffffffffffffffff1673ffffffffffffffffffffffffffffffffffffffff168152602001908152602001600020600081548092919061074b90611590565b91905055503373ffffffffffffffffffffffffffffffffffffffff168273ffffffffffffffffffffffffffffffffffffffff167f434acd306a8a5e26106da9d0963544913f743d0e0f4d51acefba64765cab76a460405160405180910390a360019050919050565b60008073ffffffffffffffffffffffffffffffffffffffff168373ffffffffffffffffffffffffffffffffffffffff1603610823576040517f08c379a000000000000000000000000000000000000000000000000000000000815260040161081a906114af565b60405180910390fd5b6000825111610867576040517f08c379a000000000000000000000000000000000000000000000000000000000815260040161085e9061162b565b60405180910390fd5b610118825111156108ad576040517f08c379a00000000000000000000000000000000000000000000000000000000081526004016108a4906116bd565b60405180910390fd5b600060405180606001604052803373ffffffffffffffffffffffffffffffffffffffff168152602001848152602001428152509050600360008573ffffffffffffffffffffffffffffffffffffffff1673ffffffffffffffffffffffffffffffffffffffff16815260200190815260200160002081908060018154018082558091505060019003906000526020600020906003020160009091909190915060008201518160000160006101000a81548173ffffffffffffffffffffffffffffffffffffffff021916908373ffffffffffffffffffffffffffffffffffffffff16021790555060208201518160010190816109a79190611889565b506040820151816002015550503373ffffffffffffffffffffffffffffffffffffffff168473ffffffffffffffffffffffffffffffffffffffff167fb82fdd4f7f620f390f63d82d9dbd41fe893abb4fdc05d0b97f164463c896b5f585604051610a119190611994565b60405180910390a3600191505092915050565b60008073ffffffffffffffffffffffffffffffffffffffff168273ffffffffffffffffffffffffffffffffffffffff1603610a94576040517f08c379a0000000000000000000000000000000000000000000000000000000008152600401610a8b906114af565b60405180910390fd5b3373ffffffffffffffffffffffffffffffffffffffff168273ffffffffffffffffffffffffffffffffffffffff1603610b02576040517f08c379a0000000000000000000000000000000000000000000000000000000008152600401610af990611a28565b60405180910390fd5b600260008373ffffffffffffffffffffffffffffffffffffffff1673ffffffffffffffffffffffffffffffffffffffff16815260200190815260200160002060003373ffffffffffffffffffffffffffffffffffffffff1673ffffffffffffffffffffffffffffffffffffffff16815260200190815260200160002060009054906101000a900460ff1615610bcc576040517f08c379a0000000000000000000000000000000000000000000000000000000008152600401610bc390611aba565b60405180910390fd5b6001600260008473ffffffffffffffffffffffffffffffffffffffff1673ffffffffffffffffffffffffffffffffffffffff16815260200190815260200160002060003373ffffffffffffffffffffffffffffffffffffffff1673ffffffffffffffffffffffffffffffffffffffff16815260200190815260200160002060006101000a81548160ff021916908315150217905550600160008373ffffffffffffffffffffffffffffffffffffffff1673ffffffffffffffffffffffffffffffffffffffff1681526020019081526020016000206000815480929190610cb190611ada565b91905055503373ffffffffffffffffffffffffffffffffffffffff168273ffffffffffffffffffffffffffffffffffffffff167ff4220e01d27b0b30512856b012d966ae57a8e05a136f896822d84e480de5cbbd60405160405180910390a360019050919050565b610d21610d9c565b600073ffffffffffffffffffffffffffffffffffffffff168173ffffffffffffffffffffffffffffffffffffffff1603610d90576040517f08c379a0000000000000000000000000000000000000000000000000000000008152600401610d8790611b94565b60405180910390fd5b610d9981610e1a565b50565b610da4610ede565b73ffffffffffffffffffffffffffffffffffffffff16610dc2610504565b73ffffffffffffffffffffffffffffffffffffffff1614610e18576040517f08c379a0000000000000000000000000000000000000000000000000000000008152600401610e0f90611c00565b60405180910390fd5b565b60008060009054906101000a900473ffffffffffffffffffffffffffffffffffffffff169050816000806101000a81548173ffffffffffffffffffffffffffffffffffffffff021916908373ffffffffffffffffffffffffffffffffffffffff1602179055508173ffffffffffffffffffffffffffffffffffffffff168173ffffffffffffffffffffffffffffffffffffffff167f8be0079c531659141344cd1fd0a4f28419497f9722a3daafe3b4186f6b6457e060405160405180910390a35050565b600033905090565b6000604051905090565b600080fd5b600080fd5b600073ffffffffffffffffffffffffffffffffffffffff82169050919050565b6000610f2582610efa565b9050919050565b610f3581610f1a565b8114610f4057600080fd5b50565b600081359050610f5281610f2c565b92915050565b600060208284031215610f6e57610f6d610ef0565b5b6000610f7c84828501610f43565b91505092915050565b6000819050919050565b610f9881610f85565b82525050565b6000602082019050610fb36000830184610f8f565b92915050565b600081519050919050565b600082825260208201905092915050565b6000819050602082019050919050565b610fee81610f1a565b82525050565b600081519050919050565b600082825260208201905092915050565b60005b8381101561102e578082015181840152602081019050611013565b60008484015250505050565b6000601f19601f8301169050919050565b600061105682610ff4565b6110608185610fff565b9350611070818560208601611010565b6110798161103a565b840191505092915050565b61108d81610f85565b82525050565b60006060830160008301516110ab6000860182610fe5565b50602083015184820360208601526110c3828261104b565b91505060408301516110d86040860182611084565b508091505092915050565b60006110ef8383611093565b905092915050565b6000602082019050919050565b600061110f82610fb9565b6111198185610fc4565b93508360208202850161112b85610fd5565b8060005b85811015611167578484038952815161114885826110e3565b9450611153836110f7565b925060208a0199505060018101905061112f565b50829750879550505050505092915050565b600060208201905081810360008301526111938184611104565b905092915050565b600080604083850312156111b2576111b1610ef0565b5b60006111c085828601610f43565b92505060206111d185828601610f43565b9150509250929050565b60008115159050919050565b6111f0816111db565b82525050565b600060208201905061120b60008301846111e7565b92915050565b61121a81610f1a565b82525050565b60006020820190506112356000830184611211565b92915050565b600080fd5b600080fd5b7f4e487b7100000000000000000000000000000000000000000000000000000000600052604160045260246000fd5b61127d8261103a565b810181811067ffffffffffffffff8211171561129c5761129b611245565b5b80604052505050565b60006112af610ee6565b90506112bb8282611274565b919050565b600067ffffffffffffffff8211156112db576112da611245565b5b6112e48261103a565b9050602081019050919050565b82818337600083830152505050565b600061131361130e846112c0565b6112a5565b90508281526020810184848401111561132f5761132e611240565b5b61133a8482856112f1565b509392505050565b600082601f8301126113575761135661123b565b5b8135611367848260208601611300565b91505092915050565b6000806040838503121561138757611386610ef0565b5b600061139585828601610f43565b925050602083013567ffffffffffffffff8111156113b6576113b5610ef5565b5b6113c285828601611342565b9150509250929050565b7f4e487b7100000000000000000000000000000000000000000000000000000000600052602260045260246000fd5b6000600282049050600182168061141357607f821691505b602082108103611426576114256113cc565b5b50919050565b600082825260208201905092915050565b7f4d697874617065536f6369616c52656769737472793a20496e76616c6964206d60008201527f6978746170652061646472657373000000000000000000000000000000000000602082015250565b6000611499602e8361142c565b91506114a48261143d565b604082019050919050565b600060208201905081810360008301526114c88161148c565b9050919050565b7f4d697874617065536f6369616c52656769737472793a204e6f74206c696b656460008201527f2079657400000000000000000000000000000000000000000000000000000000602082015250565b600061152b60248361142c565b9150611536826114cf565b604082019050919050565b6000602082019050818103600083015261155a8161151e565b9050919050565b7f4e487b7100000000000000000000000000000000000000000000000000000000600052601160045260246000fd5b600061159b82610f85565b9150600082036115ae576115ad611561565b5b600182039050919050565b7f4d697874617065536f6369616c52656769737472793a20456d70747920636f6d60008201527f6d656e7400000000000000000000000000000000000000000000000000000000602082015250565b600061161560248361142c565b9150611620826115b9565b604082019050919050565b6000602082019050818103600083015261164481611608565b9050919050565b7f4d697874617065536f6369616c52656769737472793a20436f6d6d656e74207460008201527f6f6f206c6f6e6700000000000000000000000000000000000000000000000000602082015250565b60006116a760278361142c565b91506116b28261164b565b604082019050919050565b600060208201905081810360008301526116d68161169a565b9050919050565b60008190508160005260206000209050919050565b60006020601f8301049050919050565b600082821b905092915050565b60006008830261173f7fffffffffffffffffffffffffffffffffffffffffffffffffffffffffffffffff82611702565b6117498683611702565b95508019841693508086168417925050509392505050565b6000819050919050565b600061178661178161177c84610f85565b611761565b610f85565b9050919050565b6000819050919050565b6117a08361176b565b6117b46117ac8261178d565b84845461170f565b825550505050565b600090565b6117c96117bc565b6117d4818484611797565b505050565b5b818110156117f8576117ed6000826117c1565b6001810190506117da565b5050565b601f82111561183d5761180e816116dd565b611817846116f2565b81016020851015611826578190505b61183a611832856116f2565b8301826117d9565b50505b505050565b600082821c905092915050565b600061186060001984600802611842565b1980831691505092915050565b6000611879838361184f565b9150826002028217905092915050565b61189282610ff4565b67ffffffffffffffff8111156118ab576118aa611245565b5b6118b582546113fb565b6118c08282856117fc565b600060209050601f8311600181146118f357600084156118e1578287015190505b6118eb858261186d565b865550611953565b601f198416611901866116dd565b60005b8281101561192957848901518255600182019150602085019450602081019050611904565b868310156119465784890151611942601f89168261184f565b8355505b6001600288020188555050505b505050505050565b600061196682610ff4565b611970818561142c565b9350611980818560208601611010565b6119898161103a565b840191505092915050565b600060208201905081810360008301526119ae818461195b565b905092915050565b7f4d697874617065536f6369616c52656769737472793a2043616e6e6f74206c6960008201527f6b6520796f7572206f776e206d69787461706500000000000000000000000000602082015250565b6000611a1260338361142c565b9150611a1d826119b6565b604082019050919050565b60006020820190508181036000830152611a4181611a05565b9050919050565b7f4d697874617065536f6369616c52656769737472793a20416c7265616479206c60008201527f696b656400000000000000000000000000000000000000000000000000000000602082015250565b6000611aa460248361142c565b9150611aaf82611a48565b604082019050919050565b60006020820190508181036000830152611ad381611a97565b9050919050565b6000611ae582610f85565b91507fffffffffffffffffffffffffffffffffffffffffffffffffffffffffffffffff8203611b1757611b16611561565b5b600182019050919050565b7f4f776e61626c653a206e6577206f776e657220697320746865207a65726f206160008201527f6464726573730000000000000000000000000000000000000000000000000000602082015250565b6000611b7e60268361142c565b9150611b8982611b22565b604082019050919050565b60006020820190508181036000830152611bad81611b71565b9050919050565b7f4f776e61626c653a2063616c6c6572206973206e6f7420746865206f776e6572600082015250565b6000611bea60208361142c565b9150611bf582611bb4565b602082019050919050565b60006020820190508181036000830152611c1981611bdd565b905091905056fea264697066735822122063a5a17f843e793f218de601024946523a1505b8657f70999d41b11a9bc11bb764736f6c63430008140033",
  "linkReferences": {},
  "deployedLinkReferences": {}
}