{
  "_format": "hh-sol-artifact-1",
  "contractName": "MixtapeAccount",
  "sourceName": "contracts/MixtapeAccount.sol",
  "abi": [
    {
      "anonymous": false,
      "inputs": [
        {
          "indexed": true,
          "internalType": "address",
          "name": "to",
          "type": "address"
        },
        {
          "indexed": false,
          "internalType": "uint256",
          "name": "value",
          "type": "uint256"
        },
        {
          "indexed": false,
          "internalType": "bytes",
          "name": "data",
          "type": "bytes"
        }
      ],
      "name": "Executed",
      "type": "event"
    },
    {
      "anonymous": false,
      "inputs": [
        {
          "indexed": false,
          "internalType": "string",
          "name": "key",
          "type": "string"
        },
        {
          "indexed": false,
          "internalType": "bytes",
          "name": "data",
          "type": "bytes"
        }
      ],
      "name": "RightsUpdated",
      "type": "event"
    },
    {
      "inputs": [
        {
          "internalType": "address",
          "name": "to",
          "type": "address"
        },
        {
          "internalType": "uint256",
          "name": "value",
          "type": "uint256"
        },
        {
          "internalType": "bytes",
          "name": "data",
          "type": "bytes"
        }
      ],
      "name": "execute",
      "outputs": [
        {
          "internalType": "bytes",
          "name": "",
          "type": "bytes"
        }
      ],
      "stateMutability": "payable",
      "type": "function"
    },
    {
      "inputs": [
        {
          "internalType": "string",
          "name": "key",
          "type": "string"
        }
      ],
      "name": "getRights",
      "outputs": [
        {
          "internalType": "bytes",
          "name": "",
          "type": "bytes"
        }
      ],
      "stateMutability": "view",
      "type": "function"
    },
    {
      "inputs": [
        {
          "internalType": "uint256",
          "name": "chainId",
          "type": "uint256"
        },
        {
          "internalType": "address",
          "name": "tokenContract",
          "type": "address"
        },
        {
          "internalType": "uint256",
          "name": "tokenId",
          "type": "uint256"
        },
        {
          "internalType": "uint256",
          "name": "salt",
          "type": "uint256"
        }
      ],
      "name": "initialize",
      "outputs": [],
      "stateMutability": "nonpayable",
      "type": "function"
    },
    {
      "inputs": [],
      "name": "owner",
      "outputs": [
        {
          "internalType": "address",
          "name": "",
          "type": "address"
        }
      ],
      "stateMutability": "view",
      "type": "function"
    },
    {
      "inputs": [
        {
          "internalType": "string",
          "name": "key",
          "type": "string"
        },
        {
          "internalType": "bytes",
          "name": "data",
          "type": "bytes"
        }
      ],
      "name": "setRights",
      "outputs": [],
      "stateMutability": "nonpayable",
      "type": "function"
    },
    {
      "inputs": [
        {
          "internalType": "bytes4",
          "name": "interfaceId",
          "type": "bytes4"
        }
      ],
      "name": "supportsInterface",
      "outputs": [
        {
          "internalType": "bool",
          "name": "",
          "type": "bool"
        }
      ],
      "stateMutability": "pure",
      "type": "function"
    },
    {
      "inputs": [],
      "name": "token",
      "outputs": [
        {
          "internalType": "uint256",
          "name": "chainId",
          "type": "uint256"
        },
        {
          "internalType": "address",
          "name": "tokenContract",
          "type": "address"
        },
        {
          "internalType": "uint256",
          "name": "tokenId",
          "type": "uint256"
        }
      ],
      "stateMutability": "view",
      "type": "function"
    },
    {
      "stateMutability": "payable",
      "type": "receive"
    }
  ],
  "bytecode": "0x608060405234801561001057600080fd5b50600160008190555061150a806100286000396000f3fe6080604052600436106100745760003560e01c8063abbb4ca31161004e578063abbb4ca314610125578063ae4a45251461014e578063b61d27f614610177578063fc0c546a146101a75761007b565b806301ffc9a714610080578063227573ae146100bd5780638da5cb5b146100fa5761007b565b3661007b57005b600080fd5b34801561008c57600080fd5b506100a760048036038101906100a29190610851565b6101d4565b6040516100b49190610899565b60405180910390f35b3480156100c957600080fd5b506100e460048036038101906100df91906109fa565b6102a6565b6040516100f19190610ac2565b60405180910390f35b34801561010657600080fd5b5061010f610356565b60405161011c9190610b25565b60405180910390f35b34801561013157600080fd5b5061014c60048036038101906101479190610be1565b610416565b005b34801561015a57600080fd5b5061017560048036038101906101709190610cbb565b6104f4565b005b610191600480360381019061018c9190610d82565b6105bb565b60405161019e9190610ac2565b60405180910390f35b3480156101b357600080fd5b506101bc610753565b6040516101cb93929190610e05565b60405180910390f35b60007f01ffc9a7000000000000000000000000000000000000000000000000000000007bffffffffffffffffffffffffffffffffffffffffffffffffffffffff1916827bffffffffffffffffffffffffffffffffffffffffffffffffffffffff1916148061029f57507f69fefde2000000000000000000000000000000000000000000000000000000007bffffffffffffffffffffffffffffffffffffffffffffffffffffffff1916827bffffffffffffffffffffffffffffffffffffffffffffffffffffffff1916145b9050919050565b60606005826040516102b89190610e83565b908152602001604051809103902080546102d190610ec9565b80601f01602080910402602001604051908101604052809291908181526020018280546102fd90610ec9565b801561034a5780601f1061031f5761010080835404028352916020019161034a565b820191906000526020600020905b81548152906001019060200180831161032d57829003601f168201915b50505050509050919050565b6000466001541461036a5760009050610413565b600260009054906101000a900473ffffffffffffffffffffffffffffffffffffffff1673ffffffffffffffffffffffffffffffffffffffff16636352211e6003546040518263ffffffff1660e01b81526004016103c79190610efa565b602060405180830381865afa92505050801561040157506040513d601f19601f820116820180604052508101906103fe9190610f2a565b60015b61040e5760009050610413565b809150505b90565b61041e610356565b73ffffffffffffffffffffffffffffffffffffffff163373ffffffffffffffffffffffffffffffffffffffff161461048b576040517f08c379a000000000000000000000000000000000000000000000000000000000815260040161048290610fb4565b60405180910390fd5b8060058360405161049c9190610e83565b908152602001604051809103902090816104b69190611180565b507f1bae09b0527455053ae96bc61eed0ea578cfc58683fdc7b6a0b2040e89f4cbb882826040516104e892919061128b565b60405180910390a15050565b600660009054906101000a900460ff1615610544576040517f08c379a000000000000000000000000000000000000000000000000000000000815260040161053b90611334565b60405180910390fd5b8360018190555082600260006101000a81548173ffffffffffffffffffffffffffffffffffffffff021916908373ffffffffffffffffffffffffffffffffffffffff16021790555081600381905550806004819055506001600660006101000a81548160ff02191690831515021790555050505050565b60606105c5610356565b73ffffffffffffffffffffffffffffffffffffffff163373ffffffffffffffffffffffffffffffffffffffff1614610632576040517f08c379a000000000000000000000000000000000000000000000000000000000815260040161062990610fb4565b60405180910390fd5b61063a61078c565b6000808673ffffffffffffffffffffffffffffffffffffffff16868686604051610665929190611384565b60006040518083038185875af1925050503d80600081146106a2576040519150601f19603f3d011682016040523d82523d6000602084013e6106a7565b606091505b5091509150816106ec576040517f08c379a00000000000000000000000000000000000000000000000000000000081526004016106e3906113e9565b60405180910390fd5b8673ffffffffffffffffffffffffffffffffffffffff167fcaf938de11c367272220bfd1d2baa99ca46665e7bc4d85f00adb51b90fe1fa9f87878760405161073693929190611436565b60405180910390a2809250505061074b6107db565b949350505050565b6000806000600154600260009054906101000a900473ffffffffffffffffffffffffffffffffffffffff16600354925092509250909192565b6002600054036107d1576040517f08c379a00000000000000000000000000000000000000000000000000000000081526004016107c8906114b4565b60405180910390fd5b6002600081905550565b6001600081905550565b6000604051905090565b600080fd5b600080fd5b60007fffffffff0000000000000000000000000000000000000000000000000000000082169050919050565b61082e816107f9565b811461083957600080fd5b50565b60008135905061084b81610825565b92915050565b600060208284031215610867576108666107ef565b5b60006108758482850161083c565b91505092915050565b60008115159050919050565b6108938161087e565b82525050565b60006020820190506108ae600083018461088a565b92915050565b600080fd5b600080fd5b6000601f19601f8301169050919050565b7f4e487b7100000000000000000000000000000000000000000000000000000000600052604160045260246000fd5b610907826108be565b810181811067ffffffffffffffff82111715610926576109256108cf565b5b80604052505050565b60006109396107e5565b905061094582826108fe565b919050565b600067ffffffffffffffff821115610965576109646108cf565b5b61096e826108be565b9050602081019050919050565b82818337600083830152505050565b600061099d6109988461094a565b61092f565b9050828152602081018484840111156109b9576109b86108b9565b5b6109c484828561097b565b509392505050565b600082601f8301126109e1576109e06108b4565b5b81356109f184826020860161098a565b91505092915050565b600060208284031215610a1057610a0f6107ef565b5b600082013567ffffffffffffffff811115610a2e57610a2d6107f4565b5b610a3a848285016109cc565b91505092915050565b600081519050919050565b600082825260208201905092915050565b60005b83811015610a7d578082015181840152602081019050610a62565b60008484015250505050565b6000610a9482610a43565b610a9e8185610a4e565b9350610aae818560208601610a5f565b610ab7816108be565b840191505092915050565b60006020820190508181036000830152610adc8184610a89565b905092915050565b600073ffffffffffffffffffffffffffffffffffffffff82169050919050565b6000610b0f82610ae4565b9050919050565b610b1f81610b04565b82525050565b6000602082019050610b3a6000830184610b16565b92915050565b600067ffffffffffffffff821115610b5b57610b5a6108cf565b5b610b64826108be565b9050602081019050919050565b6000610b84610b7f84610b40565b61092f565b905082815260208101848484011115610ba057610b9f6108b9565b5b610bab84828561097b565b509392505050565b600082601f830112610bc857610bc76108b4565b5b8135610bd8848260208601610b71565b91505092915050565b60008060408385031215610bf857610bf76107ef565b5b600083013567ffffffffffffffff811115610c1657610c156107f4565b5b610c22858286016109cc565b925050602083013567ffffffffffffffff811115610c4357610c426107f4565b5b610c4f85828601610bb3565b9150509250929050565b6000819050919050565b610c6c81610c59565b8114610c7757600080fd5b50565b600081359050610c8981610c63565b92915050565b610c9881610b04565b8114610ca357600080fd5b50565b600081359050610cb581610c8f565b92915050565b60008060008060808587031215610cd557610cd46107ef565b5b6000610ce387828801610c7a565b9450506020610cf487828801610ca6565b9350506040610d0587828801610c7a565b9250506060610d1687828801610c7a565b91505092959194509250565b600080fd5b600080fd5b60008083601f840112610d4257610d416108b4565b5b8235905067ffffffffffffffff811115610d5f57610d5e610d22565b5b602083019150836001820283011115610d7b57610d7a610d27565b5b9250929050565b60008060008060608587031215610d9c57610d9b6107ef565b5b6000610daa87828801610ca6565b9450506020610dbb87828801610c7a565b935050604085013567ffffffffffffffff811115610ddc57610ddb6107f4565b5b610de887828801610d2c565b925092505092959194509250565b610dff81610c59565b82525050565b6000606082019050610e1a6000830186610df6565b610e276020830185610b16565b610e346040830184610df6565b949350505050565b600081519050919050565b600081905092915050565b6000610e5d82610e3c565b610e678185610e47565b9350610e77818560208601610a5f565b80840191505092915050565b6000610e8f8284610e52565b915081905092915050565b7f4e487b7100000000000000000000000000000000000000000000000000000000600052602260045260246000fd5b60006002820490506001821680610ee157607f821691505b602082108103610ef457610ef3610e9a565b5b50919050565b6000602082019050610f0f6000830184610df6565b92915050565b600081519050610f2481610c8f565b92915050565b600060208284031215610f4057610f3f6107ef565b5b6000610f4e84828501610f15565b91505092915050565b600082825260208201905092915050565b7f4d6978746170654163636f756e743a204e6f7420746865206f776e6572000000600082015250565b6000610f9e601d83610f57565b9150610fa982610f68565b602082019050919050565b60006020820190508181036000830152610fcd81610f91565b9050919050565b60008190508160005260206000209050919050565b60006020601f8301049050919050565b600082821b905092915050565b6000600883026110367fffffffffffffffffffffffffffffffffffffffffffffffffffffffffffffffff82610ff9565b6110408683610ff9565b95508019841693508086168417925050509392505050565b6000819050919050565b600061107d61107861107384610c59565b611058565b610c59565b9050919050565b6000819050919050565b61109783611062565b6110ab6110a382611084565b848454611006565b825550505050565b600090565b6110c06110b3565b6110cb81848461108e565b505050565b5b818110156110ef576110e46000826110b8565b6001810190506110d1565b5050565b601f8211156111345761110581610fd4565b61110e84610fe9565b8101602085101561111d578190505b61113161112985610fe9565b8301826110d0565b50505b505050565b600082821c905092915050565b600061115760001984600802611139565b1980831691505092915050565b60006111708383611146565b9150826002028217905092915050565b61118982610a43565b67ffffffffffffffff8111156111a2576111a16108cf565b5b6111ac8254610ec9565b6111b78282856110f3565b600060209050601f8311600181146111ea57600084156111d8578287015190505b6111e28582611164565b86555061124a565b601f1984166111f886610fd4565b60005b82811015611220578489015182556001820191506020850194506020810190506111fb565b8683101561123d5784890151611239601f891682611146565b8355505b6001600288020188555050505b505050505050565b600061125d82610e3c565b6112678185610f57565b9350611277818560208601610a5f565b611280816108be565b840191505092915050565b600060408201905081810360008301526112a58185611252565b905081810360208301526112b98184610a89565b90509392505050565b7f4d6978746170654163636f756e743a20416c726561647920696e697469616c6960008201527f7a65640000000000000000000000000000000000000000000000000000000000602082015250565b600061131e602383610f57565b9150611329826112c2565b604082019050919050565b6000602082019050818103600083015261134d81611311565b9050919050565b600081905092915050565b600061136b8385611354565b935061137883858461097b565b82840190509392505050565b600061139182848661135f565b91508190509392505050565b7f4d6978746170654163636f756e743a20457865637574696f6e206661696c6564600082015250565b60006113d3602083610f57565b91506113de8261139d565b602082019050919050565b60006020820190508181036000830152611402816113c6565b9050919050565b60006114158385610a4e565b935061142283858461097b565b61142b836108be565b840190509392505050565b600060408201905061144b6000830186610df6565b818103602083015261145e818486611409565b9050949350505050565b7f5265656e7472616e637947756172643a207265656e7472616e742063616c6c00600082015250565b600061149e601f83610f57565b91506114a982611468565b602082019050919050565b600060208201905081810360008301526114cd81611491565b905091905056fea26469706673582212202899467dfa5261ad849bcef25c2cec43c22aa6f11da802e26d27d6e1f09b080f64736f6c63430008140033",
  "linkReferences": {},
  "deployedLinkReferences": {}
}