{
  "_format": "hh-sol-artifact-1",
  "contractName": "EnhancedMixtapeNFT",
  "sourceName": "contracts/EnhancedMixtapeNFT.sol",
  "abi": [
    {
      "inputs": [
        {
          "internalType": "address",
          "name": "_registry",
          "type": "address"
        },
        {
          "internalType": "address",
          "name": "_implementation",
          "type": "address"
        }
      ],
      "stateMutability": "nonpayable",
      "type": "constructor"
    },
    {
      "anonymous": false,
      "inputs": [
        {
          "indexed": true,
          "internalType": "address",
          "name": "owner",
          "type": "address"
        },
        {
          "indexed": true,
          "internalType": "address",
          "name": "approved",
          "type": "address"
        },
        {
          "indexed": true,
          "internalType": "uint256",
          "name": "tokenId",
          "type": "uint256"
        }
      ],
      "name": "Approval",
      "type": "event"
    },
    {
      "anonymous": false,
      "inputs": [
        {
          "indexed": true,
          "internalType": "address",
          "name": "owner",
          "type": "address"
        },
        {
          "indexed": true,
          "internalType": "address",
          "name": "operator",
          "type": "address"
        },
        {
          "indexed": false,
          "internalType": "bool",
          "name": "approved",
          "type": "bool"
        }
      ],
      "name": "ApprovalForAll",
      "type": "event"
    },
    {
      "anonymous": false,
      "inputs": [
        {
          "indexed": false,
          "internalType": "uint256",
          "name": "_fromTokenId",
          "type": "uint256"
        },
        {
          "indexed": false,
          "internalType": "uint256",
          "name": "_toTokenId",
          "type": "uint256"
        }
      ],
      "name": "BatchMetadataUpdate",
      "type": "event"
    },
    {
      "anonymous": false,
      "inputs": [
        {
          "indexed": false,
          "internalType": "uint256",
          "name": "_tokenId",
          "type": "uint256"
        }
      ],
      "name": "MetadataUpdate",
      "type": "event"
    },
    {
      "anonymous": false,
      "inputs": [
        {
          "indexed": true,
          "internalType": "uint256",
          "name": "tokenId",
          "type": "uint256"
        },
        {
          "indexed": true,
          "internalType": "address",
          "name": "creator",
          "type": "address"
        },
        {
          "indexed": false,
          "internalType": "string",
          "name": "title",
          "type": "string"
        }
      ],
      "name": "MixtapeCreated",
      "type": "event"
    },
    {
      "anonymous": false,
      "inputs": [
        {
          "indexed": true,
          "internalType": "uint256",
          "name": "tokenId",
          "type": "uint256"
        },
        {
          "indexed": true,
          "internalType": "address",
          "name": "player",
          "type": "address"
        },
        {
          "indexed": false,
          "internalType": "uint256",
          "name": "amount",
          "type": "uint256"
        }
      ],
      "name": "MixtapePlayed",
      "type": "event"
    },
    {
      "anonymous": false,
      "inputs": [
        {
          "indexed": true,
          "internalType": "address",
          "name": "previousOwner",
          "type": "address"
        },
        {
          "indexed": true,
          "internalType": "address",
          "name": "newOwner",
          "type": "address"
        }
      ],
      "name": "OwnershipTransferred",
      "type": "event"
    },
    {
      "anonymous": false,
      "inputs": [
        {
          "indexed": false,
          "internalType": "address",
          "name": "account",
          "type": "address"
        }
      ],
      "name": "Paused",
      "type": "event"
    },
    {
      "anonymous": false,
      "inputs": [
        {
          "indexed": true,
          "internalType": "uint256",
          "name": "tokenId",
          "type": "uint256"
        },
        {
          "indexed": false,
          "internalType": "uint256",
          "name": "price",
          "type": "uint256"
        }
      ],
      "name": "PlayPriceSet",
      "type": "event"
    },
    {
      "anonymous": false,
      "inputs": [
        {
          "indexed": true,
          "internalType": "uint256",
          "name": "tokenId",
          "type": "uint256"
        },
        {
          "indexed": true,
          "internalType": "address",
          "name": "tbaAddress",
          "type": "address"
        }
      ],
      "name": "TokenBoundAccountCreated",
      "type": "event"
    },
    {
      "anonymous": false,
      "inputs": [
        {
          "indexed": true,
          "internalType": "uint256",
          "name": "tokenId",
          "type": "uint256"
        },
        {
          "indexed": false,
          "internalType": "string",
          "name": "trackId",
          "type": "string"
        }
      ],
      "name": "TrackAdded",
      "type": "event"
    },
    {
      "anonymous": false,
      "inputs": [
        {
          "indexed": true,
          "internalType": "address",
          "name": "from",
          "type": "address"
        },
        {
          "indexed": true,
          "internalType": "address",
          "name": "to",
          "type": "address"
        },
        {
          "indexed": true,
          "internalType": "uint256",
          "name": "tokenId",
          "type": "uint256"
        }
      ],
      "name": "Transfer",
      "type": "event"
    },
    {
      "anonymous": false,
      "inputs": [
        {
          "indexed": false,
          "internalType": "address",
          "name": "account",
          "type": "address"
        }
      ],
      "name": "Unpaused",
      "type": "event"
    },
    {
      "inputs": [
        {
          "internalType": "uint256",
          "name": "tokenId",
          "type": "uint256"
        },
        {
          "internalType": "string",
          "name": "trackId",
          "type": "string"
        }
      ],
      "name": "addTrack",
      "outputs": [],
      "stateMutability": "nonpayable",
      "type": "function"
    },
    {
      "inputs": [
        {
          "internalType": "address",
          "name": "to",
          "type": "address"
        },
        {
          "internalType": "uint256",
          "name": "tokenId",
          "type": "uint256"
        }
      ],
      "name": "approve",
      "outputs": [],
      "stateMutability": "nonpayable",
      "type": "function"
    },
    {
      "inputs": [
        {
          "internalType": "address",
          "name": "owner",
          "type": "address"
        }
      ],
      "name": "balanceOf",
      "outputs": [
        {
          "internalType": "uint256",
          "name": "",
          "type": "uint256"
        }
      ],
      "stateMutability": "view",
      "type": "function"
    },
    {
      "inputs": [
        {
          "internalType": "address",
          "name": "recipient",
          "type": "address"
        },
        {
          "internalType": "string",
          "name": "title",
          "type": "string"
        },
        {
          "internalType": "string",
          "name": "description",
          "type": "string"
        },
        {
          "internalType": "string",
          "name": "tokenURI",
          "type": "string"
        },
        {
          "internalType": "uint256",
          "name": "playPrice",
          "type": "uint256"
        }
      ],
      "name": "createMixtape",
      "outputs": [
        {
          "internalType": "uint256",
          "name": "",
          "type": "uint256"
        }
      ],
      "stateMutability": "nonpayable",
      "type": "function"
    },
    {
      "inputs": [
        {
          "internalType": "uint256",
          "name": "tokenId",
          "type": "uint256"
        }
      ],
      "name": "getApproved",
      "outputs": [
        {
          "internalType": "address",
          "name": "",
          "type": "address"
        }
      ],
      "stateMutability": "view",
      "type": "function"
    },
    {
      "inputs": [
        {
          "internalType": "uint256",
          "name": "tokenId",
          "type": "uint256"
        }
      ],
      "name": "getCreator",
      "outputs": [
        {
          "internalType": "address",
          "name": "",
          "type": "address"
        }
      ],
      "stateMutability": "view",
      "type": "function"
    },
    {
      "inputs": [
        {
          "internalType": "uint256",
          "name": "tokenId",
          "type": "uint256"
        }
      ],
      "name": "getMixtapeMetadata",
      "outputs": [
        {
          "internalType": "string",
          "name": "title",
          "type": "string"
        },
        {
          "internalType": "string",
          "name": "description",
          "type": "string"
        },
        {
          "internalType": "string[]",
          "name": "trackIds",
          "type": "string[]"
        },
        {
          "internalType": "uint256",
          "name": "createdAt",
          "type": "uint256"
        }
      ],
      "stateMutability": "view",
      "type": "function"
    },
    {
      "inputs": [
        {
          "internalType": "uint256",
          "name": "tokenId",
          "type": "uint256"
        }
      ],
      "name": "getPlayPrice",
      "outputs": [
        {
          "internalType": "uint256",
          "name": "",
          "type": "uint256"
        }
      ],
      "stateMutability": "view",
      "type": "function"
    },
    {
      "inputs": [
        {
          "internalType": "uint256",
          "name": "tokenId",
          "type": "uint256"
        }
      ],
      "name": "getTokenBoundAccount",
      "outputs": [
        {
          "internalType": "address",
          "name": "",
          "type": "address"
        }
      ],
      "stateMutability": "view",
      "type": "function"
    },
    {
      "inputs": [],
      "name": "getTotalMixtapes",
      "outputs": [
        {
          "internalType": "uint256",
          "name": "",
          "type": "uint256"
        }
      ],
      "stateMutability": "view",
      "type": "function"
    },
    {
      "inputs": [],
      "name": "implementation",
      "outputs": [
        {
          "internalType": "address",
          "name": "",
          "type": "address"
        }
      ],
      "stateMutability": "view",
      "type": "function"
    },
    {
      "inputs": [
        {
          "internalType": "address",
          "name": "owner",
          "type": "address"
        },
        {
          "internalType": "address",
          "name": "operator",
          "type": "address"
        }
      ],
      "name": "isApprovedForAll",
      "outputs": [
        {
          "internalType": "bool",
          "name": "",
          "type": "bool"
        }
      ],
      "stateMutability": "view",
      "type": "function"
    },
    {
      "inputs": [],
      "name": "name",
      "outputs": [
        {
          "internalType": "string",
          "name": "",
          "type": "string"
        }
      ],
      "stateMutability": "view",
      "type": "function"
    },
    {
      "inputs": [],
      "name": "owner",
      "outputs": [
        {
          "internalType": "address",
          "name": "",
          "type": "address"
        }
      ],
      "stateMutability": "view",
      "type": "function"
    },
    {
      "inputs": [
        {
          "internalType": "uint256",
          "name": "tokenId",
          "type": "uint256"
        }
      ],
      "name": "ownerOf",
      "outputs": [
        {
          "internalType": "address",
          "name": "",
          "type": "address"
        }
      ],
      "stateMutability": "view",
      "type": "function"
    },
    {
      "inputs": [],
      "name": "pause",
      "outputs": [],
      "stateMutability": "nonpayable",
      "type": "function"
    },
    {
      "inputs": [],
      "name": "paused",
      "outputs": [
        {
          "internalType": "bool",
          "name": "",
          "type": "bool"
        }
      ],
      "stateMutability": "view",
      "type": "function"
    },
    {
      "inputs": [
        {
          "internalType": "uint256",
          "name": "tokenId",
          "type": "uint256"
        }
      ],
      "name": "playMixtape",
      "outputs": [],
      "stateMutability": "payable",
      "type": "function"
    },
    {
      "inputs": [],
      "name": "registry",
      "outputs": [
        {
          "internalType": "address",
          "name": "",
          "type": "address"
        }
      ],
      "stateMutability": "view",
      "type": "function"
    },
    {
      "inputs": [],
      "name": "renounceOwnership",
      "outputs": [],
      "stateMutability": "nonpayable",
      "type": "function"
    },
    {
      "inputs": [
        {
          "internalType": "address",
          "name": "from",
          "type": "address"
        },
        {
          "internalType": "address",
          "name": "to",
          "type": "address"
        },
        {
          "internalType": "uint256",
          "name": "tokenId",
          "type": "uint256"
        }
      ],
      "name": "safeTransferFrom",
      "outputs": [],
      "stateMutability": "nonpayable",
      "type": "function"
    },
    {
      "inputs": [
        {
          "internalType": "address",
          "name": "from",
          "type": "address"
        },
        {
          "internalType": "address",
          "name": "to",
          "type": "address"
        },
        {
          "internalType": "uint256",
          "name": "tokenId",
          "type": "uint256"
        },
        {
          "internalType": "bytes",
          "name": "data",
          "type": "bytes"
        }
      ],
      "name": "safeTransferFrom",
      "outputs": [],
      "stateMutability": "nonpayable",
      "type": "function"
    },
    {
      "inputs": [
        {
          "internalType": "address",
          "name": "operator",
          "type": "address"
        },
        {
          "internalType": "bool",
          "name": "approved",
          "type": "bool"
        }
      ],
      "name": "setApprovalForAll",
      "outputs": [],
      "stateMutability": "nonpayable",
      "type": "function"
    },
    {
      "inputs": [
        {
          "internalType": "address",
          "name": "_implementation",
          "type": "address"
        }
      ],
      "name": "setImplementation",
      "outputs": [],
      "stateMutability": "nonpayable",
      "type": "function"
    },
    {
      "inputs": [
        {
          "internalType": "uint256",
          "name": "tokenId",
          "type": "uint256"
        },
        {
          "internalType": "uint256",
          "name": "price",
          "type": "uint256"
        }
      ],
      "name": "setPlayPrice",
      "outputs": [],
      "stateMutability": "nonpayable",
      "type": "function"
    },
    {
      "inputs": [
        {
          "internalType": "address",
          "name": "_registry",
          "type": "address"
        }
      ],
      "name": "setRegistry",
      "outputs": [],
      "stateMutability": "nonpayable",
      "type": "function"
    },
    {
      "inputs": [
        {
          "internalType": "bytes4",
          "name": "interfaceId",
          "type": "bytes4"
        }
      ],
      "name": "supportsInterface",
      "outputs": [
        {
          "internalType": "bool",
          "name": "",
          "type": "bool"
        }
      ],
      "stateMutability": "view",
      "type": "function"
    },
    {
      "inputs": [],
      "name": "symbol",
      "outputs": [
        {
          "internalType": "string",
          "name": "",
          "type": "string"
        }
      ],
      "stateMutability": "view",
      "type": "function"
    },
    {
      "inputs": [
        {
          "internalType": "uint256",
          "name": "tokenId",
          "type": "uint256"
        }
      ],
      "name": "tokenURI",
      "outputs": [
        {
          "internalType": "string",
          "name": "",
          "type": "string"
        }
      ],
      "stateMutability": "view",
      "type": "function"
    },
    {
      "inputs": [
        {
          "internalType": "address",
          "name": "from",
          "type": "address"
        },
        {
          "internalType": "address",
          "name": "to",
          "type": "address"
        },
        {
          "internalType": "uint256",
          "name": "tokenId",
          "type": "uint256"
        }
      ],
      "name": "transferFrom",
      "outputs": [],
      "stateMutability": "nonpayable",
      "type": "function"
    },
    {
      "inputs": [
        {
          "internalType": "address",
          "name": "newOwner",
          "type": "address"
        }
      ],
      "name": "transferOwnership",
      "outputs": [],
      "stateMutability": "nonpayable",
      "type": "function"
    },
    {
      "inputs": [],
      "name": "unpause",
      "outputs": [],
      "stateMutability": "nonpayable",
      "type": "function"
    }
  ],
  "bytecode": "0x60806040523480156200001157600080fd5b5060405162005444380380620054448339818101604052810190620000379190620002ce565b6040518060400160405280600b81526020017f4d697874617065204e46540000000000000000000000000000000000000000008152506040518060400160405280600781526020017f4d495854415045000000000000000000000000000000000000000000000000008152508160009081620000b491906200058f565b508060019081620000c691906200058f565b505050620000e9620000dd6200019660201b60201c565b6200019e60201b60201c565b6000600760146101000a81548160ff021916908315150217905550600160088190555081600a60006101000a81548173ffffffffffffffffffffffffffffffffffffffff021916908373ffffffffffffffffffffffffffffffffffffffff16021790555080600b60006101000a81548173ffffffffffffffffffffffffffffffffffffffff021916908373ffffffffffffffffffffffffffffffffffffffff160217905550505062000676565b600033905090565b6000600760009054906101000a900473ffffffffffffffffffffffffffffffffffffffff16905081600760006101000a81548173ffffffffffffffffffffffffffffffffffffffff021916908373ffffffffffffffffffffffffffffffffffffffff1602179055508173ffffffffffffffffffffffffffffffffffffffff168173ffffffffffffffffffffffffffffffffffffffff167f8be0079c531659141344cd1fd0a4f28419497f9722a3daafe3b4186f6b6457e060405160405180910390a35050565b600080fd5b600073ffffffffffffffffffffffffffffffffffffffff82169050919050565b6000620002968262000269565b9050919050565b620002a88162000289565b8114620002b457600080fd5b50565b600081519050620002c8816200029d565b92915050565b60008060408385031215620002e857620002e762000264565b5b6000620002f885828601620002b7565b92505060206200030b85828601620002b7565b9150509250929050565b600081519050919050565b7f4e487b7100000000000000000000000000000000000000000000000000000000600052604160045260246000fd5b7f4e487b7100000000000000000000000000000000000000000000000000000000600052602260045260246000fd5b600060028204905060018216806200039757607f821691505b602082108103620003ad57620003ac6200034f565b5b50919050565b60008190508160005260206000209050919050565b60006020601f8301049050919050565b600082821b905092915050565b600060088302620004177fffffffffffffffffffffffffffffffffffffffffffffffffffffffffffffffff82620003d8565b620004238683620003d8565b95508019841693508086168417925050509392505050565b6000819050919050565b6000819050919050565b6000620004706200046a62000464846200043b565b62000445565b6200043b565b9050919050565b6000819050919050565b6200048c836200044f565b620004a46200049b8262000477565b848454620003e5565b825550505050565b600090565b620004bb620004ac565b620004c881848462000481565b505050565b5b81811015620004f057620004e4600082620004b1565b600181019050620004ce565b5050565b601f8211156200053f576200050981620003b3565b6200051484620003c8565b8101602085101562000524578190505b6200053c6200053385620003c8565b830182620004cd565b50505b505050565b600082821c905092915050565b6000620005646000198460080262000544565b1980831691505092915050565b60006200057f838362000551565b9150826002028217905092915050565b6200059a8262000315565b67ffffffffffffffff811115620005b657620005b562000320565b5b620005c282546200037e565b620005cf828285620004f4565b600060209050601f831160018114620006075760008415620005f2578287015190505b620005fe858262000571565b8655506200066e565b601f1984166200061786620003b3565b60005b8281101562000641578489015182556001820191506020850194506020810190506200061a565b868310156200066157848901516200065d601f89168262000551565b8355505b6001600288020188555050505b505050505050565b614dbe80620006866000396000f3fe6080604052600436106101e35760003560e01c80638b6c427111610102578063c407717a11610095578063de12213011610064578063de12213014610705578063e546f90f14610721578063e985e9c51461074c578063f2fde38b14610789576101e3565b8063c407717a14610625578063c87b56dd14610662578063d48e638a1461069f578063d784d426146106dc576101e3565b8063a22cb465116100d1578063a22cb4651461056d578063a91ee0dc14610596578063abb23f5b146105bf578063b88d4fde146105fc576101e3565b80638b6c4271146104ae5780638da5cb5b146104d75780638defb7011461050257806395d89b4114610542576101e3565b80635c60da1b1161017a578063715018a611610149578063715018a61461042c57806376124bdf146104435780637b1039991461046c5780638456cb5914610497576101e3565b80635c60da1b1461035c5780635c975abb146103875780636352211e146103b257806370a08231146103ef576101e3565b806323b872dd116101b657806323b872dd146102b657806339872de3146102df5780633f4ba83a1461031c57806342842e0e14610333576101e3565b806301ffc9a7146101e857806306fdde0314610225578063081812fc14610250578063095ea7b31461028d575b600080fd5b3480156101f457600080fd5b5061020f600480360381019061020a9190613234565b6107b2565b60405161021c919061327c565b60405180910390f35b34801561023157600080fd5b5061023a610813565b6040516102479190613327565b60405180910390f35b34801561025c57600080fd5b506102776004803603810190610272919061337f565b6108a5565b60405161028491906133ed565b60405180910390f35b34801561029957600080fd5b506102b460048036038101906102af9190613434565b6108eb565b005b3480156102c257600080fd5b506102dd60048036038101906102d89190613474565b610a02565b005b3480156102eb57600080fd5b50610306600480360381019061030191906135fc565b610a62565b60405161031391906136da565b60405180910390f35b34801561032857600080fd5b50610331610c88565b005b34801561033f57600080fd5b5061035a60048036038101906103559190613474565b610c9a565b005b34801561036857600080fd5b50610371610cba565b60405161037e91906133ed565b60405180910390f35b34801561039357600080fd5b5061039c610ce0565b6040516103a9919061327c565b60405180910390f35b3480156103be57600080fd5b506103d960048036038101906103d4919061337f565b610cf7565b6040516103e691906133ed565b60405180910390f35b3480156103fb57600080fd5b50610416600480360381019061041191906136f5565b610d7d565b60405161042391906136da565b60405180910390f35b34801561043857600080fd5b50610441610e34565b005b34801561044f57600080fd5b5061046a60048036038101906104659190613722565b610e48565b005b34801561047857600080fd5b50610481610f66565b60405161048e91906133ed565b60405180910390f35b3480156104a357600080fd5b506104ac610f8c565b005b3480156104ba57600080fd5b506104d560048036038101906104d0919061377e565b610f9e565b005b3480156104e357600080fd5b506104ec611083565b6040516104f991906133ed565b60405180910390f35b34801561050e57600080fd5b506105296004803603810190610524919061337f565b6110ad565b60405161053994939291906138ca565b60405180910390f35b34801561054e57600080fd5b50610557611349565b6040516105649190613327565b60405180910390f35b34801561057957600080fd5b50610594600480360381019061058f9190613950565b6113db565b005b3480156105a257600080fd5b506105bd60048036038101906105b891906136f5565b6113f1565b005b3480156105cb57600080fd5b506105e660048036038101906105e1919061337f565b6114ac565b6040516105f391906133ed565b60405180910390f35b34801561060857600080fd5b50610623600480360381019061061e9190613a31565b611531565b005b34801561063157600080fd5b5061064c6004803603810190610647919061337f565b611593565b60405161065991906136da565b60405180910390f35b34801561066e57600080fd5b506106896004803603810190610684919061337f565b6115f8565b6040516106969190613327565b60405180910390f35b3480156106ab57600080fd5b506106c660048036038101906106c1919061337f565b61170a565b6040516106d391906133ed565b60405180910390f35b3480156106e857600080fd5b5061070360048036038101906106fe91906136f5565b61178f565b005b61071f600480360381019061071a919061337f565b61184a565b005b34801561072d57600080fd5b50610736611aa7565b60405161074391906136da565b60405180910390f35b34801561075857600080fd5b50610773600480360381019061076e9190613ab4565b611ab8565b604051610780919061327c565b60405180910390f35b34801561079557600080fd5b506107b060048036038101906107ab91906136f5565b611b4c565b005b6000634906490660e01b7bffffffffffffffffffffffffffffffffffffffffffffffffffffffff1916827bffffffffffffffffffffffffffffffffffffffffffffffffffffffff1916148061080c575061080b82611bcf565b5b9050919050565b60606000805461082290613b23565b80601f016020809104026020016040519081016040528092919081815260200182805461084e90613b23565b801561089b5780601f106108705761010080835404028352916020019161089b565b820191906000526020600020905b81548152906001019060200180831161087e57829003601f168201915b5050505050905090565b60006108b082611cb1565b6004600083815260200190815260200160002060009054906101000a900473ffffffffffffffffffffffffffffffffffffffff169050919050565b60006108f682610cf7565b90508073ffffffffffffffffffffffffffffffffffffffff168373ffffffffffffffffffffffffffffffffffffffff1603610966576040517f08c379a000000000000000000000000000000000000000000000000000000000815260040161095d90613bc6565b60405180910390fd5b8073ffffffffffffffffffffffffffffffffffffffff16610985611cfc565b73ffffffffffffffffffffffffffffffffffffffff1614806109b457506109b3816109ae611cfc565b611ab8565b5b6109f3576040517f08c379a00000000000000000000000000000000000000000000000000000000081526004016109ea90613c58565b60405180910390fd5b6109fd8383611d04565b505050565b610a13610a0d611cfc565b82611dbd565b610a52576040517f08c379a0000000000000000000000000000000000000000000000000000000008152600401610a4990613cea565b60405180910390fd5b610a5d838383611e52565b505050565b6000610a6c61214b565b610a74612195565b610a7e60096121e4565b6000610a8a60096121fa565b9050610a968782612208565b610aa08185612226565b33600c600083815260200190815260200160002060006101000a81548173ffffffffffffffffffffffffffffffffffffffff021916908373ffffffffffffffffffffffffffffffffffffffff1602179055506040518060800160405280878152602001868152602001600067ffffffffffffffff811115610b2457610b236134d1565b5b604051908082528060200260200182016040528015610b5757816020015b6060815260200190600190039081610b425790505b50815260200142815250600d60008381526020019081526020016000206000820151816000019081610b899190613eb6565b506020820151816001019081610b9f9190613eb6565b506040820151816002019080519060200190610bbc9291906130ee565b506060820151816003015590505082600f600083815260200190815260200160002081905550610beb816122ca565b503373ffffffffffffffffffffffffffffffffffffffff16817f3e1091f851bafe65d0e1ad9ccd8b65efa4e48ec95bd8c1cb71d7901759ac98b888604051610c339190613327565b60405180910390a3807fe12e5af4b34535b41438a6eed0aa6dfcfc6f3b7be0ec46e43d5e6cf0c4c6120a84604051610c6b91906136da565b60405180910390a280915050610c7f612513565b95945050505050565b610c9061251d565b610c9861259b565b565b610cb583838360405180602001604052806000815250611531565b505050565b600b60009054906101000a900473ffffffffffffffffffffffffffffffffffffffff1681565b6000600760149054906101000a900460ff16905090565b600080610d03836125fe565b9050600073ffffffffffffffffffffffffffffffffffffffff168173ffffffffffffffffffffffffffffffffffffffff1603610d74576040517f08c379a0000000000000000000000000000000000000000000000000000000008152600401610d6b90613fd4565b60405180910390fd5b80915050919050565b60008073ffffffffffffffffffffffffffffffffffffffff168273ffffffffffffffffffffffffffffffffffffffff1603610ded576040517f08c379a0000000000000000000000000000000000000000000000000000000008152600401610de490614066565b60405180910390fd5b600360008373ffffffffffffffffffffffffffffffffffffffff1673ffffffffffffffffffffffffffffffffffffffff168152602001908152602001600020549050919050565b610e3c61251d565b610e46600061263b565b565b610e5061214b565b610e5982612701565b610e98576040517f08c379a0000000000000000000000000000000000000000000000000000000008152600401610e8f906140d2565b60405180910390fd5b610ea23383611dbd565b610ee1576040517f08c379a0000000000000000000000000000000000000000000000000000000008152600401610ed890614164565b60405180910390fd5b600d600083815260200190815260200160002060020181908060018154018082558091505060019003906000526020600020016000909190919091509081610f299190613eb6565b50817f7a205425686365adbbc9222ac526157abcbd7fc82b3f610027ad1b61855ce11e82604051610f5a9190613327565b60405180910390a25050565b600a60009054906101000a900473ffffffffffffffffffffffffffffffffffffffff1681565b610f9461251d565b610f9c612742565b565b610fa782612701565b610fe6576040517f08c379a0000000000000000000000000000000000000000000000000000000008152600401610fdd906140d2565b60405180910390fd5b610ff03383611dbd565b61102f576040517f08c379a000000000000000000000000000000000000000000000000000000000815260040161102690614164565b60405180910390fd5b80600f600084815260200190815260200160002081905550817fe12e5af4b34535b41438a6eed0aa6dfcfc6f3b7be0ec46e43d5e6cf0c4c6120a8260405161107791906136da565b60405180910390a25050565b6000600760009054906101000a900473ffffffffffffffffffffffffffffffffffffffff16905090565b606080606060006110bd85612701565b6110fc576040517f08c379a00000000000000000000000000000000000000000000000000000000081526004016110f3906140d2565b60405180910390fd5b6000600d600087815260200190815260200160002060405180608001604052908160008201805461112c90613b23565b80601f016020809104026020016040519081016040528092919081815260200182805461115890613b23565b80156111a55780601f1061117a576101008083540402835291602001916111a5565b820191906000526020600020905b81548152906001019060200180831161118857829003601f168201915b505050505081526020016001820180546111be90613b23565b80601f01602080910402602001604051908101604052809291908181526020018280546111ea90613b23565b80156112375780601f1061120c57610100808354040283529160200191611237565b820191906000526020600020905b81548152906001019060200180831161121a57829003601f168201915b5050505050815260200160028201805480602002602001604051908101604052809291908181526020016000905b8282101561131157838290600052602060002001805461128490613b23565b80601f01602080910402602001604051908101604052809291908181526020018280546112b090613b23565b80156112fd5780601f106112d2576101008083540402835291602001916112fd565b820191906000526020600020905b8154815290600101906020018083116112e057829003601f168201915b505050505081526020019060010190611265565b505050508152602001600382015481525050905080600001518160200151826040015183606001519450945094509450509193509193565b60606001805461135890613b23565b80601f016020809104026020016040519081016040528092919081815260200182805461138490613b23565b80156113d15780601f106113a6576101008083540402835291602001916113d1565b820191906000526020600020905b8154815290600101906020018083116113b457829003601f168201915b5050505050905090565b6113ed6113e6611cfc565b83836127a5565b5050565b6113f961251d565b600073ffffffffffffffffffffffffffffffffffffffff168173ffffffffffffffffffffffffffffffffffffffff1603611468576040517f08c379a000000000000000000000000000000000000000000000000000000000815260040161145f906141f6565b60405180910390fd5b80600a60006101000a81548173ffffffffffffffffffffffffffffffffffffffff021916908373ffffffffffffffffffffffffffffffffffffffff16021790555050565b60006114b782612701565b6114f6576040517f08c379a00000000000000000000000000000000000000000000000000000000081526004016114ed906140d2565b60405180910390fd5b600e600083815260200190815260200160002060009054906101000a900473ffffffffffffffffffffffffffffffffffffffff169050919050565b61154261153c611cfc565b83611dbd565b611581576040517f08c379a000000000000000000000000000000000000000000000000000000000815260040161157890613cea565b60405180910390fd5b61158d84848484612911565b50505050565b600061159e82612701565b6115dd576040517f08c379a00000000000000000000000000000000000000000000000000000000081526004016115d4906140d2565b60405180910390fd5b600f6000838152602001908152602001600020549050919050565b606061160382611cb1565b600060066000848152602001908152602001600020805461162390613b23565b80601f016020809104026020016040519081016040528092919081815260200182805461164f90613b23565b801561169c5780601f106116715761010080835404028352916020019161169c565b820191906000526020600020905b81548152906001019060200180831161167f57829003601f168201915b5050505050905060006116ad61296d565b905060008151036116c2578192505050611705565b6000825111156116f75780826040516020016116df929190614252565b60405160208183030381529060405292505050611705565b61170084612984565b925050505b919050565b600061171582612701565b611754576040517f08c379a000000000000000000000000000000000000000000000000000000000815260040161174b906140d2565b60405180910390fd5b600c600083815260200190815260200160002060009054906101000a900473ffffffffffffffffffffffffffffffffffffffff169050919050565b61179761251d565b600073ffffffffffffffffffffffffffffffffffffffff168173ffffffffffffffffffffffffffffffffffffffff1603611806576040517f08c379a00000000000000000000000000000000000000000000000000000000081526004016117fd906142e8565b60405180910390fd5b80600b60006101000a81548173ffffffffffffffffffffffffffffffffffffffff021916908373ffffffffffffffffffffffffffffffffffffffff16021790555050565b61185261214b565b61185a612195565b61186381612701565b6118a2576040517f08c379a0000000000000000000000000000000000000000000000000000000008152600401611899906140d2565b60405180910390fd5b600f6000828152602001908152602001600020543410156118f8576040517f08c379a00000000000000000000000000000000000000000000000000000000081526004016118ef90614354565b60405180910390fd5b6000600e600083815260200190815260200160002060009054906101000a900473ffffffffffffffffffffffffffffffffffffffff169050600073ffffffffffffffffffffffffffffffffffffffff168173ffffffffffffffffffffffffffffffffffffffff160361199f576040517f08c379a0000000000000000000000000000000000000000000000000000000008152600401611996906143c0565b60405180910390fd5b60008173ffffffffffffffffffffffffffffffffffffffff16346040516119c590614411565b60006040518083038185875af1925050503d8060008114611a02576040519150601f19603f3d011682016040523d82523d6000602084013e611a07565b606091505b5050905080611a4b576040517f08c379a0000000000000000000000000000000000000000000000000000000008152600401611a4290614498565b60405180910390fd5b3373ffffffffffffffffffffffffffffffffffffffff16837fb0b75dbe19a90d878be6b7236da8417d49cadee62025e2fab0e913f8496c617234604051611a9291906136da565b60405180910390a35050611aa4612513565b50565b6000611ab360096121fa565b905090565b6000600560008473ffffffffffffffffffffffffffffffffffffffff1673ffffffffffffffffffffffffffffffffffffffff16815260200190815260200160002060008373ffffffffffffffffffffffffffffffffffffffff1673ffffffffffffffffffffffffffffffffffffffff16815260200190815260200160002060009054906101000a900460ff16905092915050565b611b5461251d565b600073ffffffffffffffffffffffffffffffffffffffff168173ffffffffffffffffffffffffffffffffffffffff1603611bc3576040517f08c379a0000000000000000000000000000000000000000000000000000000008152600401611bba9061452a565b60405180910390fd5b611bcc8161263b565b50565b60007f80ac58cd000000000000000000000000000000000000000000000000000000007bffffffffffffffffffffffffffffffffffffffffffffffffffffffff1916827bffffffffffffffffffffffffffffffffffffffffffffffffffffffff19161480611c9a57507f5b5e139f000000000000000000000000000000000000000000000000000000007bffffffffffffffffffffffffffffffffffffffffffffffffffffffff1916827bffffffffffffffffffffffffffffffffffffffffffffffffffffffff1916145b80611caa5750611ca9826129ec565b5b9050919050565b611cba81612701565b611cf9576040517f08c379a0000000000000000000000000000000000000000000000000000000008152600401611cf090613fd4565b60405180910390fd5b50565b600033905090565b816004600083815260200190815260200160002060006101000a81548173ffffffffffffffffffffffffffffffffffffffff021916908373ffffffffffffffffffffffffffffffffffffffff160217905550808273ffffffffffffffffffffffffffffffffffffffff16611d7783610cf7565b73ffffffffffffffffffffffffffffffffffffffff167f8c5be1e5ebec7d5bd14f71427d1e84f3dd0314c0f7b2291e5b200ac8c7c3b92560405160405180910390a45050565b600080611dc983610cf7565b90508073ffffffffffffffffffffffffffffffffffffffff168473ffffffffffffffffffffffffffffffffffffffff161480611e0b5750611e0a8185611ab8565b5b80611e4957508373ffffffffffffffffffffffffffffffffffffffff16611e31846108a5565b73ffffffffffffffffffffffffffffffffffffffff16145b91505092915050565b8273ffffffffffffffffffffffffffffffffffffffff16611e7282610cf7565b73ffffffffffffffffffffffffffffffffffffffff1614611ec8576040517f08c379a0000000000000000000000000000000000000000000000000000000008152600401611ebf906145bc565b60405180910390fd5b600073ffffffffffffffffffffffffffffffffffffffff168273ffffffffffffffffffffffffffffffffffffffff1603611f37576040517f08c379a0000000000000000000000000000000000000000000000000000000008152600401611f2e9061464e565b60405180910390fd5b611f448383836001612a56565b8273ffffffffffffffffffffffffffffffffffffffff16611f6482610cf7565b73ffffffffffffffffffffffffffffffffffffffff1614611fba576040517f08c379a0000000000000000000000000000000000000000000000000000000008152600401611fb1906145bc565b60405180910390fd5b6004600082815260200190815260200160002060006101000a81549073ffffffffffffffffffffffffffffffffffffffff02191690556001600360008573ffffffffffffffffffffffffffffffffffffffff1673ffffffffffffffffffffffffffffffffffffffff168152602001908152602001600020600082825403925050819055506001600360008473ffffffffffffffffffffffffffffffffffffffff1673ffffffffffffffffffffffffffffffffffffffff16815260200190815260200160002060008282540192505081905550816002600083815260200190815260200160002060006101000a81548173ffffffffffffffffffffffffffffffffffffffff021916908373ffffffffffffffffffffffffffffffffffffffff160217905550808273ffffffffffffffffffffffffffffffffffffffff168473ffffffffffffffffffffffffffffffffffffffff167fddf252ad1be2c89b69c2b068fc378daa952ba7f163c4a11628f55a4df523b3ef60405160405180910390a46121468383836001612a5c565b505050565b612153610ce0565b15612193576040517f08c379a000000000000000000000000000000000000000000000000000000000815260040161218a906146ba565b60405180910390fd5b565b6002600854036121da576040517f08c379a00000000000000000000000000000000000000000000000000000000081526004016121d190614726565b60405180910390fd5b6002600881905550565b6001816000016000828254019250508190555050565b600081600001549050919050565b612222828260405180602001604052806000815250612a62565b5050565b61222f82612701565b61226e576040517f08c379a0000000000000000000000000000000000000000000000000000000008152600401612265906147b8565b60405180910390fd5b8060066000848152602001908152602001600020908161228e9190613eb6565b507ff8e1a15aba9398e019f0b49df1a4fde98ee17ae345cb5f6b5e2c27f5033e8ce7826040516122be91906136da565b60405180910390a15050565b600080600b60009054906101000a900473ffffffffffffffffffffffffffffffffffffffff164630856000604051602401612309959493929190614843565b6040516020818303038152906040527fda7323b3000000000000000000000000000000000000000000000000000000007bffffffffffffffffffffffffffffffffffffffffffffffffffffffff19166020820180517bffffffffffffffffffffffffffffffffffffffffffffffffffffffff83818316178352505050509050600080600a60009054906101000a900473ffffffffffffffffffffffffffffffffffffffff1673ffffffffffffffffffffffffffffffffffffffff16836040516123d291906148e5565b6000604051808303816000865af19150503d806000811461240f576040519150601f19603f3d011682016040523d82523d6000602084013e612414565b606091505b509150915081612459576040517f08c379a000000000000000000000000000000000000000000000000000000000815260040161245090614948565b60405180910390fd5b60008180602001905181019061246f91906149a6565b905080600e600088815260200190815260200160002060006101000a81548173ffffffffffffffffffffffffffffffffffffffff021916908373ffffffffffffffffffffffffffffffffffffffff1602179055508073ffffffffffffffffffffffffffffffffffffffff16867fc4b8a8d86d64119f34964e927b7da67edd99b17cd62a7c5f1c00f27c3dfb68e860405160405180910390a380945050505050919050565b6001600881905550565b612525611cfc565b73ffffffffffffffffffffffffffffffffffffffff16612543611083565b73ffffffffffffffffffffffffffffffffffffffff1614612599576040517f08c379a000000000000000000000000000000000000000000000000000000000815260040161259090614a1f565b60405180910390fd5b565b6125a3612abd565b6000600760146101000a81548160ff0219169083151502179055507f5db9ee0a495bf2e6ff9c91a7834c1ba4fdd244a5e8aa4e537bd38aeae4b073aa6125e7611cfc565b6040516125f491906133ed565b60405180910390a1565b60006002600083815260200190815260200160002060009054906101000a900473ffffffffffffffffffffffffffffffffffffffff169050919050565b6000600760009054906101000a900473ffffffffffffffffffffffffffffffffffffffff16905081600760006101000a81548173ffffffffffffffffffffffffffffffffffffffff021916908373ffffffffffffffffffffffffffffffffffffffff1602179055508173ffffffffffffffffffffffffffffffffffffffff168173ffffffffffffffffffffffffffffffffffffffff167f8be0079c531659141344cd1fd0a4f28419497f9722a3daafe3b4186f6b6457e060405160405180910390a35050565b60008073ffffffffffffffffffffffffffffffffffffffff16612723836125fe565b73ffffffffffffffffffffffffffffffffffffffff1614159050919050565b61274a61214b565b6001600760146101000a81548160ff0219169083151502179055507f62e78cea01bee320cd4e420270b5ea74000d11b0c9f74754ebdbfc544b05a25861278e611cfc565b60405161279b91906133ed565b60405180910390a1565b8173ffffffffffffffffffffffffffffffffffffffff168373ffffffffffffffffffffffffffffffffffffffff1603612813576040517f08c379a000000000000000000000000000000000000000000000000000000000815260040161280a90614a8b565b60405180910390fd5b80600560008573ffffffffffffffffffffffffffffffffffffffff1673ffffffffffffffffffffffffffffffffffffffff16815260200190815260200160002060008473ffffffffffffffffffffffffffffffffffffffff1673ffffffffffffffffffffffffffffffffffffffff16815260200190815260200160002060006101000a81548160ff0219169083151502179055508173ffffffffffffffffffffffffffffffffffffffff168373ffffffffffffffffffffffffffffffffffffffff167f17307eab39ab6107e8899845ad3d59bd9653f200f220920489ca2b5937696c3183604051612904919061327c565b60405180910390a3505050565b61291c848484611e52565b61292884848484612b06565b612967576040517f08c379a000000000000000000000000000000000000000000000000000000000815260040161295e90614b1d565b60405180910390fd5b50505050565b606060405180602001604052806000815250905090565b606061298f82611cb1565b600061299961296d565b905060008151116129b957604051806020016040528060008152506129e4565b806129c384612c8d565b6040516020016129d4929190614252565b6040516020818303038152906040525b915050919050565b60007f01ffc9a7000000000000000000000000000000000000000000000000000000007bffffffffffffffffffffffffffffffffffffffffffffffffffffffff1916827bffffffffffffffffffffffffffffffffffffffffffffffffffffffff1916149050919050565b50505050565b50505050565b612a6c8383612d5b565b612a796000848484612b06565b612ab8576040517f08c379a0000000000000000000000000000000000000000000000000000000008152600401612aaf90614b1d565b60405180910390fd5b505050565b612ac5610ce0565b612b04576040517f08c379a0000000000000000000000000000000000000000000000000000000008152600401612afb90614b89565b60405180910390fd5b565b6000612b278473ffffffffffffffffffffffffffffffffffffffff16612f78565b15612c80578373ffffffffffffffffffffffffffffffffffffffff1663150b7a02612b50611cfc565b8786866040518563ffffffff1660e01b8152600401612b729493929190614bf3565b6020604051808303816000875af1925050508015612bae57506040513d601f19601f82011682018060405250810190612bab9190614c54565b60015b612c30573d8060008114612bde576040519150601f19603f3d011682016040523d82523d6000602084013e612be3565b606091505b506000815103612c28576040517f08c379a0000000000000000000000000000000000000000000000000000000008152600401612c1f90614b1d565b60405180910390fd5b805181602001fd5b63150b7a0260e01b7bffffffffffffffffffffffffffffffffffffffffffffffffffffffff1916817bffffffffffffffffffffffffffffffffffffffffffffffffffffffff191614915050612c85565b600190505b949350505050565b606060006001612c9c84612f9b565b01905060008167ffffffffffffffff811115612cbb57612cba6134d1565b5b6040519080825280601f01601f191660200182016040528015612ced5781602001600182028036833780820191505090505b509050600082602001820190505b600115612d50578080600190039150507f3031323334353637383961626364656600000000000000000000000000000000600a86061a8153600a8581612d4457612d43614c81565b5b04945060008503612cfb575b819350505050919050565b600073ffffffffffffffffffffffffffffffffffffffff168273ffffffffffffffffffffffffffffffffffffffff1603612dca576040517f08c379a0000000000000000000000000000000000000000000000000000000008152600401612dc190614cfc565b60405180910390fd5b612dd381612701565b15612e13576040517f08c379a0000000000000000000000000000000000000000000000000000000008152600401612e0a90614d68565b60405180910390fd5b612e21600083836001612a56565b612e2a81612701565b15612e6a576040517f08c379a0000000000000000000000000000000000000000000000000000000008152600401612e6190614d68565b60405180910390fd5b6001600360008473ffffffffffffffffffffffffffffffffffffffff1673ffffffffffffffffffffffffffffffffffffffff16815260200190815260200160002060008282540192505081905550816002600083815260200190815260200160002060006101000a81548173ffffffffffffffffffffffffffffffffffffffff021916908373ffffffffffffffffffffffffffffffffffffffff160217905550808273ffffffffffffffffffffffffffffffffffffffff16600073ffffffffffffffffffffffffffffffffffffffff167fddf252ad1be2c89b69c2b068fc378daa952ba7f163c4a11628f55a4df523b3ef60405160405180910390a4612f74600083836001612a5c565b5050565b6000808273ffffffffffffffffffffffffffffffffffffffff163b119050919050565b600080600090507a184f03e93ff9f4daa797ed6e38ed64bf6a1f0100000000000000008310612ff9577a184f03e93ff9f4daa797ed6e38ed64bf6a1f0100000000000000008381612fef57612fee614c81565b5b0492506040810190505b6d04ee2d6d415b85acef81000000008310613036576d04ee2d6d415b85acef8100000000838161302c5761302b614c81565b5b0492506020810190505b662386f26fc10000831061306557662386f26fc10000838161305b5761305a614c81565b5b0492506010810190505b6305f5e100831061308e576305f5e100838161308457613083614c81565b5b0492506008810190505b61271083106130b35761271083816130a9576130a8614c81565b5b0492506004810190505b606483106130d657606483816130cc576130cb614c81565b5b0492506002810190505b600a83106130e5576001810190505b80915050919050565b828054828255906000526020600020908101928215613136579160200282015b828111156131355782518290816131259190613eb6565b509160200191906001019061310e565b5b5090506131439190613147565b5090565b5b80821115613167576000818161315e919061316b565b50600101613148565b5090565b50805461317790613b23565b6000825580601f1061318957506131a8565b601f0160209004906000526020600020908101906131a791906131ab565b5b50565b5b808211156131c45760008160009055506001016131ac565b5090565b6000604051905090565b600080fd5b600080fd5b60007fffffffff0000000000000000000000000000000000000000000000000000000082169050919050565b613211816131dc565b811461321c57600080fd5b50565b60008135905061322e81613208565b92915050565b60006020828403121561324a576132496131d2565b5b60006132588482850161321f565b91505092915050565b60008115159050919050565b61327681613261565b82525050565b6000602082019050613291600083018461326d565b92915050565b600081519050919050565b600082825260208201905092915050565b60005b838110156132d15780820151818401526020810190506132b6565b60008484015250505050565b6000601f19601f8301169050919050565b60006132f982613297565b61330381856132a2565b93506133138185602086016132b3565b61331c816132dd565b840191505092915050565b6000602082019050818103600083015261334181846132ee565b905092915050565b6000819050919050565b61335c81613349565b811461336757600080fd5b50565b60008135905061337981613353565b92915050565b600060208284031215613395576133946131d2565b5b60006133a38482850161336a565b91505092915050565b600073ffffffffffffffffffffffffffffffffffffffff82169050919050565b60006133d7826133ac565b9050919050565b6133e7816133cc565b82525050565b600060208201905061340260008301846133de565b92915050565b613411816133cc565b811461341c57600080fd5b50565b60008135905061342e81613408565b92915050565b6000806040838503121561344b5761344a6131d2565b5b60006134598582860161341f565b925050602061346a8582860161336a565b9150509250929050565b60008060006060848603121561348d5761348c6131d2565b5b600061349b8682870161341f565b93505060206134ac8682870161341f565b92505060406134bd8682870161336a565b9150509250925092565b600080fd5b600080fd5b7f4e487b7100000000000000000000000000000000000000000000000000000000600052604160045260246000fd5b613509826132dd565b810181811067ffffffffffffffff82111715613528576135276134d1565b5b80604052505050565b600061353b6131c8565b90506135478282613500565b919050565b600067ffffffffffffffff821115613567576135666134d1565b5b613570826132dd565b9050602081019050919050565b82818337600083830152505050565b600061359f61359a8461354c565b613531565b9050828152602081018484840111156135bb576135ba6134cc565b5b6135c684828561357d565b509392505050565b600082601f8301126135e3576135e26134c7565b5b81356135f384826020860161358c565b91505092915050565b600080600080600060a08688031215613618576136176131d2565b5b60006136268882890161341f565b955050602086013567ffffffffffffffff811115613647576136466131d7565b5b613653888289016135ce565b945050604086013567ffffffffffffffff811115613674576136736131d7565b5b613680888289016135ce565b935050606086013567ffffffffffffffff8111156136a1576136a06131d7565b5b6136ad888289016135ce565b92505060806136be8882890161336a565b9150509295509295909350565b6136d481613349565b82525050565b60006020820190506136ef60008301846136cb565b92915050565b60006020828403121561370b5761370a6131d2565b5b60006137198482850161341f565b91505092915050565b60008060408385031215613739576137386131d2565b5b60006137478582860161336a565b925050602083013567ffffffffffffffff811115613768576137676131d7565b5b613774858286016135ce565b9150509250929050565b60008060408385031215613795576137946131d2565b5b60006137a38582860161336a565b92505060206137b48582860161336a565b9150509250929050565b600081519050919050565b600082825260208201905092915050565b6000819050602082019050919050565b600082825260208201905092915050565b600061380682613297565b61381081856137ea565b93506138208185602086016132b3565b613829816132dd565b840191505092915050565b600061384083836137fb565b905092915050565b6000602082019050919050565b6000613860826137be565b61386a81856137c9565b93508360208202850161387c856137da565b8060005b858110156138b857848403895281516138998582613834565b94506138a483613848565b925060208a01995050600181019050613880565b50829750879550505050505092915050565b600060808201905081810360008301526138e481876132ee565b905081810360208301526138f881866132ee565b9050818103604083015261390c8185613855565b905061391b60608301846136cb565b95945050505050565b61392d81613261565b811461393857600080fd5b50565b60008135905061394a81613924565b92915050565b60008060408385031215613967576139666131d2565b5b60006139758582860161341f565b92505060206139868582860161393b565b9150509250929050565b600067ffffffffffffffff8211156139ab576139aa6134d1565b5b6139b4826132dd565b9050602081019050919050565b60006139d46139cf84613990565b613531565b9050828152602081018484840111156139f0576139ef6134cc565b5b6139fb84828561357d565b509392505050565b600082601f830112613a1857613a176134c7565b5b8135613a288482602086016139c1565b91505092915050565b60008060008060808587031215613a4b57613a4a6131d2565b5b6000613a598782880161341f565b9450506020613a6a8782880161341f565b9350506040613a7b8782880161336a565b925050606085013567ffffffffffffffff811115613a9c57613a9b6131d7565b5b613aa887828801613a03565b91505092959194509250565b60008060408385031215613acb57613aca6131d2565b5b6000613ad98582860161341f565b9250506020613aea8582860161341f565b9150509250929050565b7f4e487b7100000000000000000000000000000000000000000000000000000000600052602260045260246000fd5b60006002820490506001821680613b3b57607f821691505b602082108103613b4e57613b4d613af4565b5b50919050565b7f4552433732313a20617070726f76616c20746f2063757272656e74206f776e6560008201527f7200000000000000000000000000000000000000000000000000000000000000602082015250565b6000613bb06021836132a2565b9150613bbb82613b54565b604082019050919050565b60006020820190508181036000830152613bdf81613ba3565b9050919050565b7f4552433732313a20617070726f76652063616c6c6572206973206e6f7420746f60008201527f6b656e206f776e6572206f7220617070726f76656420666f7220616c6c000000602082015250565b6000613c42603d836132a2565b9150613c4d82613be6565b604082019050919050565b60006020820190508181036000830152613c7181613c35565b9050919050565b7f4552433732313a2063616c6c6572206973206e6f7420746f6b656e206f776e6560008201527f72206f7220617070726f76656400000000000000000000000000000000000000602082015250565b6000613cd4602d836132a2565b9150613cdf82613c78565b604082019050919050565b60006020820190508181036000830152613d0381613cc7565b9050919050565b60008190508160005260206000209050919050565b60006020601f8301049050919050565b600082821b905092915050565b600060088302613d6c7fffffffffffffffffffffffffffffffffffffffffffffffffffffffffffffffff82613d2f565b613d768683613d2f565b95508019841693508086168417925050509392505050565b6000819050919050565b6000613db3613dae613da984613349565b613d8e565b613349565b9050919050565b6000819050919050565b613dcd83613d98565b613de1613dd982613dba565b848454613d3c565b825550505050565b600090565b613df6613de9565b613e01818484613dc4565b505050565b5b81811015613e2557613e1a600082613dee565b600181019050613e07565b5050565b601f821115613e6a57613e3b81613d0a565b613e4484613d1f565b81016020851015613e53578190505b613e67613e5f85613d1f565b830182613e06565b50505b505050565b600082821c905092915050565b6000613e8d60001984600802613e6f565b1980831691505092915050565b6000613ea68383613e7c565b9150826002028217905092915050565b613ebf82613297565b67ffffffffffffffff811115613ed857613ed76134d1565b5b613ee28254613b23565b613eed828285613e29565b600060209050601f831160018114613f205760008415613f0e578287015190505b613f188582613e9a565b865550613f80565b601f198416613f2e86613d0a565b60005b82811015613f5657848901518255600182019150602085019450602081019050613f31565b86831015613f735784890151613f6f601f891682613e7c565b8355505b6001600288020188555050505b505050505050565b7f4552433732313a20696e76616c696420746f6b656e2049440000000000000000600082015250565b6000613fbe6018836132a2565b9150613fc982613f88565b602082019050919050565b60006020820190508181036000830152613fed81613fb1565b9050919050565b7f4552433732313a2061646472657373207a65726f206973206e6f74206120766160008201527f6c6964206f776e65720000000000000000000000000000000000000000000000602082015250565b60006140506029836132a2565b915061405b82613ff4565b604082019050919050565b6000602082019050818103600083015261407f81614043565b9050919050565b7f4d6978746170654e46543a20546f6b656e20646f6573206e6f74206578697374600082015250565b60006140bc6020836132a2565b91506140c782614086565b602082019050919050565b600060208201905081810360008301526140eb816140af565b9050919050565b7f4d6978746170654e46543a2043616c6c6572206973206e6f74206f776e65722060008201527f6e6f7220617070726f7665640000000000000000000000000000000000000000602082015250565b600061414e602c836132a2565b9150614159826140f2565b604082019050919050565b6000602082019050818103600083015261417d81614141565b9050919050565b7f4d6978746170654e46543a20496e76616c69642072656769737472792061646460008201527f7265737300000000000000000000000000000000000000000000000000000000602082015250565b60006141e06024836132a2565b91506141eb82614184565b604082019050919050565b6000602082019050818103600083015261420f816141d3565b9050919050565b600081905092915050565b600061422c82613297565b6142368185614216565b93506142468185602086016132b3565b80840191505092915050565b600061425e8285614221565b915061426a8284614221565b91508190509392505050565b7f4d6978746170654e46543a20496e76616c696420696d706c656d656e7461746960008201527f6f6e206164647265737300000000000000000000000000000000000000000000602082015250565b60006142d2602a836132a2565b91506142dd82614276565b604082019050919050565b60006020820190508181036000830152614301816142c5565b9050919050565b7f4d6978746170654e46543a20496e73756666696369656e74207061796d656e74600082015250565b600061433e6020836132a2565b915061434982614308565b602082019050919050565b6000602082019050818103600083015261436d81614331565b9050919050565b7f4d6978746170654e46543a20544241206e6f7420637265617465640000000000600082015250565b60006143aa601b836132a2565b91506143b582614374565b602082019050919050565b600060208201905081810360008301526143d98161439d565b9050919050565b600081905092915050565b50565b60006143fb6000836143e0565b9150614406826143eb565b600082019050919050565b600061441c826143ee565b9150819050919050565b7f4d6978746170654e46543a205061796d656e7420666f7277617264696e67206660008201527f61696c6564000000000000000000000000000000000000000000000000000000602082015250565b60006144826025836132a2565b915061448d82614426565b604082019050919050565b600060208201905081810360008301526144b181614475565b9050919050565b7f4f776e61626c653a206e6577206f776e657220697320746865207a65726f206160008201527f6464726573730000000000000000000000000000000000000000000000000000602082015250565b60006145146026836132a2565b915061451f826144b8565b604082019050919050565b6000602082019050818103600083015261454381614507565b9050919050565b7f4552433732313a207472616e736665722066726f6d20696e636f72726563742060008201527f6f776e6572000000000000000000000000000000000000000000000000000000602082015250565b60006145a66025836132a2565b91506145b18261454a565b604082019050919050565b600060208201905081810360008301526145d581614599565b9050919050565b7f4552433732313a207472616e7366657220746f20746865207a65726f2061646460008201527f7265737300000000000000000000000000000000000000000000000000000000602082015250565b60006146386024836132a2565b9150614643826145dc565b604082019050919050565b600060208201905081810360008301526146678161462b565b9050919050565b7f5061757361626c653a2070617573656400000000000000000000000000000000600082015250565b60006146a46010836132a2565b91506146af8261466e565b602082019050919050565b600060208201905081810360008301526146d381614697565b9050919050565b7f5265656e7472616e637947756172643a207265656e7472616e742063616c6c00600082015250565b6000614710601f836132a2565b915061471b826146da565b602082019050919050565b6000602082019050818103600083015261473f81614703565b9050919050565b7f45524337323155524953746f726167653a2055524920736574206f66206e6f6e60008201527f6578697374656e7420746f6b656e000000000000000000000000000000000000602082015250565b60006147a2602e836132a2565b91506147ad82614746565b604082019050919050565b600060208201905081810360008301526147d181614795565b9050919050565b6000819050919050565b600060ff82169050919050565b600061480a614805614800846147d8565b613d8e565b6147e2565b9050919050565b61481a816147ef565b82525050565b600061482d6000836132a2565b9150614838826143eb565b600082019050919050565b600060c08201905061485860008301886133de565b61486560208301876136cb565b61487260408301866133de565b61487f60608301856136cb565b61488c6080830184614811565b81810360a083015261489d81614820565b90509695505050505050565b600081519050919050565b60006148bf826148a9565b6148c981856143e0565b93506148d98185602086016132b3565b80840191505092915050565b60006148f182846148b4565b915081905092915050565b7f4d6978746170654e46543a20544241206372656174696f6e206661696c656400600082015250565b6000614932601f836132a2565b915061493d826148fc565b602082019050919050565b6000602082019050818103600083015261496181614925565b9050919050565b6000614973826133ac565b9050919050565b61498381614968565b811461498e57600080fd5b50565b6000815190506149a08161497a565b92915050565b6000602082840312156149bc576149bb6131d2565b5b60006149ca84828501614991565b91505092915050565b7f4f776e61626c653a2063616c6c6572206973206e6f7420746865206f776e6572600082015250565b6000614a096020836132a2565b9150614a14826149d3565b602082019050919050565b60006020820190508181036000830152614a38816149fc565b9050919050565b7f4552433732313a20617070726f766520746f2063616c6c657200000000000000600082015250565b6000614a756019836132a2565b9150614a8082614a3f565b602082019050919050565b60006020820190508181036000830152614aa481614a68565b9050919050565b7f4552433732313a207472616e7366657220746f206e6f6e20455243373231526560008201527f63656976657220696d706c656d656e7465720000000000000000000000000000602082015250565b6000614b076032836132a2565b9150614b1282614aab565b604082019050919050565b60006020820190508181036000830152614b3681614afa565b9050919050565b7f5061757361626c653a206e6f7420706175736564000000000000000000000000600082015250565b6000614b736014836132a2565b9150614b7e82614b3d565b602082019050919050565b60006020820190508181036000830152614ba281614b66565b9050919050565b600082825260208201905092915050565b6000614bc5826148a9565b614bcf8185614ba9565b9350614bdf8185602086016132b3565b614be8816132dd565b840191505092915050565b6000608082019050614c0860008301876133de565b614c1560208301866133de565b614c2260408301856136cb565b8181036060830152614c348184614bba565b905095945050505050565b600081519050614c4e81613208565b92915050565b600060208284031215614c6a57614c696131d2565b5b6000614c7884828501614c3f565b91505092915050565b7f4e487b7100000000000000000000000000000000000000000000000000000000600052601260045260246000fd5b7f4552433732313a206d696e7420746f20746865207a65726f2061646472657373600082015250565b6000614ce66020836132a2565b9150614cf182614cb0565b602082019050919050565b60006020820190508181036000830152614d1581614cd9565b9050919050565b7f4552433732313a20746f6b656e20616c7265616479206d696e74656400000000600082015250565b6000614d52601c836132a2565b9150614d5d82614d1c565b602082019050919050565b60006020820190508181036000830152614d8181614d45565b905091905056fea2646970667358221220f5b3b3dca2336e73019de820b2de0b998b5f56f8ae6b16a1cbadbe3257f579d664736f6c63430008140033",
  "linkReferences": {},
  "deployedLinkReferences": {}
}