{
  "_format": "hh-sol-artifact-1",
  "contractName": "MixtapeRegistry",
  "sourceName": "contracts/MixtapeRegistry.sol",
  "abi": [
    {
      "anonymous": false,
      "inputs": [
        {
          "indexed": true,
          "internalType": "address",
          "name": "account",
          "type": "address"
        },
        {
          "indexed": true,
          "internalType": "address",
          "name": "implementation",
          "type": "address"
        },
        {
          "indexed": false,
          "internalType": "uint256",
          "name": "chainId",
          "type": "uint256"
        },
        {
          "indexed": true,
          "internalType": "address",
          "name": "tokenContract",
          "type": "address"
        },
        {
          "indexed": false,
          "internalType": "uint256",
          "name": "tokenId",
          "type": "uint256"
        },
        {
          "indexed": false,
          "internalType": "uint256",
          "name": "salt",
          "type": "uint256"
        }
      ],
      "name": "AccountCreated",
      "type": "event"
    },
    {
      "inputs": [
        {
          "internalType": "address",
          "name": "implementation",
          "type": "address"
        },
        {
          "internalType": "uint256",
          "name": "chainId",
          "type": "uint256"
        },
        {
          "internalType": "address",
          "name": "tokenContract",
          "type": "address"
        },
        {
          "internalType": "uint256",
          "name": "tokenId",
          "type": "uint256"
        },
        {
          "internalType": "uint256",
          "name": "salt",
          "type": "uint256"
        }
      ],
      "name": "account",
      "outputs": [
        {
          "internalType": "address",
          "name": "",
          "type": "address"
        }
      ],
      "stateMutability": "view",
      "type": "function"
    },
    {
      "inputs": [
        {
          "internalType": "address",
          "name": "implementation",
          "type": "address"
        },
        {
          "internalType": "uint256",
          "name": "chainId",
          "type": "uint256"
        },
        {
          "internalType": "address",
          "name": "tokenContract",
          "type": "address"
        },
        {
          "internalType": "uint256",
          "name": "tokenId",
          "type": "uint256"
        },
        {
          "internalType": "uint256",
          "name": "salt",
          "type": "uint256"
        },
        {
          "internalType": "bytes",
          "name": "initData",
          "type": "bytes"
        }
      ],
      "name": "createAccount",
      "outputs": [
        {
          "internalType": "address",
          "name": "",
          "type": "address"
        }
      ],
      "stateMutability": "nonpayable",
      "type": "function"
    }
  ],
  "bytecode": "0x608060405234801561001057600080fd5b506114ea806100206000396000f3fe60806040523480156200001157600080fd5b50600436106200003a5760003560e01c80635e9bc536146200003f578063da7323b31462000075575b600080fd5b6200005d60048036038101906200005791906200058e565b620000ab565b6040516200006c919062000627565b60405180910390f35b6200009360048036038101906200008d9190620007a6565b620000e1565b604051620000a2919062000627565b60405180910390f35b600080620000bd8787878787620002a1565b9050620000d58360001b828051906020012062000377565b91505095945050505050565b600080620000f38888888888620002a1565b905060006200010d8560001b838051906020012062000377565b905060008173ffffffffffffffffffffffffffffffffffffffff163b11156200013b57809250505062000297565b6200014c60008660001b846200038e565b90506000845111156200020f5760008173ffffffffffffffffffffffffffffffffffffffff1685604051620001829190620008da565b6000604051808303816000865af19150503d8060008114620001c1576040519150601f19603f3d011682016040523d82523d6000602084013e620001c6565b606091505b50509050806200020d576040517f08c379a000000000000000000000000000000000000000000000000000000000815260040162000204906200097a565b60405180910390fd5b505b8673ffffffffffffffffffffffffffffffffffffffff168973ffffffffffffffffffffffffffffffffffffffff168273ffffffffffffffffffffffffffffffffffffffff167f07fba7bba1191da7ee1155dcfa0030701c9c9a9cc34a93b991fc6fd0c9268d8f8b8a8a6040516200028993929190620009ad565b60405180910390a480925050505b9695505050505050565b606060405180602001620002b590620004cc565b6020820181038252601f19601f820116604052508686868686604051602401620002e39493929190620009ea565b60405160208183030381529060405263ae4a452560e01b6020820180517bffffffffffffffffffffffffffffffffffffffffffffffffffffffff83818316178352505050506040516020016200033b92919062000a89565b6040516020818303038152906040526040516020016200035d92919062000abd565b604051602081830303815290604052905095945050505050565b600062000386838330620004a1565b905092915050565b600083471015620003d6576040517f08c379a0000000000000000000000000000000000000000000000000000000008152600401620003cd9062000b35565b60405180910390fd5b60008251036200041d576040517f08c379a0000000000000000000000000000000000000000000000000000000008152600401620004149062000ba7565b60405180910390fd5b8282516020840186f59050600073ffffffffffffffffffffffffffffffffffffffff168173ffffffffffffffffffffffffffffffffffffffff16036200049a576040517f08c379a0000000000000000000000000000000000000000000000000000000008152600401620004919062000c19565b60405180910390fd5b9392505050565b6000604051836040820152846020820152828152600b810160ff815360558120925050509392505050565b6108798062000c3c83390190565b6000604051905090565b600080fd5b600080fd5b600073ffffffffffffffffffffffffffffffffffffffff82169050919050565b60006200051b82620004ee565b9050919050565b6200052d816200050e565b81146200053957600080fd5b50565b6000813590506200054d8162000522565b92915050565b6000819050919050565b620005688162000553565b81146200057457600080fd5b50565b60008135905062000588816200055d565b92915050565b600080600080600060a08688031215620005ad57620005ac620004e4565b5b6000620005bd888289016200053c565b9550506020620005d08882890162000577565b9450506040620005e3888289016200053c565b9350506060620005f68882890162000577565b9250506080620006098882890162000577565b9150509295509295909350565b62000621816200050e565b82525050565b60006020820190506200063e600083018462000616565b92915050565b600080fd5b600080fd5b6000601f19601f8301169050919050565b7f4e487b7100000000000000000000000000000000000000000000000000000000600052604160045260246000fd5b62000699826200064e565b810181811067ffffffffffffffff82111715620006bb57620006ba6200065f565b5b80604052505050565b6000620006d0620004da565b9050620006de82826200068e565b919050565b600067ffffffffffffffff8211156200070157620007006200065f565b5b6200070c826200064e565b9050602081019050919050565b82818337600083830152505050565b60006200073f6200073984620006e3565b620006c4565b9050828152602081018484840111156200075e576200075d62000649565b5b6200076b84828562000719565b509392505050565b600082601f8301126200078b576200078a62000644565b5b81356200079d84826020860162000728565b91505092915050565b60008060008060008060c08789031215620007c657620007c5620004e4565b5b6000620007d689828a016200053c565b9650506020620007e989828a0162000577565b9550506040620007fc89828a016200053c565b94505060606200080f89828a0162000577565b93505060806200082289828a0162000577565b92505060a087013567ffffffffffffffff811115620008465762000845620004e9565b5b6200085489828a0162000773565b9150509295509295509295565b600081519050919050565b600081905092915050565b60005b83811015620008975780820151818401526020810190506200087a565b60008484015250505050565b6000620008b08262000861565b620008bc81856200086c565b9350620008ce81856020860162000877565b80840191505092915050565b6000620008e88284620008a3565b915081905092915050565b600082825260208201905092915050565b7f4d69787461706552656769737472793a20496e697469616c697a6174696f6e2060008201527f6661696c65640000000000000000000000000000000000000000000000000000602082015250565b600062000962602683620008f3565b91506200096f8262000904565b604082019050919050565b60006020820190508181036000830152620009958162000953565b9050919050565b620009a78162000553565b82525050565b6000606082019050620009c460008301866200099c565b620009d360208301856200099c565b620009e260408301846200099c565b949350505050565b600060808201905062000a0160008301876200099c565b62000a10602083018662000616565b62000a1f60408301856200099c565b62000a2e60608301846200099c565b95945050505050565b600082825260208201905092915050565b600062000a558262000861565b62000a61818562000a37565b935062000a7381856020860162000877565b62000a7e816200064e565b840191505092915050565b600060408201905062000aa0600083018562000616565b818103602083015262000ab4818462000a48565b90509392505050565b600062000acb8285620008a3565b915062000ad98284620008a3565b91508190509392505050565b7f437265617465323a20696e73756666696369656e742062616c616e6365000000600082015250565b600062000b1d601d83620008f3565b915062000b2a8262000ae5565b602082019050919050565b6000602082019050818103600083015262000b508162000b0e565b9050919050565b7f437265617465323a2062797465636f6465206c656e677468206973207a65726f600082015250565b600062000b8f602083620008f3565b915062000b9c8262000b57565b602082019050919050565b6000602082019050818103600083015262000bc28162000b80565b9050919050565b7f437265617465323a204661696c6564206f6e206465706c6f7900000000000000600082015250565b600062000c01601983620008f3565b915062000c0e8262000bc9565b602082019050919050565b6000602082019050818103600083015262000c348162000bf2565b905091905056fe608060405260405161087938038061087983398181016040528101906100259190610520565b6100378282600061003e60201b60201c565b505061074f565b61004d8361007660201b60201c565b60008251118061005a5750805b156100715761006f83836100cb60201b60201c565b505b505050565b610085816100fe60201b60201c565b8073ffffffffffffffffffffffffffffffffffffffff167fbc7cd75a20ee27fd9adebab32041f755214dbc6bffa90cc0225b39da2e5c2d3b60405160405180910390a250565b60606100f68383604051806060016040528060278152602001610852602791396101c360201b60201c565b905092915050565b61010d8161024f60201b60201c565b61014c576040517f08c379a0000000000000000000000000000000000000000000000000000000008152600401610143906105ff565b60405180910390fd5b8061017f7f360894a13ba1a3210667c828492db98dca3e2076cc3735a920a3ca505d382bbc60001b61027260201b60201c565b60000160006101000a81548173ffffffffffffffffffffffffffffffffffffffff021916908373ffffffffffffffffffffffffffffffffffffffff16021790555050565b60606000808573ffffffffffffffffffffffffffffffffffffffff16856040516101ed9190610666565b600060405180830381855af49150503d8060008114610228576040519150601f19603f3d011682016040523d82523d6000602084013e61022d565b606091505b50915091506102448683838761027c60201b60201c565b925050509392505050565b6000808273ffffffffffffffffffffffffffffffffffffffff163b119050919050565b6000819050919050565b606083156102e45760008351036102dc5761029c8561024f60201b60201c565b6102db576040517f08c379a00000000000000000000000000000000000000000000000000000000081526004016102d2906106c9565b60405180910390fd5b5b8290506102f5565b6102f483836102fd60201b60201c565b5b949350505050565b6000825111156103105781518083602001fd5b806040517f08c379a0000000000000000000000000000000000000000000000000000000008152600401610344919061072d565b60405180910390fd5b6000604051905090565b600080fd5b600080fd5b600073ffffffffffffffffffffffffffffffffffffffff82169050919050565b600061038c82610361565b9050919050565b61039c81610381565b81146103a757600080fd5b50565b6000815190506103b981610393565b92915050565b600080fd5b600080fd5b6000601f19601f8301169050919050565b7f4e487b7100000000000000000000000000000000000000000000000000000000600052604160045260246000fd5b610412826103c9565b810181811067ffffffffffffffff82111715610431576104306103da565b5b80604052505050565b600061044461034d565b90506104508282610409565b919050565b600067ffffffffffffffff8211156104705761046f6103da565b5b610479826103c9565b9050602081019050919050565b60005b838110156104a4578082015181840152602081019050610489565b60008484015250505050565b60006104c36104be84610455565b61043a565b9050828152602081018484840111156104df576104de6103c4565b5b6104ea848285610486565b509392505050565b600082601f830112610507576105066103bf565b5b81516105178482602086016104b0565b91505092915050565b6000806040838503121561053757610536610357565b5b6000610545858286016103aa565b925050602083015167ffffffffffffffff8111156105665761056561035c565b5b610572858286016104f2565b9150509250929050565b600082825260208201905092915050565b7f455243313936373a206e657720696d706c656d656e746174696f6e206973206e60008201527f6f74206120636f6e747261637400000000000000000000000000000000000000602082015250565b60006105e9602d8361057c565b91506105f48261058d565b604082019050919050565b60006020820190508181036000830152610618816105dc565b9050919050565b600081519050919050565b600081905092915050565b60006106408261061f565b61064a818561062a565b935061065a818560208601610486565b80840191505092915050565b60006106728284610635565b915081905092915050565b7f416464726573733a2063616c6c20746f206e6f6e2d636f6e7472616374000000600082015250565b60006106b3601d8361057c565b91506106be8261067d565b602082019050919050565b600060208201905081810360008301526106e2816106a6565b9050919050565b600081519050919050565b60006106ff826106e9565b610709818561057c565b9350610719818560208601610486565b610722816103c9565b840191505092915050565b6000602082019050818103600083015261074781846106f4565b905092915050565b60f58061075d6000396000f3fe608060405236601057600e6018565b005b60166018565b005b601e602c565b602a6026602e565b603b565b565b565b600060366060565b905090565b3660008037600080366000845af43d6000803e8060008114605b573d6000f35b3d6000fd5b6000608c7f360894a13ba1a3210667c828492db98dca3e2076cc3735a920a3ca505d382bbc60001b60b5565b60000160009054906101000a900473ffffffffffffffffffffffffffffffffffffffff16905090565b600081905091905056fea26469706673582212205414a9a2496fca27bb79b03fe3a878cd9f5859761b92b3a4278e5d69c86c46a464736f6c63430008140033416464726573733a206c6f772d6c6576656c2064656c65676174652063616c6c206661696c6564a26469706673582212200fcbc725ed05326af5435a9f84ea254f8a40867004787d43515bcdf9db1b172564736f6c63430008140033",
  "linkReferences": {},
  "deployedLinkReferences": {}
}