{
  "_format": "hh-sol-artifact-1",
  "contractName": "MixtapeJukebox",
  "sourceName": "contracts/MixtapeJukebox.sol",
  "abi": [
    {
      "inputs": [
        {
          "internalType": "address",
          "name": "_mixtapeNFT",
          "type": "address"
        },
        {
          "internalType": "address",
          "name": "_socialRegistry",
          "type": "address"
        }
      ],
      "stateMutability": "nonpayable",
      "type": "constructor"
    },
    {
      "anonymous": false,
      "inputs": [
        {
          "indexed": true,
          "internalType": "address",
          "name": "recipient",
          "type": "address"
        },
        {
          "indexed": false,
          "internalType": "uint256",
          "name": "amount",
          "type": "uint256"
        }
      ],
      "name": "FundsWithdrawn",
      "type": "event"
    },
    {
      "anonymous": false,
      "inputs": [
        {
          "indexed": true,
          "internalType": "uint256",
          "name": "mixtapeId",
          "type": "uint256"
        },
        {
          "indexed": true,
          "internalType": "address",
          "name": "player",
          "type": "address"
        },
        {
          "indexed": false,
          "internalType": "uint256",
          "name": "amount",
          "type": "uint256"
        }
      ],
      "name": "MixtapePlayed",
      "type": "event"
    },
    {
      "anonymous": false,
      "inputs": [
        {
          "indexed": true,
          "internalType": "address",
          "name": "previousOwner",
          "type": "address"
        },
        {
          "indexed": true,
          "internalType": "address",
          "name": "newOwner",
          "type": "address"
        }
      ],
      "name": "OwnershipTransferred",
      "type": "event"
    },
    {
      "anonymous": false,
      "inputs": [
        {
          "indexed": false,
          "internalType": "address",
          "name": "account",
          "type": "address"
        }
      ],
      "name": "Paused",
      "type": "event"
    },
    {
      "anonymous": false,
      "inputs": [
        {
          "indexed": false,
          "internalType": "uint256",
          "name": "newFeePercentage",
          "type": "uint256"
        }
      ],
      "name": "PlatformFeeUpdated",
      "type": "event"
    },
    {
      "anonymous": false,
      "inputs": [
        {
          "indexed": false,
          "internalType": "address",
          "name": "account",
          "type": "address"
        }
      ],
      "name": "Unpaused",
      "type": "event"
    },
    {
      "inputs": [
        {
          "internalType": "uint256",
          "name": "mixtapeId",
          "type": "uint256"
        }
      ],
      "name": "getPlayCount",
      "outputs": [
        {
          "internalType": "uint256",
          "name": "",
          "type": "uint256"
        }
      ],
      "stateMutability": "view",
      "type": "function"
    },
    {
      "inputs": [
        {
          "internalType": "address",
          "name": "user",
          "type": "address"
        }
      ],
      "name": "getUserPlayHistory",
      "outputs": [
        {
          "internalType": "uint256[]",
          "name": "",
          "type": "uint256[]"
        }
      ],
      "stateMutability": "view",
      "type": "function"
    },
    {
      "inputs": [],
      "name": "mixtapeNFT",
      "outputs": [
        {
          "internalType": "address",
          "name": "",
          "type": "address"
        }
      ],
      "stateMutability": "view",
      "type": "function"
    },
    {
      "inputs": [],
      "name": "owner",
      "outputs": [
        {
          "internalType": "address",
          "name": "",
          "type": "address"
        }
      ],
      "stateMutability": "view",
      "type": "function"
    },
    {
      "inputs": [],
      "name": "pause",
      "outputs": [],
      "stateMutability": "nonpayable",
      "type": "function"
    },
    {
      "inputs": [],
      "name": "paused",
      "outputs": [
        {
          "internalType": "bool",
          "name": "",
          "type": "bool"
        }
      ],
      "stateMutability": "view",
      "type": "function"
    },
    {
      "inputs": [],
      "name": "platformFeePercentage",
      "outputs": [
        {
          "internalType": "uint256",
          "name": "",
          "type": "uint256"
        }
      ],
      "stateMutability": "view",
      "type": "function"
    },
    {
      "inputs": [
        {
          "internalType": "uint256",
          "name": "mixtapeId",
          "type": "uint256"
        }
      ],
      "name": "playMixtape",
      "outputs": [],
      "stateMutability": "payable",
      "type": "function"
    },
    {
      "inputs": [],
      "name": "renounceOwnership",
      "outputs": [],
      "stateMutability": "nonpayable",
      "type": "function"
    },
    {
      "inputs": [
        {
          "internalType": "address",
          "name": "_mixtapeNFT",
          "type": "address"
        }
      ],
      "name": "setMixtapeNFT",
      "outputs": [],
      "stateMutability": "nonpayable",
      "type": "function"
    },
    {
      "inputs": [
        {
          "internalType": "uint256",
          "name": "_platformFeePercentage",
          "type": "uint256"
        }
      ],
      "name": "setPlatformFeePercentage",
      "outputs": [],
      "stateMutability": "nonpayable",
      "type": "function"
    },
    {
      "inputs": [
        {
          "internalType": "address",
          "name": "_socialRegistry",
          "type": "address"
        }
      ],
      "name": "setSocialRegistry",
      "outputs": [],
      "stateMutability": "nonpayable",
      "type": "function"
    },
    {
      "inputs": [],
      "name": "socialRegistry",
      "outputs": [
        {
          "internalType": "address",
          "name": "",
          "type": "address"
        }
      ],
      "stateMutability": "view",
      "type": "function"
    },
    {
      "inputs": [
        {
          "internalType": "address",
          "name": "newOwner",
          "type": "address"
        }
      ],
      "name": "transferOwnership",
      "outputs": [],
      "stateMutability": "nonpayable",
      "type": "function"
    },
    {
      "inputs": [],
      "name": "unpause",
      "outputs": [],
      "stateMutability": "nonpayable",
      "type": "function"
    },
    {
      "inputs": [
        {
          "internalType": "address payable",
          "name": "recipient",
          "type": "address"
        }
      ],
      "name": "withdrawFees",
      "outputs": [],
      "stateMutability": "nonpayable",
      "type": "function"
    },
    {
      "stateMutability": "payable",
      "type": "receive"
    }
  ],
  "bytecode": "0x608060405260fa6006553480156200001657600080fd5b50604051620022423803806200224283398181016040528101906200003c91906200023d565b6200005c620000506200010760201b60201c565b6200010f60201b60201c565b60008060146101000a81548160ff0219169083151502179055506001808190555081600260006101000a81548173ffffffffffffffffffffffffffffffffffffffff021916908373ffffffffffffffffffffffffffffffffffffffff16021790555080600360006101000a81548173ffffffffffffffffffffffffffffffffffffffff021916908373ffffffffffffffffffffffffffffffffffffffff160217905550505062000284565b600033905090565b60008060009054906101000a900473ffffffffffffffffffffffffffffffffffffffff169050816000806101000a81548173ffffffffffffffffffffffffffffffffffffffff021916908373ffffffffffffffffffffffffffffffffffffffff1602179055508173ffffffffffffffffffffffffffffffffffffffff168173ffffffffffffffffffffffffffffffffffffffff167f8be0079c531659141344cd1fd0a4f28419497f9722a3daafe3b4186f6b6457e060405160405180910390a35050565b600080fd5b600073ffffffffffffffffffffffffffffffffffffffff82169050919050565b60006200020582620001d8565b9050919050565b6200021781620001f8565b81146200022357600080fd5b50565b60008151905062000237816200020c565b92915050565b60008060408385031215620002575762000256620001d3565b5b6000620002678582860162000226565b92505060206200027a8582860162000226565b9150509250929050565b611fae80620002946000396000f3fe6080604052600436106100f75760003560e01c80638456cb591161008a578063cdd78cfc11610059578063cdd78cfc146102e7578063d078028514610312578063de1221301461033d578063f2fde38b14610359576100fe565b80638456cb591461023f5780638da5cb5b1461025657806399c7941014610281578063b7809c74146102be576100fe565b8063715018a6116100c6578063715018a6146101ab5780637170fcc5146101c25780637b5aa547146101eb5780638333903e14610216576100fe565b8063164e68de146101035780633f4ba83a1461012c5780635c975abb146101435780636c5fd97b1461016e576100fe565b366100fe57005b600080fd5b34801561010f57600080fd5b5061012a60048036038101906101259190611232565b610382565b005b34801561013857600080fd5b50610141610550565b005b34801561014f57600080fd5b50610158610562565b604051610165919061127a565b60405180910390f35b34801561017a57600080fd5b50610195600480360381019061019091906112d3565b610578565b6040516101a291906113c8565b60405180910390f35b3480156101b757600080fd5b506101c061060f565b005b3480156101ce57600080fd5b506101e960048036038101906101e491906112d3565b610623565b005b3480156101f757600080fd5b506102006106de565b60405161020d91906113f9565b60405180910390f35b34801561022257600080fd5b5061023d60048036038101906102389190611440565b610704565b005b34801561024b57600080fd5b50610254610792565b005b34801561026257600080fd5b5061026b6107a4565b60405161027891906113f9565b60405180910390f35b34801561028d57600080fd5b506102a860048036038101906102a39190611440565b6107cd565b6040516102b5919061147c565b60405180910390f35b3480156102ca57600080fd5b506102e560048036038101906102e091906112d3565b6107ea565b005b3480156102f357600080fd5b506102fc6108a5565b604051610309919061147c565b60405180910390f35b34801561031e57600080fd5b506103276108ab565b60405161033491906113f9565b60405180910390f35b61035760048036038101906103529190611440565b6108d1565b005b34801561036557600080fd5b50610380600480360381019061037b91906112d3565b610e52565b005b61038a610ed5565b610392610f53565b600073ffffffffffffffffffffffffffffffffffffffff168173ffffffffffffffffffffffffffffffffffffffff1603610401576040517f08c379a00000000000000000000000000000000000000000000000000000000081526004016103f89061151a565b60405180910390fd5b600047905060008111610449576040517f08c379a0000000000000000000000000000000000000000000000000000000008152600401610440906115ac565b60405180910390fd5b60008273ffffffffffffffffffffffffffffffffffffffff168260405161046f906115fd565b60006040518083038185875af1925050503d80600081146104ac576040519150601f19603f3d011682016040523d82523d6000602084013e6104b1565b606091505b50509050806104f5576040517f08c379a00000000000000000000000000000000000000000000000000000000081526004016104ec90611684565b60405180910390fd5b8273ffffffffffffffffffffffffffffffffffffffff167feaff4b37086828766ad3268786972c0cd24259d4c87a80f9d3963a3c3d999b0d8360405161053b919061147c565b60405180910390a2505061054d610fa2565b50565b610558610ed5565b610560610fab565b565b60008060149054906101000a900460ff16905090565b6060600560008373ffffffffffffffffffffffffffffffffffffffff1673ffffffffffffffffffffffffffffffffffffffff16815260200190815260200160002080548060200260200160405190810160405280929190818152602001828054801561060357602002820191906000526020600020905b8154815260200190600101908083116105ef575b50505050509050919050565b610617610ed5565b610621600061100d565b565b61062b610ed5565b600073ffffffffffffffffffffffffffffffffffffffff168173ffffffffffffffffffffffffffffffffffffffff160361069a576040517f08c379a000000000000000000000000000000000000000000000000000000000815260040161069190611716565b60405180910390fd5b80600260006101000a81548173ffffffffffffffffffffffffffffffffffffffff021916908373ffffffffffffffffffffffffffffffffffffffff16021790555050565b600260009054906101000a900473ffffffffffffffffffffffffffffffffffffffff1681565b61070c610ed5565b6103e8811115610751576040517f08c379a000000000000000000000000000000000000000000000000000000000815260040161074890611782565b60405180910390fd5b806006819055507f45610d581145924dd7090a5017e5f2b1d6f42213bb2e95707ff86846bbfcb1ca81604051610787919061147c565b60405180910390a150565b61079a610ed5565b6107a26110d1565b565b60008060009054906101000a900473ffffffffffffffffffffffffffffffffffffffff16905090565b600060046000838152602001908152602001600020549050919050565b6107f2610ed5565b600073ffffffffffffffffffffffffffffffffffffffff168173ffffffffffffffffffffffffffffffffffffffff1603610861576040517f08c379a000000000000000000000000000000000000000000000000000000000815260040161085890611814565b60405180910390fd5b80600360006101000a81548173ffffffffffffffffffffffffffffffffffffffff021916908373ffffffffffffffffffffffffffffffffffffffff16021790555050565b60065481565b600360009054906101000a900473ffffffffffffffffffffffffffffffffffffffff1681565b6108d9611134565b6108e1610f53565b6000816040516024016108f4919061147c565b6040516020818303038152906040527fc407717a000000000000000000000000000000000000000000000000000000007bffffffffffffffffffffffffffffffffffffffffffffffffffffffff19166020820180517bffffffffffffffffffffffffffffffffffffffffffffffffffffffff83818316178352505050509050600080600260009054906101000a900473ffffffffffffffffffffffffffffffffffffffff1673ffffffffffffffffffffffffffffffffffffffff16836040516109bd919061189a565b600060405180830381855afa9150503d80600081146109f8576040519150601f19603f3d011682016040523d82523d6000602084013e6109fd565b606091505b509150915081610a42576040517f08c379a0000000000000000000000000000000000000000000000000000000008152600401610a3990611923565b60405180910390fd5b600081806020019051810190610a589190611958565b905080341015610a9d576040517f08c379a0000000000000000000000000000000000000000000000000000000008152600401610a94906119f7565b60405180910390fd5b600085604051602401610ab0919061147c565b6040516020818303038152906040527fabb23f5b000000000000000000000000000000000000000000000000000000007bffffffffffffffffffffffffffffffffffffffffffffffffffffffff19166020820180517bffffffffffffffffffffffffffffffffffffffffffffffffffffffff83818316178352505050509050600260009054906101000a900473ffffffffffffffffffffffffffffffffffffffff1673ffffffffffffffffffffffffffffffffffffffff1681604051610b76919061189a565b600060405180830381855afa9150503d8060008114610bb1576040519150601f19603f3d011682016040523d82523d6000602084013e610bb6565b606091505b50809450819550505083610bff576040517f08c379a0000000000000000000000000000000000000000000000000000000008152600401610bf690611a89565b60405180910390fd5b600083806020019051810190610c159190611abe565b9050600073ffffffffffffffffffffffffffffffffffffffff168173ffffffffffffffffffffffffffffffffffffffff1603610c86576040517f08c379a0000000000000000000000000000000000000000000000000000000008152600401610c7d90611b37565b60405180910390fd5b600061271060065434610c999190611b86565b610ca39190611bf7565b905060008134610cb39190611c28565b90508273ffffffffffffffffffffffffffffffffffffffff1681604051610cd9906115fd565b60006040518083038185875af1925050503d8060008114610d16576040519150601f19603f3d011682016040523d82523d6000602084013e610d1b565b606091505b50508097505086610d61576040517f08c379a0000000000000000000000000000000000000000000000000000000008152600401610d5890611cce565b60405180910390fd5b600460008a81526020019081526020016000206000815480929190610d8590611cee565b9190505550600560003373ffffffffffffffffffffffffffffffffffffffff1673ffffffffffffffffffffffffffffffffffffffff1681526020019081526020016000208990806001815401808255809150506001900390600052602060002001600090919091909150553373ffffffffffffffffffffffffffffffffffffffff16897fb0b75dbe19a90d878be6b7236da8417d49cadee62025e2fab0e913f8496c617234604051610e37919061147c565b60405180910390a35050505050505050610e4f610fa2565b50565b610e5a610ed5565b600073ffffffffffffffffffffffffffffffffffffffff168173ffffffffffffffffffffffffffffffffffffffff1603610ec9576040517f08c379a0000000000000000000000000000000000000000000000000000000008152600401610ec090611da8565b60405180910390fd5b610ed28161100d565b50565b610edd61117e565b73ffffffffffffffffffffffffffffffffffffffff16610efb6107a4565b73ffffffffffffffffffffffffffffffffffffffff1614610f51576040517f08c379a0000000000000000000000000000000000000000000000000000000008152600401610f4890611e14565b60405180910390fd5b565b600260015403610f98576040517f08c379a0000000000000000000000000000000000000000000000000000000008152600401610f8f90611e80565b60405180910390fd5b6002600181905550565b60018081905550565b610fb3611186565b60008060146101000a81548160ff0219169083151502179055507f5db9ee0a495bf2e6ff9c91a7834c1ba4fdd244a5e8aa4e537bd38aeae4b073aa610ff661117e565b60405161100391906113f9565b60405180910390a1565b60008060009054906101000a900473ffffffffffffffffffffffffffffffffffffffff169050816000806101000a81548173ffffffffffffffffffffffffffffffffffffffff021916908373ffffffffffffffffffffffffffffffffffffffff1602179055508173ffffffffffffffffffffffffffffffffffffffff168173ffffffffffffffffffffffffffffffffffffffff167f8be0079c531659141344cd1fd0a4f28419497f9722a3daafe3b4186f6b6457e060405160405180910390a35050565b6110d9611134565b6001600060146101000a81548160ff0219169083151502179055507f62e78cea01bee320cd4e420270b5ea74000d11b0c9f74754ebdbfc544b05a25861111d61117e565b60405161112a91906113f9565b60405180910390a1565b61113c610562565b1561117c576040517f08c379a000000000000000000000000000000000000000000000000000000000815260040161117390611eec565b60405180910390fd5b565b600033905090565b61118e610562565b6111cd576040517f08c379a00000000000000000000000000000000000000000000000000000000081526004016111c490611f58565b60405180910390fd5b565b600080fd5b600073ffffffffffffffffffffffffffffffffffffffff82169050919050565b60006111ff826111d4565b9050919050565b61120f816111f4565b811461121a57600080fd5b50565b60008135905061122c81611206565b92915050565b600060208284031215611248576112476111cf565b5b60006112568482850161121d565b91505092915050565b60008115159050919050565b6112748161125f565b82525050565b600060208201905061128f600083018461126b565b92915050565b60006112a0826111d4565b9050919050565b6112b081611295565b81146112bb57600080fd5b50565b6000813590506112cd816112a7565b92915050565b6000602082840312156112e9576112e86111cf565b5b60006112f7848285016112be565b91505092915050565b600081519050919050565b600082825260208201905092915050565b6000819050602082019050919050565b6000819050919050565b61133f8161132c565b82525050565b60006113518383611336565b60208301905092915050565b6000602082019050919050565b600061137582611300565b61137f818561130b565b935061138a8361131c565b8060005b838110156113bb5781516113a28882611345565b97506113ad8361135d565b92505060018101905061138e565b5085935050505092915050565b600060208201905081810360008301526113e2818461136a565b905092915050565b6113f381611295565b82525050565b600060208201905061140e60008301846113ea565b92915050565b61141d8161132c565b811461142857600080fd5b50565b60008135905061143a81611414565b92915050565b600060208284031215611456576114556111cf565b5b60006114648482850161142b565b91505092915050565b6114768161132c565b82525050565b6000602082019050611491600083018461146d565b92915050565b600082825260208201905092915050565b7f4d6978746170654a756b65626f783a20496e76616c696420726563697069656e60008201527f7400000000000000000000000000000000000000000000000000000000000000602082015250565b6000611504602183611497565b915061150f826114a8565b604082019050919050565b60006020820190508181036000830152611533816114f7565b9050919050565b7f4d6978746170654a756b65626f783a204e6f2066756e647320746f207769746860008201527f6472617700000000000000000000000000000000000000000000000000000000602082015250565b6000611596602483611497565b91506115a18261153a565b604082019050919050565b600060208201905081810360008301526115c581611589565b9050919050565b600081905092915050565b50565b60006115e76000836115cc565b91506115f2826115d7565b600082019050919050565b6000611608826115da565b9150819050919050565b7f4d6978746170654a756b65626f783a205769746864726177616c206661696c6560008201527f6400000000000000000000000000000000000000000000000000000000000000602082015250565b600061166e602183611497565b915061167982611612565b604082019050919050565b6000602082019050818103600083015261169d81611661565b9050919050565b7f4d6978746170654a756b65626f783a20496e76616c6964204d6978746170654e60008201527f4654206164647265737300000000000000000000000000000000000000000000602082015250565b6000611700602a83611497565b915061170b826116a4565b604082019050919050565b6000602082019050818103600083015261172f816116f3565b9050919050565b7f4d6978746170654a756b65626f783a2046656520746f6f206869676800000000600082015250565b600061176c601c83611497565b915061177782611736565b602082019050919050565b6000602082019050818103600083015261179b8161175f565b9050919050565b7f4d6978746170654a756b65626f783a20496e76616c696420536f6369616c526560008201527f6769737472792061646472657373000000000000000000000000000000000000602082015250565b60006117fe602e83611497565b9150611809826117a2565b604082019050919050565b6000602082019050818103600083015261182d816117f1565b9050919050565b600081519050919050565b60005b8381101561185d578082015181840152602081019050611842565b60008484015250505050565b600061187482611834565b61187e81856115cc565b935061188e81856020860161183f565b80840191505092915050565b60006118a68284611869565b915081905092915050565b7f4d6978746170654a756b65626f783a204661696c656420746f2067657420706c60008201527f6179207072696365000000000000000000000000000000000000000000000000602082015250565b600061190d602883611497565b9150611918826118b1565b604082019050919050565b6000602082019050818103600083015261193c81611900565b9050919050565b60008151905061195281611414565b92915050565b60006020828403121561196e5761196d6111cf565b5b600061197c84828501611943565b91505092915050565b7f4d6978746170654a756b65626f783a20496e73756666696369656e742070617960008201527f6d656e7400000000000000000000000000000000000000000000000000000000602082015250565b60006119e1602483611497565b91506119ec82611985565b604082019050919050565b60006020820190508181036000830152611a10816119d4565b9050919050565b7f4d6978746170654a756b65626f783a204661696c656420746f2067657420544260008201527f4120616464726573730000000000000000000000000000000000000000000000602082015250565b6000611a73602983611497565b9150611a7e82611a17565b604082019050919050565b60006020820190508181036000830152611aa281611a66565b9050919050565b600081519050611ab881611206565b92915050565b600060208284031215611ad457611ad36111cf565b5b6000611ae284828501611aa9565b91505092915050565b7f4d6978746170654a756b65626f783a20544241206e6f74206372656174656400600082015250565b6000611b21601f83611497565b9150611b2c82611aeb565b602082019050919050565b60006020820190508181036000830152611b5081611b14565b9050919050565b7f4e487b7100000000000000000000000000000000000000000000000000000000600052601160045260246000fd5b6000611b918261132c565b9150611b9c8361132c565b9250828202611baa8161132c565b91508282048414831517611bc157611bc0611b57565b5b5092915050565b7f4e487b7100000000000000000000000000000000000000000000000000000000600052601260045260246000fd5b6000611c028261132c565b9150611c0d8361132c565b925082611c1d57611c1c611bc8565b5b828204905092915050565b6000611c338261132c565b9150611c3e8361132c565b9250828203905081811115611c5657611c55611b57565b5b92915050565b7f4d6978746170654a756b65626f783a205061796d656e7420666f72776172646960008201527f6e67206661696c65640000000000000000000000000000000000000000000000602082015250565b6000611cb8602983611497565b9150611cc382611c5c565b604082019050919050565b60006020820190508181036000830152611ce781611cab565b9050919050565b6000611cf98261132c565b91507fffffffffffffffffffffffffffffffffffffffffffffffffffffffffffffffff8203611d2b57611d2a611b57565b5b600182019050919050565b7f4f776e61626c653a206e6577206f776e657220697320746865207a65726f206160008201527f6464726573730000000000000000000000000000000000000000000000000000602082015250565b6000611d92602683611497565b9150611d9d82611d36565b604082019050919050565b60006020820190508181036000830152611dc181611d85565b9050919050565b7f4f776e61626c653a2063616c6c6572206973206e6f7420746865206f776e6572600082015250565b6000611dfe602083611497565b9150611e0982611dc8565b602082019050919050565b60006020820190508181036000830152611e2d81611df1565b9050919050565b7f5265656e7472616e637947756172643a207265656e7472616e742063616c6c00600082015250565b6000611e6a601f83611497565b9150611e7582611e34565b602082019050919050565b60006020820190508181036000830152611e9981611e5d565b9050919050565b7f5061757361626c653a2070617573656400000000000000000000000000000000600082015250565b6000611ed6601083611497565b9150611ee182611ea0565b602082019050919050565b60006020820190508181036000830152611f0581611ec9565b9050919050565b7f5061757361626c653a206e6f7420706175736564000000000000000000000000600082015250565b6000611f42601483611497565b9150611f4d82611f0c565b602082019050919050565b60006020820190508181036000830152611f7181611f35565b905091905056fea2646970667358221220e56199691878cd49c10733173a8259927e46ea7a56721ba26e82e65aa0f17dbb64736f6c63430008140033",
  "linkReferences": {},
  "deployedLinkReferences": {}
}