{
  "_format": "hh-sol-artifact-1",
  "contractName": "EnhancedMixtapeSocialRegistry",
  "sourceName": "contracts/EnhancedMixtapeSocialRegistry.sol",
  "abi": [
    {
      "inputs": [
        {
          "internalType": "address",
          "name": "_mixtapeNFT",
          "type": "address"
        }
      ],
      "stateMutability": "nonpayable",
      "type": "constructor"
    },
    {
      "anonymous": false,
      "inputs": [
        {
          "indexed": true,
          "internalType": "address",
          "name": "mixtape",
          "type": "address"
        },
        {
          "indexed": true,
          "internalType": "address",
          "name": "author",
          "type": "address"
        },
        {
          "indexed": false,
          "internalType": "string",
          "name": "text",
          "type": "string"
        }
      ],
      "name": "CommentAdded",
      "type": "event"
    },
    {
      "anonymous": false,
      "inputs": [
        {
          "indexed": false,
          "internalType": "uint256",
          "name": "newMax",
          "type": "uint256"
        }
      ],
      "name": "MaxCommentsPerMixtapeUpdated",
      "type": "event"
    },
    {
      "anonymous": false,
      "inputs": [
        {
          "indexed": true,
          "internalType": "address",
          "name": "mixtape",
          "type": "address"
        },
        {
          "indexed": true,
          "internalType": "address",
          "name": "liker",
          "type": "address"
        }
      ],
      "name": "MixtapeLiked",
      "type": "event"
    },
    {
      "anonymous": false,
      "inputs": [
        {
          "indexed": true,
          "internalType": "address",
          "name": "mixtape",
          "type": "address"
        },
        {
          "indexed": true,
          "internalType": "address",
          "name": "unliker",
          "type": "address"
        }
      ],
      "name": "MixtapeUnliked",
      "type": "event"
    },
    {
      "anonymous": false,
      "inputs": [
        {
          "indexed": true,
          "internalType": "address",
          "name": "previousOwner",
          "type": "address"
        },
        {
          "indexed": true,
          "internalType": "address",
          "name": "newOwner",
          "type": "address"
        }
      ],
      "name": "OwnershipTransferred",
      "type": "event"
    },
    {
      "anonymous": false,
      "inputs": [
        {
          "indexed": false,
          "internalType": "address",
          "name": "account",
          "type": "address"
        }
      ],
      "name": "Paused",
      "type": "event"
    },
    {
      "anonymous": false,
      "inputs": [
        {
          "indexed": false,
          "internalType": "address",
          "name": "account",
          "type": "address"
        }
      ],
      "name": "Unpaused",
      "type": "event"
    },
    {
      "inputs": [
        {
          "internalType": "address",
          "name": "mixtapeTba",
          "type": "address"
        },
        {
          "internalType": "string",
          "name": "text",
          "type": "string"
        }
      ],
      "name": "addComment",
      "outputs": [
        {
          "internalType": "bool",
          "name": "",
          "type": "bool"
        }
      ],
      "stateMutability": "nonpayable",
      "type": "function"
    },
    {
      "inputs": [
        {
          "internalType": "address",
          "name": "mixtapeTba",
          "type": "address"
        }
      ],
      "name": "getComments",
      "outputs": [
        {
          "components": [
            {
              "internalType": "address",
              "name": "author",
              "type": "address"
            },
            {
              "internalType": "string",
              "name": "text",
              "type": "string"
            },
            {
              "internalType": "uint256",
              "name": "timestamp",
              "type": "uint256"
            }
          ],
          "internalType": "struct EnhancedMixtapeSocialRegistry.Comment[]",
          "name": "",
          "type": "tuple[]"
        }
      ],
      "stateMutability": "view",
      "type": "function"
    },
    {
      "inputs": [
        {
          "internalType": "address",
          "name": "mixtapeTba",
          "type": "address"
        }
      ],
      "name": "getCommentsCount",
      "outputs": [
        {
          "internalType": "uint256",
          "name": "",
          "type": "uint256"
        }
      ],
      "stateMutability": "view",
      "type": "function"
    },
    {
      "inputs": [
        {
          "internalType": "address",
          "name": "mixtapeTba",
          "type": "address"
        }
      ],
      "name": "getLikesCount",
      "outputs": [
        {
          "internalType": "uint256",
          "name": "",
          "type": "uint256"
        }
      ],
      "stateMutability": "view",
      "type": "function"
    },
    {
      "inputs": [
        {
          "internalType": "address",
          "name": "mixtapeTba",
          "type": "address"
        },
        {
          "internalType": "address",
          "name": "liker",
          "type": "address"
        }
      ],
      "name": "hasLiked",
      "outputs": [
        {
          "internalType": "bool",
          "name": "",
          "type": "bool"
        }
      ],
      "stateMutability": "view",
      "type": "function"
    },
    {
      "inputs": [
        {
          "internalType": "address",
          "name": "mixtapeTba",
          "type": "address"
        }
      ],
      "name": "like",
      "outputs": [
        {
          "internalType": "bool",
          "name": "",
          "type": "bool"
        }
      ],
      "stateMutability": "nonpayable",
      "type": "function"
    },
    {
      "inputs": [],
      "name": "maxCommentsPerMixtape",
      "outputs": [
        {
          "internalType": "uint256",
          "name": "",
          "type": "uint256"
        }
      ],
      "stateMutability": "view",
      "type": "function"
    },
    {
      "inputs": [],
      "name": "mixtapeNFT",
      "outputs": [
        {
          "internalType": "address",
          "name": "",
          "type": "address"
        }
      ],
      "stateMutability": "view",
      "type": "function"
    },
    {
      "inputs": [],
      "name": "owner",
      "outputs": [
        {
          "internalType": "address",
          "name": "",
          "type": "address"
        }
      ],
      "stateMutability": "view",
      "type": "function"
    },
    {
      "inputs": [],
      "name": "pause",
      "outputs": [],
      "stateMutability": "nonpayable",
      "type": "function"
    },
    {
      "inputs": [],
      "name": "paused",
      "outputs": [
        {
          "internalType": "bool",
          "name": "",
          "type": "bool"
        }
      ],
      "stateMutability": "view",
      "type": "function"
    },
    {
      "inputs": [],
      "name": "renounceOwnership",
      "outputs": [],
      "stateMutability": "nonpayable",
      "type": "function"
    },
    {
      "inputs": [
        {
          "internalType": "uint256",
          "name": "_maxCommentsPerMixtape",
          "type": "uint256"
        }
      ],
      "name": "setMaxCommentsPerMixtape",
      "outputs": [],
      "stateMutability": "nonpayable",
      "type": "function"
    },
    {
      "inputs": [
        {
          "internalType": "address",
          "name": "_mixtapeNFT",
          "type": "address"
        }
      ],
      "name": "setMixtapeNFT",
      "outputs": [],
      "stateMutability": "nonpayable",
      "type": "function"
    },
    {
      "inputs": [
        {
          "internalType": "address",
          "name": "newOwner",
          "type": "address"
        }
      ],
      "name": "transferOwnership",
      "outputs": [],
      "stateMutability": "nonpayable",
      "type": "function"
    },
    {
      "inputs": [
        {
          "internalType": "address",
          "name": "mixtapeTba",
          "type": "address"
        }
      ],
      "name": "unlike",
      "outputs": [
        {
          "internalType": "bool",
          "name": "",
          "type": "bool"
        }
      ],
      "stateMutability": "nonpayable",
      "type": "function"
    },
    {
      "inputs": [],
      "name": "unpause",
      "outputs": [],
      "stateMutability": "nonpayable",
      "type": "function"
    }
  ],
  "bytecode": "0x60806040526103e86006553480156200001757600080fd5b5060405162002a5e38038062002a5e83398181016040528101906200003d9190620001fc565b6200005d62000051620000c660201b60201c565b620000ce60201b60201c565b60008060146101000a81548160ff0219169083151502179055506001808190555080600260006101000a81548173ffffffffffffffffffffffffffffffffffffffff021916908373ffffffffffffffffffffffffffffffffffffffff160217905550506200022e565b600033905090565b60008060009054906101000a900473ffffffffffffffffffffffffffffffffffffffff169050816000806101000a81548173ffffffffffffffffffffffffffffffffffffffff021916908373ffffffffffffffffffffffffffffffffffffffff1602179055508173ffffffffffffffffffffffffffffffffffffffff168173ffffffffffffffffffffffffffffffffffffffff167f8be0079c531659141344cd1fd0a4f28419497f9722a3daafe3b4186f6b6457e060405160405180910390a35050565b600080fd5b600073ffffffffffffffffffffffffffffffffffffffff82169050919050565b6000620001c48262000197565b9050919050565b620001d681620001b7565b8114620001e257600080fd5b50565b600081519050620001f681620001cb565b92915050565b60006020828403121562000215576200021462000192565b5b60006200022584828501620001e5565b91505092915050565b612820806200023e6000396000f3fe608060405234801561001057600080fd5b506004361061010b5760003560e01c80638456cb59116100a25780639f80a24d116100715780639f80a24d14610280578063d845b1311461029e578063e2005b98146102ce578063e465c465146102fe578063f2fde38b1461032e5761010b565b80638456cb591461020c5780638924474e146102165780638da5cb5b146102465780639dbb73a0146102645761010b565b8063715018a6116100de578063715018a6146101985780637170fcc5146101a25780637b5aa547146101be5780637f2e1393146101dc5761010b565b806302a774921461011057806317fe375f146101405780633f4ba83a146101705780635c975abb1461017a575b600080fd5b61012a60048036038101906101259190611735565b61034a565b604051610137919061177b565b60405180910390f35b61015a60048036038101906101559190611735565b610393565b6040516101679190611956565b60405180910390f35b610178610523565b005b610182610535565b60405161018f9190611993565b60405180910390f35b6101a061054b565b005b6101bc60048036038101906101b79190611735565b61055f565b005b6101c661061a565b6040516101d391906119bd565b60405180910390f35b6101f660048036038101906101f191906119d8565b610640565b6040516102039190611993565b60405180910390f35b6102146106d4565b005b610230600480360381019061022b9190611735565b6106e6565b60405161023d919061177b565b60405180910390f35b61024e610732565b60405161025b91906119bd565b60405180910390f35b61027e60048036038101906102799190611a44565b61075b565b005b6102886107a4565b604051610295919061177b565b60405180910390f35b6102b860048036038101906102b39190611735565b6107aa565b6040516102c59190611993565b60405180910390f35b6102e860048036038101906102e39190611ba6565b610a49565b6040516102f59190611993565b60405180910390f35b61031860048036038101906103139190611735565b610da1565b6040516103259190611993565b60405180910390f35b61034860048036038101906103439190611735565b611089565b005b6000600360008373ffffffffffffffffffffffffffffffffffffffff1673ffffffffffffffffffffffffffffffffffffffff168152602001908152602001600020549050919050565b6060600560008373ffffffffffffffffffffffffffffffffffffffff1673ffffffffffffffffffffffffffffffffffffffff168152602001908152602001600020805480602002602001604051908101604052809291908181526020016000905b8282101561051857838290600052602060002090600302016040518060600160405290816000820160009054906101000a900473ffffffffffffffffffffffffffffffffffffffff1673ffffffffffffffffffffffffffffffffffffffff1673ffffffffffffffffffffffffffffffffffffffff16815260200160018201805461047d90611c31565b80601f01602080910402602001604051908101604052809291908181526020018280546104a990611c31565b80156104f65780601f106104cb576101008083540402835291602001916104f6565b820191906000526020600020905b8154815290600101906020018083116104d957829003601f168201915b50505050508152602001600282015481525050815260200190600101906103f4565b505050509050919050565b61052b61110c565b61053361118a565b565b60008060149054906101000a900460ff16905090565b61055361110c565b61055d60006111ec565b565b61056761110c565b600073ffffffffffffffffffffffffffffffffffffffff168173ffffffffffffffffffffffffffffffffffffffff16036105d6576040517f08c379a00000000000000000000000000000000000000000000000000000000081526004016105cd90611ce5565b60405180910390fd5b80600260006101000a81548173ffffffffffffffffffffffffffffffffffffffff021916908373ffffffffffffffffffffffffffffffffffffffff16021790555050565b600260009054906101000a900473ffffffffffffffffffffffffffffffffffffffff1681565b6000600460008473ffffffffffffffffffffffffffffffffffffffff1673ffffffffffffffffffffffffffffffffffffffff16815260200190815260200160002060008373ffffffffffffffffffffffffffffffffffffffff1673ffffffffffffffffffffffffffffffffffffffff16815260200190815260200160002060009054906101000a900460ff16905092915050565b6106dc61110c565b6106e46112b0565b565b6000600560008373ffffffffffffffffffffffffffffffffffffffff1673ffffffffffffffffffffffffffffffffffffffff168152602001908152602001600020805490509050919050565b60008060009054906101000a900473ffffffffffffffffffffffffffffffffffffffff16905090565b61076361110c565b806006819055507fa552b3b192dad317c1e5f3916449868313afa5595fac99d0d79428d7c72d6bb781604051610799919061177b565b60405180910390a150565b60065481565b60006107b4611313565b6107bc61135d565b600073ffffffffffffffffffffffffffffffffffffffff168273ffffffffffffffffffffffffffffffffffffffff160361082b576040517f08c379a000000000000000000000000000000000000000000000000000000000815260040161082290611d77565b60405180910390fd5b600460008373ffffffffffffffffffffffffffffffffffffffff1673ffffffffffffffffffffffffffffffffffffffff16815260200190815260200160002060003373ffffffffffffffffffffffffffffffffffffffff1673ffffffffffffffffffffffffffffffffffffffff16815260200190815260200160002060009054906101000a900460ff166108f4576040517f08c379a00000000000000000000000000000000000000000000000000000000081526004016108eb90611e09565b60405180910390fd5b6000600460008473ffffffffffffffffffffffffffffffffffffffff1673ffffffffffffffffffffffffffffffffffffffff16815260200190815260200160002060003373ffffffffffffffffffffffffffffffffffffffff1673ffffffffffffffffffffffffffffffffffffffff16815260200190815260200160002060006101000a81548160ff021916908315150217905550600360008373ffffffffffffffffffffffffffffffffffffffff1673ffffffffffffffffffffffffffffffffffffffff16815260200190815260200160002060008154809291906109d990611e58565b91905055503373ffffffffffffffffffffffffffffffffffffffff168273ffffffffffffffffffffffffffffffffffffffff167f434acd306a8a5e26106da9d0963544913f743d0e0f4d51acefba64765cab76a460405160405180910390a360019050610a446113ac565b919050565b6000610a53611313565b610a5b61135d565b600073ffffffffffffffffffffffffffffffffffffffff168373ffffffffffffffffffffffffffffffffffffffff1603610aca576040517f08c379a0000000000000000000000000000000000000000000000000000000008152600401610ac190611d77565b60405180910390fd5b6000825111610b0e576040517f08c379a0000000000000000000000000000000000000000000000000000000008152600401610b0590611ef3565b60405180910390fd5b61011882511115610b54576040517f08c379a0000000000000000000000000000000000000000000000000000000008152600401610b4b90611f85565b60405180910390fd5b600654600560008573ffffffffffffffffffffffffffffffffffffffff1673ffffffffffffffffffffffffffffffffffffffff1681526020019081526020016000208054905010610bda576040517f08c379a0000000000000000000000000000000000000000000000000000000008152600401610bd190612017565b60405180910390fd5b610be3836113b5565b610c22576040517f08c379a0000000000000000000000000000000000000000000000000000000008152600401610c19906120a9565b60405180910390fd5b600060405180606001604052803373ffffffffffffffffffffffffffffffffffffffff168152602001848152602001428152509050600560008573ffffffffffffffffffffffffffffffffffffffff1673ffffffffffffffffffffffffffffffffffffffff16815260200190815260200160002081908060018154018082558091505060019003906000526020600020906003020160009091909190915060008201518160000160006101000a81548173ffffffffffffffffffffffffffffffffffffffff021916908373ffffffffffffffffffffffffffffffffffffffff1602179055506020820151816001019081610d1c9190612275565b506040820151816002015550503373ffffffffffffffffffffffffffffffffffffffff168473ffffffffffffffffffffffffffffffffffffffff167fb82fdd4f7f620f390f63d82d9dbd41fe893abb4fdc05d0b97f164463c896b5f585604051610d869190612380565b60405180910390a36001915050610d9b6113ac565b92915050565b6000610dab611313565b610db361135d565b600073ffffffffffffffffffffffffffffffffffffffff168273ffffffffffffffffffffffffffffffffffffffff1603610e22576040517f08c379a0000000000000000000000000000000000000000000000000000000008152600401610e1990611d77565b60405180910390fd5b600460008373ffffffffffffffffffffffffffffffffffffffff1673ffffffffffffffffffffffffffffffffffffffff16815260200190815260200160002060003373ffffffffffffffffffffffffffffffffffffffff1673ffffffffffffffffffffffffffffffffffffffff16815260200190815260200160002060009054906101000a900460ff1615610eec576040517f08c379a0000000000000000000000000000000000000000000000000000000008152600401610ee390612414565b60405180910390fd5b610ef5826113b5565b610f34576040517f08c379a0000000000000000000000000000000000000000000000000000000008152600401610f2b906120a9565b60405180910390fd5b6001600460008473ffffffffffffffffffffffffffffffffffffffff1673ffffffffffffffffffffffffffffffffffffffff16815260200190815260200160002060003373ffffffffffffffffffffffffffffffffffffffff1673ffffffffffffffffffffffffffffffffffffffff16815260200190815260200160002060006101000a81548160ff021916908315150217905550600360008373ffffffffffffffffffffffffffffffffffffffff1673ffffffffffffffffffffffffffffffffffffffff168152602001908152602001600020600081548092919061101990612434565b91905055503373ffffffffffffffffffffffffffffffffffffffff168273ffffffffffffffffffffffffffffffffffffffff167ff4220e01d27b0b30512856b012d966ae57a8e05a136f896822d84e480de5cbbd60405160405180910390a3600190506110846113ac565b919050565b61109161110c565b600073ffffffffffffffffffffffffffffffffffffffff168173ffffffffffffffffffffffffffffffffffffffff1603611100576040517f08c379a00000000000000000000000000000000000000000000000000000000081526004016110f7906124ee565b60405180910390fd5b611109816111ec565b50565b611114611672565b73ffffffffffffffffffffffffffffffffffffffff16611132610732565b73ffffffffffffffffffffffffffffffffffffffff1614611188576040517f08c379a000000000000000000000000000000000000000000000000000000000815260040161117f9061255a565b60405180910390fd5b565b61119261167a565b60008060146101000a81548160ff0219169083151502179055507f5db9ee0a495bf2e6ff9c91a7834c1ba4fdd244a5e8aa4e537bd38aeae4b073aa6111d5611672565b6040516111e291906119bd565b60405180910390a1565b60008060009054906101000a900473ffffffffffffffffffffffffffffffffffffffff169050816000806101000a81548173ffffffffffffffffffffffffffffffffffffffff021916908373ffffffffffffffffffffffffffffffffffffffff1602179055508173ffffffffffffffffffffffffffffffffffffffff168173ffffffffffffffffffffffffffffffffffffffff167f8be0079c531659141344cd1fd0a4f28419497f9722a3daafe3b4186f6b6457e060405160405180910390a35050565b6112b8611313565b6001600060146101000a81548160ff0219169083151502179055507f62e78cea01bee320cd4e420270b5ea74000d11b0c9f74754ebdbfc544b05a2586112fc611672565b60405161130991906119bd565b60405180910390a1565b61131b610535565b1561135b576040517f08c379a0000000000000000000000000000000000000000000000000000000008152600401611352906125c6565b60405180910390fd5b565b6002600154036113a2576040517f08c379a000000000000000000000000000000000000000000000000000000000815260040161139990612632565b60405180910390fd5b6002600181905550565b60018081905550565b60008060016040516024016113ca919061269a565b6040516020818303038152906040527f6352211e000000000000000000000000000000000000000000000000000000007bffffffffffffffffffffffffffffffffffffffffffffffffffffffff19166020820180517bffffffffffffffffffffffffffffffffffffffffffffffffffffffff83818316178352505050509050600080600260009054906101000a900473ffffffffffffffffffffffffffffffffffffffff1673ffffffffffffffffffffffffffffffffffffffff168360405161149391906126fc565b600060405180830381855afa9150503d80600081146114ce576040519150601f19603f3d011682016040523d82523d6000602084013e6114d3565b606091505b5091509150816114e9576000935050505061166d565b600060016040516024016114fd919061269a565b6040516020818303038152906040527fabb23f5b000000000000000000000000000000000000000000000000000000007bffffffffffffffffffffffffffffffffffffffffffffffffffffffff19166020820180517bffffffffffffffffffffffffffffffffffffffffffffffffffffffff83818316178352505050509050600260009054906101000a900473ffffffffffffffffffffffffffffffffffffffff1673ffffffffffffffffffffffffffffffffffffffff16816040516115c391906126fc565b600060405180830381855afa9150503d80600081146115fe576040519150601f19603f3d011682016040523d82523d6000602084013e611603565b606091505b5080935081945050508261161e57600094505050505061166d565b6000828060200190518101906116349190612751565b90508673ffffffffffffffffffffffffffffffffffffffff168173ffffffffffffffffffffffffffffffffffffffff1614955050505050505b919050565b600033905090565b611682610535565b6116c1576040517f08c379a00000000000000000000000000000000000000000000000000000000081526004016116b8906127ca565b60405180910390fd5b565b6000604051905090565b600080fd5b600080fd5b600073ffffffffffffffffffffffffffffffffffffffff82169050919050565b6000611702826116d7565b9050919050565b611712816116f7565b811461171d57600080fd5b50565b60008135905061172f81611709565b92915050565b60006020828403121561174b5761174a6116cd565b5b600061175984828501611720565b91505092915050565b6000819050919050565b61177581611762565b82525050565b6000602082019050611790600083018461176c565b92915050565b600081519050919050565b600082825260208201905092915050565b6000819050602082019050919050565b6117cb816116f7565b82525050565b600081519050919050565b600082825260208201905092915050565b60005b8381101561180b5780820151818401526020810190506117f0565b60008484015250505050565b6000601f19601f8301169050919050565b6000611833826117d1565b61183d81856117dc565b935061184d8185602086016117ed565b61185681611817565b840191505092915050565b61186a81611762565b82525050565b600060608301600083015161188860008601826117c2565b50602083015184820360208601526118a08282611828565b91505060408301516118b56040860182611861565b508091505092915050565b60006118cc8383611870565b905092915050565b6000602082019050919050565b60006118ec82611796565b6118f681856117a1565b935083602082028501611908856117b2565b8060005b85811015611944578484038952815161192585826118c0565b9450611930836118d4565b925060208a0199505060018101905061190c565b50829750879550505050505092915050565b6000602082019050818103600083015261197081846118e1565b905092915050565b60008115159050919050565b61198d81611978565b82525050565b60006020820190506119a86000830184611984565b92915050565b6119b7816116f7565b82525050565b60006020820190506119d260008301846119ae565b92915050565b600080604083850312156119ef576119ee6116cd565b5b60006119fd85828601611720565b9250506020611a0e85828601611720565b9150509250929050565b611a2181611762565b8114611a2c57600080fd5b50565b600081359050611a3e81611a18565b92915050565b600060208284031215611a5a57611a596116cd565b5b6000611a6884828501611a2f565b91505092915050565b600080fd5b600080fd5b7f4e487b7100000000000000000000000000000000000000000000000000000000600052604160045260246000fd5b611ab382611817565b810181811067ffffffffffffffff82111715611ad257611ad1611a7b565b5b80604052505050565b6000611ae56116c3565b9050611af18282611aaa565b919050565b600067ffffffffffffffff821115611b1157611b10611a7b565b5b611b1a82611817565b9050602081019050919050565b82818337600083830152505050565b6000611b49611b4484611af6565b611adb565b905082815260208101848484011115611b6557611b64611a76565b5b611b70848285611b27565b509392505050565b600082601f830112611b8d57611b8c611a71565b5b8135611b9d848260208601611b36565b91505092915050565b60008060408385031215611bbd57611bbc6116cd565b5b6000611bcb85828601611720565b925050602083013567ffffffffffffffff811115611bec57611beb6116d2565b5b611bf885828601611b78565b9150509250929050565b7f4e487b7100000000000000000000000000000000000000000000000000000000600052602260045260246000fd5b60006002820490506001821680611c4957607f821691505b602082108103611c5c57611c5b611c02565b5b50919050565b600082825260208201905092915050565b7f4d697874617065536f6369616c52656769737472793a20496e76616c6964204d60008201527f6978746170654e46542061646472657373000000000000000000000000000000602082015250565b6000611ccf603183611c62565b9150611cda82611c73565b604082019050919050565b60006020820190508181036000830152611cfe81611cc2565b9050919050565b7f4d697874617065536f6369616c52656769737472793a20496e76616c6964206d60008201527f6978746170652061646472657373000000000000000000000000000000000000602082015250565b6000611d61602e83611c62565b9150611d6c82611d05565b604082019050919050565b60006020820190508181036000830152611d9081611d54565b9050919050565b7f4d697874617065536f6369616c52656769737472793a204e6f74206c696b656460008201527f2079657400000000000000000000000000000000000000000000000000000000602082015250565b6000611df3602483611c62565b9150611dfe82611d97565b604082019050919050565b60006020820190508181036000830152611e2281611de6565b9050919050565b7f4e487b7100000000000000000000000000000000000000000000000000000000600052601160045260246000fd5b6000611e6382611762565b915060008203611e7657611e75611e29565b5b600182039050919050565b7f4d697874617065536f6369616c52656769737472793a20456d70747920636f6d60008201527f6d656e7400000000000000000000000000000000000000000000000000000000602082015250565b6000611edd602483611c62565b9150611ee882611e81565b604082019050919050565b60006020820190508181036000830152611f0c81611ed0565b9050919050565b7f4d697874617065536f6369616c52656769737472793a20436f6d6d656e74207460008201527f6f6f206c6f6e6700000000000000000000000000000000000000000000000000602082015250565b6000611f6f602783611c62565b9150611f7a82611f13565b604082019050919050565b60006020820190508181036000830152611f9e81611f62565b9050919050565b7f4d697874617065536f6369616c52656769737472793a20546f6f206d616e792060008201527f636f6d6d656e7473000000000000000000000000000000000000000000000000602082015250565b6000612001602883611c62565b915061200c82611fa5565b604082019050919050565b6000602082019050818103600083015261203081611ff4565b9050919050565b7f4d697874617065536f6369616c52656769737472793a204e6f7420612076616c60008201527f6964206d69787461706520544241000000000000000000000000000000000000602082015250565b6000612093602e83611c62565b915061209e82612037565b604082019050919050565b600060208201905081810360008301526120c281612086565b9050919050565b60008190508160005260206000209050919050565b60006020601f8301049050919050565b600082821b905092915050565b60006008830261212b7fffffffffffffffffffffffffffffffffffffffffffffffffffffffffffffffff826120ee565b61213586836120ee565b95508019841693508086168417925050509392505050565b6000819050919050565b600061217261216d61216884611762565b61214d565b611762565b9050919050565b6000819050919050565b61218c83612157565b6121a061219882612179565b8484546120fb565b825550505050565b600090565b6121b56121a8565b6121c0818484612183565b505050565b5b818110156121e4576121d96000826121ad565b6001810190506121c6565b5050565b601f821115612229576121fa816120c9565b612203846120de565b81016020851015612212578190505b61222661221e856120de565b8301826121c5565b50505b505050565b600082821c905092915050565b600061224c6000198460080261222e565b1980831691505092915050565b6000612265838361223b565b9150826002028217905092915050565b61227e826117d1565b67ffffffffffffffff81111561229757612296611a7b565b5b6122a18254611c31565b6122ac8282856121e8565b600060209050601f8311600181146122df57600084156122cd578287015190505b6122d78582612259565b86555061233f565b601f1984166122ed866120c9565b60005b82811015612315578489015182556001820191506020850194506020810190506122f0565b86831015612332578489015161232e601f89168261223b565b8355505b6001600288020188555050505b505050505050565b6000612352826117d1565b61235c8185611c62565b935061236c8185602086016117ed565b61237581611817565b840191505092915050565b6000602082019050818103600083015261239a8184612347565b905092915050565b7f4d697874617065536f6369616c52656769737472793a20416c7265616479206c60008201527f696b656400000000000000000000000000000000000000000000000000000000602082015250565b60006123fe602483611c62565b9150612409826123a2565b604082019050919050565b6000602082019050818103600083015261242d816123f1565b9050919050565b600061243f82611762565b91507fffffffffffffffffffffffffffffffffffffffffffffffffffffffffffffffff820361247157612470611e29565b5b600182019050919050565b7f4f776e61626c653a206e6577206f776e657220697320746865207a65726f206160008201527f6464726573730000000000000000000000000000000000000000000000000000602082015250565b60006124d8602683611c62565b91506124e38261247c565b604082019050919050565b60006020820190508181036000830152612507816124cb565b9050919050565b7f4f776e61626c653a2063616c6c6572206973206e6f7420746865206f776e6572600082015250565b6000612544602083611c62565b915061254f8261250e565b602082019050919050565b6000602082019050818103600083015261257381612537565b9050919050565b7f5061757361626c653a2070617573656400000000000000000000000000000000600082015250565b60006125b0601083611c62565b91506125bb8261257a565b602082019050919050565b600060208201905081810360008301526125df816125a3565b9050919050565b7f5265656e7472616e637947756172643a207265656e7472616e742063616c6c00600082015250565b600061261c601f83611c62565b9150612627826125e6565b602082019050919050565b6000602082019050818103600083015261264b8161260f565b9050919050565b6000819050919050565b600060ff82169050919050565b600061268461267f61267a84612652565b61214d565b61265c565b9050919050565b61269481612669565b82525050565b60006020820190506126af600083018461268b565b92915050565b600081519050919050565b600081905092915050565b60006126d6826126b5565b6126e081856126c0565b93506126f08185602086016117ed565b80840191505092915050565b600061270882846126cb565b915081905092915050565b600061271e826116d7565b9050919050565b61272e81612713565b811461273957600080fd5b50565b60008151905061274b81612725565b92915050565b600060208284031215612767576127666116cd565b5b60006127758482850161273c565b91505092915050565b7f5061757361626c653a206e6f7420706175736564000000000000000000000000600082015250565b60006127b4601483611c62565b91506127bf8261277e565b602082019050919050565b600060208201905081810360008301526127e3816127a7565b905091905056fea2646970667358221220252725c68ea9a879bde3cc02e3dec95e1398c4c0da409ef4f695bed7507cbb2e64736f6c63430008140033",
  "linkReferences": {},
  "deployedLinkReferences": {}
}