{
  "_format": "hh-sol-artifact-1",
  "contractName": "MixtapeNFT",
  "sourceName": "contracts/MixtapeNFT.sol",
  "abi": [
    {
      "inputs": [],
      "stateMutability": "nonpayable",
      "type": "constructor"
    },
    {
      "anonymous": false,
      "inputs": [
        {
          "indexed": true,
          "internalType": "address",
          "name": "owner",
          "type": "address"
        },
        {
          "indexed": true,
          "internalType": "address",
          "name": "approved",
          "type": "address"
        },
        {
          "indexed": true,
          "internalType": "uint256",
          "name": "tokenId",
          "type": "uint256"
        }
      ],
      "name": "Approval",
      "type": "event"
    },
    {
      "anonymous": false,
      "inputs": [
        {
          "indexed": true,
          "internalType": "address",
          "name": "owner",
          "type": "address"
        },
        {
          "indexed": true,
          "internalType": "address",
          "name": "operator",
          "type": "address"
        },
        {
          "indexed": false,
          "internalType": "bool",
          "name": "approved",
          "type": "bool"
        }
      ],
      "name": "ApprovalForAll",
      "type": "event"
    },
    {
      "anonymous": false,
      "inputs": [
        {
          "indexed": false,
          "internalType": "uint256",
          "name": "_fromTokenId",
          "type": "uint256"
        },
        {
          "indexed": false,
          "internalType": "uint256",
          "name": "_toTokenId",
          "type": "uint256"
        }
      ],
      "name": "BatchMetadataUpdate",
      "type": "event"
    },
    {
      "anonymous": false,
      "inputs": [
        {
          "indexed": false,
          "internalType": "uint256",
          "name": "_tokenId",
          "type": "uint256"
        }
      ],
      "name": "MetadataUpdate",
      "type": "event"
    },
    {
      "anonymous": false,
      "inputs": [
        {
          "indexed": true,
          "internalType": "uint256",
          "name": "tokenId",
          "type": "uint256"
        },
        {
          "indexed": true,
          "internalType": "address",
          "name": "creator",
          "type": "address"
        },
        {
          "indexed": false,
          "internalType": "string",
          "name": "title",
          "type": "string"
        }
      ],
      "name": "MixtapeCreated",
      "type": "event"
    },
    {
      "anonymous": false,
      "inputs": [
        {
          "indexed": true,
          "internalType": "address",
          "name": "previousOwner",
          "type": "address"
        },
        {
          "indexed": true,
          "internalType": "address",
          "name": "newOwner",
          "type": "address"
        }
      ],
      "name": "OwnershipTransferred",
      "type": "event"
    },
    {
      "anonymous": false,
      "inputs": [
        {
          "indexed": true,
          "internalType": "uint256",
          "name": "tokenId",
          "type": "uint256"
        },
        {
          "indexed": false,
          "internalType": "string",
          "name": "trackId",
          "type": "string"
        }
      ],
      "name": "TrackAdded",
      "type": "event"
    },
    {
      "anonymous": false,
      "inputs": [
        {
          "indexed": true,
          "internalType": "address",
          "name": "from",
          "type": "address"
        },
        {
          "indexed": true,
          "internalType": "address",
          "name": "to",
          "type": "address"
        },
        {
          "indexed": true,
          "internalType": "uint256",
          "name": "tokenId",
          "type": "uint256"
        }
      ],
      "name": "Transfer",
      "type": "event"
    },
    {
      "inputs": [
        {
          "internalType": "uint256",
          "name": "tokenId",
          "type": "uint256"
        },
        {
          "internalType": "string",
          "name": "trackId",
          "type": "string"
        }
      ],
      "name": "addTrack",
      "outputs": [],
      "stateMutability": "nonpayable",
      "type": "function"
    },
    {
      "inputs": [
        {
          "internalType": "address",
          "name": "to",
          "type": "address"
        },
        {
          "internalType": "uint256",
          "name": "tokenId",
          "type": "uint256"
        }
      ],
      "name": "approve",
      "outputs": [],
      "stateMutability": "nonpayable",
      "type": "function"
    },
    {
      "inputs": [
        {
          "internalType": "address",
          "name": "owner",
          "type": "address"
        }
      ],
      "name": "balanceOf",
      "outputs": [
        {
          "internalType": "uint256",
          "name": "",
          "type": "uint256"
        }
      ],
      "stateMutability": "view",
      "type": "function"
    },
    {
      "inputs": [
        {
          "internalType": "address",
          "name": "recipient",
          "type": "address"
        },
        {
          "internalType": "string",
          "name": "title",
          "type": "string"
        },
        {
          "internalType": "string",
          "name": "description",
          "type": "string"
        },
        {
          "internalType": "string",
          "name": "tokenURI",
          "type": "string"
        }
      ],
      "name": "createMixtape",
      "outputs": [
        {
          "internalType": "uint256",
          "name": "",
          "type": "uint256"
        }
      ],
      "stateMutability": "nonpayable",
      "type": "function"
    },
    {
      "inputs": [
        {
          "internalType": "uint256",
          "name": "tokenId",
          "type": "uint256"
        }
      ],
      "name": "getApproved",
      "outputs": [
        {
          "internalType": "address",
          "name": "",
          "type": "address"
        }
      ],
      "stateMutability": "view",
      "type": "function"
    },
    {
      "inputs": [
        {
          "internalType": "uint256",
          "name": "tokenId",
          "type": "uint256"
        }
      ],
      "name": "getCreator",
      "outputs": [
        {
          "internalType": "address",
          "name": "",
          "type": "address"
        }
      ],
      "stateMutability": "view",
      "type": "function"
    },
    {
      "inputs": [
        {
          "internalType": "uint256",
          "name": "tokenId",
          "type": "uint256"
        }
      ],
      "name": "getMixtapeMetadata",
      "outputs": [
        {
          "internalType": "string",
          "name": "title",
          "type": "string"
        },
        {
          "internalType": "string",
          "name": "description",
          "type": "string"
        },
        {
          "internalType": "string[]",
          "name": "trackIds",
          "type": "string[]"
        },
        {
          "internalType": "uint256",
          "name": "createdAt",
          "type": "uint256"
        }
      ],
      "stateMutability": "view",
      "type": "function"
    },
    {
      "inputs": [],
      "name": "getTotalMixtapes",
      "outputs": [
        {
          "internalType": "uint256",
          "name": "",
          "type": "uint256"
        }
      ],
      "stateMutability": "view",
      "type": "function"
    },
    {
      "inputs": [
        {
          "internalType": "address",
          "name": "owner",
          "type": "address"
        },
        {
          "internalType": "address",
          "name": "operator",
          "type": "address"
        }
      ],
      "name": "isApprovedForAll",
      "outputs": [
        {
          "internalType": "bool",
          "name": "",
          "type": "bool"
        }
      ],
      "stateMutability": "view",
      "type": "function"
    },
    {
      "inputs": [],
      "name": "name",
      "outputs": [
        {
          "internalType": "string",
          "name": "",
          "type": "string"
        }
      ],
      "stateMutability": "view",
      "type": "function"
    },
    {
      "inputs": [],
      "name": "owner",
      "outputs": [
        {
          "internalType": "address",
          "name": "",
          "type": "address"
        }
      ],
      "stateMutability": "view",
      "type": "function"
    },
    {
      "inputs": [
        {
          "internalType": "uint256",
          "name": "tokenId",
          "type": "uint256"
        }
      ],
      "name": "ownerOf",
      "outputs": [
        {
          "internalType": "address",
          "name": "",
          "type": "address"
        }
      ],
      "stateMutability": "view",
      "type": "function"
    },
    {
      "inputs": [],
      "name": "renounceOwnership",
      "outputs": [],
      "stateMutability": "nonpayable",
      "type": "function"
    },
    {
      "inputs": [
        {
          "internalType": "address",
          "name": "from",
          "type": "address"
        },
        {
          "internalType": "address",
          "name": "to",
          "type": "address"
        },
        {
          "internalType": "uint256",
          "name": "tokenId",
          "type": "uint256"
        }
      ],
      "name": "safeTransferFrom",
      "outputs": [],
      "stateMutability": "nonpayable",
      "type": "function"
    },
    {
      "inputs": [
        {
          "internalType": "address",
          "name": "from",
          "type": "address"
        },
        {
          "internalType": "address",
          "name": "to",
          "type": "address"
        },
        {
          "internalType": "uint256",
          "name": "tokenId",
          "type": "uint256"
        },
        {
          "internalType": "bytes",
          "name": "data",
          "type": "bytes"
        }
      ],
      "name": "safeTransferFrom",
      "outputs": [],
      "stateMutability": "nonpayable",
      "type": "function"
    },
    {
      "inputs": [
        {
          "internalType": "address",
          "name": "operator",
          "type": "address"
        },
        {
          "internalType": "bool",
          "name": "approved",
          "type": "bool"
        }
      ],
      "name": "setApprovalForAll",
      "outputs": [],
      "stateMutability": "nonpayable",
      "type": "function"
    },
    {
      "inputs": [
        {
          "internalType": "bytes4",
          "name": "interfaceId",
          "type": "bytes4"
        }
      ],
      "name": "supportsInterface",
      "outputs": [
        {
          "internalType": "bool",
          "name": "",
          "type": "bool"
        }
      ],
      "stateMutability": "view",
      "type": "function"
    },
    {
      "inputs": [],
      "name": "symbol",
      "outputs": [
        {
          "internalType": "string",
          "name": "",
          "type": "string"
        }
      ],
      "stateMutability": "view",
      "type": "function"
    },
    {
      "inputs": [
        {
          "internalType": "uint256",
          "name": "tokenId",
          "type": "uint256"
        }
      ],
      "name": "tokenURI",
      "outputs": [
        {
          "internalType": "string",
          "name": "",
          "type": "string"
        }
      ],
      "stateMutability": "view",
      "type": "function"
    },
    {
      "inputs": [
        {
          "internalType": "address",
          "name": "from",
          "type": "address"
        },
        {
          "internalType": "address",
          "name": "to",
          "type": "address"
        },
        {
          "internalType": "uint256",
          "name": "tokenId",
          "type": "uint256"
        }
      ],
      "name": "transferFrom",
      "outputs": [],
      "stateMutability": "nonpayable",
      "type": "function"
    },
    {
      "inputs": [
        {
          "internalType": "address",
          "name": "newOwner",
          "type": "address"
        }
      ],
      "name": "transferOwnership",
      "outputs": [],
      "stateMutability": "nonpayable",
      "type": "function"
    }
  ],
  "bytecode": "0x60806040523480156200001157600080fd5b506040518060400160405280600b81526020017f4d697874617065204e46540000000000000000000000000000000000000000008152506040518060400160405280600781526020017f4d4958544150450000000000000000000000000000000000000000000000000081525081600090816200008f919062000412565b508060019081620000a1919062000412565b505050620000c4620000b8620000ca60201b60201c565b620000d260201b60201c565b620004f9565b600033905090565b6000600760009054906101000a900473ffffffffffffffffffffffffffffffffffffffff16905081600760006101000a81548173ffffffffffffffffffffffffffffffffffffffff021916908373ffffffffffffffffffffffffffffffffffffffff1602179055508173ffffffffffffffffffffffffffffffffffffffff168173ffffffffffffffffffffffffffffffffffffffff167f8be0079c531659141344cd1fd0a4f28419497f9722a3daafe3b4186f6b6457e060405160405180910390a35050565b600081519050919050565b7f4e487b7100000000000000000000000000000000000000000000000000000000600052604160045260246000fd5b7f4e487b7100000000000000000000000000000000000000000000000000000000600052602260045260246000fd5b600060028204905060018216806200021a57607f821691505b60208210810362000230576200022f620001d2565b5b50919050565b60008190508160005260206000209050919050565b60006020601f8301049050919050565b600082821b905092915050565b6000600883026200029a7fffffffffffffffffffffffffffffffffffffffffffffffffffffffffffffffff826200025b565b620002a686836200025b565b95508019841693508086168417925050509392505050565b6000819050919050565b6000819050919050565b6000620002f3620002ed620002e784620002be565b620002c8565b620002be565b9050919050565b6000819050919050565b6200030f83620002d2565b620003276200031e82620002fa565b84845462000268565b825550505050565b600090565b6200033e6200032f565b6200034b81848462000304565b505050565b5b8181101562000373576200036760008262000334565b60018101905062000351565b5050565b601f821115620003c2576200038c8162000236565b62000397846200024b565b81016020851015620003a7578190505b620003bf620003b6856200024b565b83018262000350565b50505b505050565b600082821c905092915050565b6000620003e760001984600802620003c7565b1980831691505092915050565b6000620004028383620003d4565b9150826002028217905092915050565b6200041d8262000198565b67ffffffffffffffff811115620004395762000438620001a3565b5b62000445825462000201565b6200045282828562000377565b600060209050601f8311600181146200048a576000841562000475578287015190505b620004818582620003f4565b865550620004f1565b601f1984166200049a8662000236565b60005b82811015620004c4578489015182556001820191506020850194506020810190506200049d565b86831015620004e45784890151620004e0601f891682620003d4565b8355505b6001600288020188555050505b505050505050565b61394680620005096000396000f3fe608060405234801561001057600080fd5b50600436106101375760003560e01c80638da5cb5b116100b8578063b88d4fde1161007c578063b88d4fde1461034f578063c87b56dd1461036b578063d48e638a1461039b578063e546f90f146103cb578063e985e9c5146103e9578063f2fde38b1461041957610137565b80638da5cb5b146102945780638defb701146102b257806395d89b41146102e5578063a22cb46514610303578063b2447e4e1461031f57610137565b806342842e0e116100ff57806342842e0e146101f25780636352211e1461020e57806370a082311461023e578063715018a61461026e57806376124bdf1461027857610137565b806301ffc9a71461013c57806306fdde031461016c578063081812fc1461018a578063095ea7b3146101ba57806323b872dd146101d6575b600080fd5b61015660048036038101906101519190612418565b610435565b6040516101639190612460565b60405180910390f35b610174610496565b604051610181919061250b565b60405180910390f35b6101a4600480360381019061019f9190612563565b610528565b6040516101b191906125d1565b60405180910390f35b6101d460048036038101906101cf9190612618565b61056e565b005b6101f060048036038101906101eb9190612658565b610685565b005b61020c60048036038101906102079190612658565b6106e5565b005b61022860048036038101906102239190612563565b610705565b60405161023591906125d1565b60405180910390f35b610258600480360381019061025391906126ab565b61078b565b60405161026591906126e7565b60405180910390f35b610276610842565b005b610292600480360381019061028d9190612837565b610856565b005b61029c61096c565b6040516102a991906125d1565b60405180910390f35b6102cc60048036038101906102c79190612563565b610996565b6040516102dc949392919061299f565b60405180910390f35b6102ed610c32565b6040516102fa919061250b565b60405180910390f35b61031d60048036038101906103189190612a25565b610cc4565b005b61033960048036038101906103349190612a65565b610cda565b60405161034691906126e7565b60405180910390f35b61036960048036038101906103649190612bc1565b610e8d565b005b61038560048036038101906103809190612563565b610eef565b604051610392919061250b565b60405180910390f35b6103b560048036038101906103b09190612563565b611001565b6040516103c291906125d1565b60405180910390f35b6103d3611086565b6040516103e091906126e7565b60405180910390f35b61040360048036038101906103fe9190612c44565b611097565b6040516104109190612460565b60405180910390f35b610433600480360381019061042e91906126ab565b61112b565b005b6000634906490660e01b7bffffffffffffffffffffffffffffffffffffffffffffffffffffffff1916827bffffffffffffffffffffffffffffffffffffffffffffffffffffffff1916148061048f575061048e826111ae565b5b9050919050565b6060600080546104a590612cb3565b80601f01602080910402602001604051908101604052809291908181526020018280546104d190612cb3565b801561051e5780601f106104f35761010080835404028352916020019161051e565b820191906000526020600020905b81548152906001019060200180831161050157829003601f168201915b5050505050905090565b600061053382611290565b6004600083815260200190815260200160002060009054906101000a900473ffffffffffffffffffffffffffffffffffffffff169050919050565b600061057982610705565b90508073ffffffffffffffffffffffffffffffffffffffff168373ffffffffffffffffffffffffffffffffffffffff16036105e9576040517f08c379a00000000000000000000000000000000000000000000000000000000081526004016105e090612d56565b60405180910390fd5b8073ffffffffffffffffffffffffffffffffffffffff166106086112db565b73ffffffffffffffffffffffffffffffffffffffff1614806106375750610636816106316112db565b611097565b5b610676576040517f08c379a000000000000000000000000000000000000000000000000000000000815260040161066d90612de8565b60405180910390fd5b61068083836112e3565b505050565b6106966106906112db565b8261139c565b6106d5576040517f08c379a00000000000000000000000000000000000000000000000000000000081526004016106cc90612e7a565b60405180910390fd5b6106e0838383611431565b505050565b61070083838360405180602001604052806000815250610e8d565b505050565b6000806107118361172a565b9050600073ffffffffffffffffffffffffffffffffffffffff168173ffffffffffffffffffffffffffffffffffffffff1603610782576040517f08c379a000000000000000000000000000000000000000000000000000000000815260040161077990612ee6565b60405180910390fd5b80915050919050565b60008073ffffffffffffffffffffffffffffffffffffffff168273ffffffffffffffffffffffffffffffffffffffff16036107fb576040517f08c379a00000000000000000000000000000000000000000000000000000000081526004016107f290612f78565b60405180910390fd5b600360008373ffffffffffffffffffffffffffffffffffffffff1673ffffffffffffffffffffffffffffffffffffffff168152602001908152602001600020549050919050565b61084a611767565b61085460006117e5565b565b61085f826118ab565b61089e576040517f08c379a000000000000000000000000000000000000000000000000000000000815260040161089590612fe4565b60405180910390fd5b6108a8338361139c565b6108e7576040517f08c379a00000000000000000000000000000000000000000000000000000000081526004016108de90613076565b60405180910390fd5b600a60008381526020019081526020016000206002018190806001815401808255809150506001900390600052602060002001600090919091909150908161092f9190613242565b50817f7a205425686365adbbc9222ac526157abcbd7fc82b3f610027ad1b61855ce11e82604051610960919061250b565b60405180910390a25050565b6000600760009054906101000a900473ffffffffffffffffffffffffffffffffffffffff16905090565b606080606060006109a6856118ab565b6109e5576040517f08c379a00000000000000000000000000000000000000000000000000000000081526004016109dc90612fe4565b60405180910390fd5b6000600a6000878152602001908152602001600020604051806080016040529081600082018054610a1590612cb3565b80601f0160208091040260200160405190810160405280929190818152602001828054610a4190612cb3565b8015610a8e5780601f10610a6357610100808354040283529160200191610a8e565b820191906000526020600020905b815481529060010190602001808311610a7157829003601f168201915b50505050508152602001600182018054610aa790612cb3565b80601f0160208091040260200160405190810160405280929190818152602001828054610ad390612cb3565b8015610b205780601f10610af557610100808354040283529160200191610b20565b820191906000526020600020905b815481529060010190602001808311610b0357829003601f168201915b5050505050815260200160028201805480602002602001604051908101604052809291908181526020016000905b82821015610bfa578382906000526020600020018054610b6d90612cb3565b80601f0160208091040260200160405190810160405280929190818152602001828054610b9990612cb3565b8015610be65780601f10610bbb57610100808354040283529160200191610be6565b820191906000526020600020905b815481529060010190602001808311610bc957829003601f168201915b505050505081526020019060010190610b4e565b505050508152602001600382015481525050905080600001518160200151826040015183606001519450945094509450509193509193565b606060018054610c4190612cb3565b80601f0160208091040260200160405190810160405280929190818152602001828054610c6d90612cb3565b8015610cba5780601f10610c8f57610100808354040283529160200191610cba565b820191906000526020600020905b815481529060010190602001808311610c9d57829003601f168201915b5050505050905090565b610cd6610ccf6112db565b83836118ec565b5050565b6000610ce66008611a58565b6000610cf26008611a6e565b9050610cfe8682611a7c565b610d088184611a9a565b336009600083815260200190815260200160002060006101000a81548173ffffffffffffffffffffffffffffffffffffffff021916908373ffffffffffffffffffffffffffffffffffffffff1602179055506040518060800160405280868152602001858152602001600067ffffffffffffffff811115610d8c57610d8b61270c565b5b604051908082528060200260200182016040528015610dbf57816020015b6060815260200190600190039081610daa5790505b50815260200142815250600a60008381526020019081526020016000206000820151816000019081610df19190613242565b506020820151816001019081610e079190613242565b506040820151816002019080519060200190610e249291906122d2565b50606082015181600301559050503373ffffffffffffffffffffffffffffffffffffffff16817f3e1091f851bafe65d0e1ad9ccd8b65efa4e48ec95bd8c1cb71d7901759ac98b887604051610e79919061250b565b60405180910390a380915050949350505050565b610e9e610e986112db565b8361139c565b610edd576040517f08c379a0000000000000000000000000000000000000000000000000000000008152600401610ed490612e7a565b60405180910390fd5b610ee984848484611b3e565b50505050565b6060610efa82611290565b6000600660008481526020019081526020016000208054610f1a90612cb3565b80601f0160208091040260200160405190810160405280929190818152602001828054610f4690612cb3565b8015610f935780601f10610f6857610100808354040283529160200191610f93565b820191906000526020600020905b815481529060010190602001808311610f7657829003601f168201915b505050505090506000610fa4611b9a565b90506000815103610fb9578192505050610ffc565b600082511115610fee578082604051602001610fd6929190613350565b60405160208183030381529060405292505050610ffc565b610ff784611bb1565b925050505b919050565b600061100c826118ab565b61104b576040517f08c379a000000000000000000000000000000000000000000000000000000000815260040161104290612fe4565b60405180910390fd5b6009600083815260200190815260200160002060009054906101000a900473ffffffffffffffffffffffffffffffffffffffff169050919050565b60006110926008611a6e565b905090565b6000600560008473ffffffffffffffffffffffffffffffffffffffff1673ffffffffffffffffffffffffffffffffffffffff16815260200190815260200160002060008373ffffffffffffffffffffffffffffffffffffffff1673ffffffffffffffffffffffffffffffffffffffff16815260200190815260200160002060009054906101000a900460ff16905092915050565b611133611767565b600073ffffffffffffffffffffffffffffffffffffffff168173ffffffffffffffffffffffffffffffffffffffff16036111a2576040517f08c379a0000000000000000000000000000000000000000000000000000000008152600401611199906133e6565b60405180910390fd5b6111ab816117e5565b50565b60007f80ac58cd000000000000000000000000000000000000000000000000000000007bffffffffffffffffffffffffffffffffffffffffffffffffffffffff1916827bffffffffffffffffffffffffffffffffffffffffffffffffffffffff1916148061127957507f5b5e139f000000000000000000000000000000000000000000000000000000007bffffffffffffffffffffffffffffffffffffffffffffffffffffffff1916827bffffffffffffffffffffffffffffffffffffffffffffffffffffffff1916145b80611289575061128882611c19565b5b9050919050565b611299816118ab565b6112d8576040517f08c379a00000000000000000000000000000000000000000000000000000000081526004016112cf90612ee6565b60405180910390fd5b50565b600033905090565b816004600083815260200190815260200160002060006101000a81548173ffffffffffffffffffffffffffffffffffffffff021916908373ffffffffffffffffffffffffffffffffffffffff160217905550808273ffffffffffffffffffffffffffffffffffffffff1661135683610705565b73ffffffffffffffffffffffffffffffffffffffff167f8c5be1e5ebec7d5bd14f71427d1e84f3dd0314c0f7b2291e5b200ac8c7c3b92560405160405180910390a45050565b6000806113a883610705565b90508073ffffffffffffffffffffffffffffffffffffffff168473ffffffffffffffffffffffffffffffffffffffff1614806113ea57506113e98185611097565b5b8061142857508373ffffffffffffffffffffffffffffffffffffffff1661141084610528565b73ffffffffffffffffffffffffffffffffffffffff16145b91505092915050565b8273ffffffffffffffffffffffffffffffffffffffff1661145182610705565b73ffffffffffffffffffffffffffffffffffffffff16146114a7576040517f08c379a000000000000000000000000000000000000000000000000000000000815260040161149e90613478565b60405180910390fd5b600073ffffffffffffffffffffffffffffffffffffffff168273ffffffffffffffffffffffffffffffffffffffff1603611516576040517f08c379a000000000000000000000000000000000000000000000000000000000815260040161150d9061350a565b60405180910390fd5b6115238383836001611c83565b8273ffffffffffffffffffffffffffffffffffffffff1661154382610705565b73ffffffffffffffffffffffffffffffffffffffff1614611599576040517f08c379a000000000000000000000000000000000000000000000000000000000815260040161159090613478565b60405180910390fd5b6004600082815260200190815260200160002060006101000a81549073ffffffffffffffffffffffffffffffffffffffff02191690556001600360008573ffffffffffffffffffffffffffffffffffffffff1673ffffffffffffffffffffffffffffffffffffffff168152602001908152602001600020600082825403925050819055506001600360008473ffffffffffffffffffffffffffffffffffffffff1673ffffffffffffffffffffffffffffffffffffffff16815260200190815260200160002060008282540192505081905550816002600083815260200190815260200160002060006101000a81548173ffffffffffffffffffffffffffffffffffffffff021916908373ffffffffffffffffffffffffffffffffffffffff160217905550808273ffffffffffffffffffffffffffffffffffffffff168473ffffffffffffffffffffffffffffffffffffffff167fddf252ad1be2c89b69c2b068fc378daa952ba7f163c4a11628f55a4df523b3ef60405160405180910390a46117258383836001611c89565b505050565b60006002600083815260200190815260200160002060009054906101000a900473ffffffffffffffffffffffffffffffffffffffff169050919050565b61176f6112db565b73ffffffffffffffffffffffffffffffffffffffff1661178d61096c565b73ffffffffffffffffffffffffffffffffffffffff16146117e3576040517f08c379a00000000000000000000000000000000000000000000000000000000081526004016117da90613576565b60405180910390fd5b565b6000600760009054906101000a900473ffffffffffffffffffffffffffffffffffffffff16905081600760006101000a81548173ffffffffffffffffffffffffffffffffffffffff021916908373ffffffffffffffffffffffffffffffffffffffff1602179055508173ffffffffffffffffffffffffffffffffffffffff168173ffffffffffffffffffffffffffffffffffffffff167f8be0079c531659141344cd1fd0a4f28419497f9722a3daafe3b4186f6b6457e060405160405180910390a35050565b60008073ffffffffffffffffffffffffffffffffffffffff166118cd8361172a565b73ffffffffffffffffffffffffffffffffffffffff1614159050919050565b8173ffffffffffffffffffffffffffffffffffffffff168373ffffffffffffffffffffffffffffffffffffffff160361195a576040517f08c379a0000000000000000000000000000000000000000000000000000000008152600401611951906135e2565b60405180910390fd5b80600560008573ffffffffffffffffffffffffffffffffffffffff1673ffffffffffffffffffffffffffffffffffffffff16815260200190815260200160002060008473ffffffffffffffffffffffffffffffffffffffff1673ffffffffffffffffffffffffffffffffffffffff16815260200190815260200160002060006101000a81548160ff0219169083151502179055508173ffffffffffffffffffffffffffffffffffffffff168373ffffffffffffffffffffffffffffffffffffffff167f17307eab39ab6107e8899845ad3d59bd9653f200f220920489ca2b5937696c3183604051611a4b9190612460565b60405180910390a3505050565b6001816000016000828254019250508190555050565b600081600001549050919050565b611a96828260405180602001604052806000815250611c8f565b5050565b611aa3826118ab565b611ae2576040517f08c379a0000000000000000000000000000000000000000000000000000000008152600401611ad990613674565b60405180910390fd5b80600660008481526020019081526020016000209081611b029190613242565b507ff8e1a15aba9398e019f0b49df1a4fde98ee17ae345cb5f6b5e2c27f5033e8ce782604051611b3291906126e7565b60405180910390a15050565b611b49848484611431565b611b5584848484611cea565b611b94576040517f08c379a0000000000000000000000000000000000000000000000000000000008152600401611b8b90613706565b60405180910390fd5b50505050565b606060405180602001604052806000815250905090565b6060611bbc82611290565b6000611bc6611b9a565b90506000815111611be65760405180602001604052806000815250611c11565b80611bf084611e71565b604051602001611c01929190613350565b6040516020818303038152906040525b915050919050565b60007f01ffc9a7000000000000000000000000000000000000000000000000000000007bffffffffffffffffffffffffffffffffffffffffffffffffffffffff1916827bffffffffffffffffffffffffffffffffffffffffffffffffffffffff1916149050919050565b50505050565b50505050565b611c998383611f3f565b611ca66000848484611cea565b611ce5576040517f08c379a0000000000000000000000000000000000000000000000000000000008152600401611cdc90613706565b60405180910390fd5b505050565b6000611d0b8473ffffffffffffffffffffffffffffffffffffffff1661215c565b15611e64578373ffffffffffffffffffffffffffffffffffffffff1663150b7a02611d346112db565b8786866040518563ffffffff1660e01b8152600401611d56949392919061377b565b6020604051808303816000875af1925050508015611d9257506040513d601f19601f82011682018060405250810190611d8f91906137dc565b60015b611e14573d8060008114611dc2576040519150601f19603f3d011682016040523d82523d6000602084013e611dc7565b606091505b506000815103611e0c576040517f08c379a0000000000000000000000000000000000000000000000000000000008152600401611e0390613706565b60405180910390fd5b805181602001fd5b63150b7a0260e01b7bffffffffffffffffffffffffffffffffffffffffffffffffffffffff1916817bffffffffffffffffffffffffffffffffffffffffffffffffffffffff191614915050611e69565b600190505b949350505050565b606060006001611e808461217f565b01905060008167ffffffffffffffff811115611e9f57611e9e61270c565b5b6040519080825280601f01601f191660200182016040528015611ed15781602001600182028036833780820191505090505b509050600082602001820190505b600115611f34578080600190039150507f3031323334353637383961626364656600000000000000000000000000000000600a86061a8153600a8581611f2857611f27613809565b5b04945060008503611edf575b819350505050919050565b600073ffffffffffffffffffffffffffffffffffffffff168273ffffffffffffffffffffffffffffffffffffffff1603611fae576040517f08c379a0000000000000000000000000000000000000000000000000000000008152600401611fa590613884565b60405180910390fd5b611fb7816118ab565b15611ff7576040517f08c379a0000000000000000000000000000000000000000000000000000000008152600401611fee906138f0565b60405180910390fd5b612005600083836001611c83565b61200e816118ab565b1561204e576040517f08c379a0000000000000000000000000000000000000000000000000000000008152600401612045906138f0565b60405180910390fd5b6001600360008473ffffffffffffffffffffffffffffffffffffffff1673ffffffffffffffffffffffffffffffffffffffff16815260200190815260200160002060008282540192505081905550816002600083815260200190815260200160002060006101000a81548173ffffffffffffffffffffffffffffffffffffffff021916908373ffffffffffffffffffffffffffffffffffffffff160217905550808273ffffffffffffffffffffffffffffffffffffffff16600073ffffffffffffffffffffffffffffffffffffffff167fddf252ad1be2c89b69c2b068fc378daa952ba7f163c4a11628f55a4df523b3ef60405160405180910390a4612158600083836001611c89565b5050565b6000808273ffffffffffffffffffffffffffffffffffffffff163b119050919050565b600080600090507a184f03e93ff9f4daa797ed6e38ed64bf6a1f01000000000000000083106121dd577a184f03e93ff9f4daa797ed6e38ed64bf6a1f01000000000000000083816121d3576121d2613809565b5b0492506040810190505b6d04ee2d6d415b85acef8100000000831061221a576d04ee2d6d415b85acef810000000083816122105761220f613809565b5b0492506020810190505b662386f26fc10000831061224957662386f26fc10000838161223f5761223e613809565b5b0492506010810190505b6305f5e1008310612272576305f5e100838161226857612267613809565b5b0492506008810190505b612710831061229757612710838161228d5761228c613809565b5b0492506004810190505b606483106122ba57606483816122b0576122af613809565b5b0492506002810190505b600a83106122c9576001810190505b80915050919050565b82805482825590600052602060002090810192821561231a579160200282015b828111156123195782518290816123099190613242565b50916020019190600101906122f2565b5b509050612327919061232b565b5090565b5b8082111561234b5760008181612342919061234f565b5060010161232c565b5090565b50805461235b90612cb3565b6000825580601f1061236d575061238c565b601f01602090049060005260206000209081019061238b919061238f565b5b50565b5b808211156123a8576000816000905550600101612390565b5090565b6000604051905090565b600080fd5b600080fd5b60007fffffffff0000000000000000000000000000000000000000000000000000000082169050919050565b6123f5816123c0565b811461240057600080fd5b50565b600081359050612412816123ec565b92915050565b60006020828403121561242e5761242d6123b6565b5b600061243c84828501612403565b91505092915050565b60008115159050919050565b61245a81612445565b82525050565b60006020820190506124756000830184612451565b92915050565b600081519050919050565b600082825260208201905092915050565b60005b838110156124b557808201518184015260208101905061249a565b60008484015250505050565b6000601f19601f8301169050919050565b60006124dd8261247b565b6124e78185612486565b93506124f7818560208601612497565b612500816124c1565b840191505092915050565b6000602082019050818103600083015261252581846124d2565b905092915050565b6000819050919050565b6125408161252d565b811461254b57600080fd5b50565b60008135905061255d81612537565b92915050565b600060208284031215612579576125786123b6565b5b60006125878482850161254e565b91505092915050565b600073ffffffffffffffffffffffffffffffffffffffff82169050919050565b60006125bb82612590565b9050919050565b6125cb816125b0565b82525050565b60006020820190506125e660008301846125c2565b92915050565b6125f5816125b0565b811461260057600080fd5b50565b600081359050612612816125ec565b92915050565b6000806040838503121561262f5761262e6123b6565b5b600061263d85828601612603565b925050602061264e8582860161254e565b9150509250929050565b600080600060608486031215612671576126706123b6565b5b600061267f86828701612603565b935050602061269086828701612603565b92505060406126a18682870161254e565b9150509250925092565b6000602082840312156126c1576126c06123b6565b5b60006126cf84828501612603565b91505092915050565b6126e18161252d565b82525050565b60006020820190506126fc60008301846126d8565b92915050565b600080fd5b600080fd5b7f4e487b7100000000000000000000000000000000000000000000000000000000600052604160045260246000fd5b612744826124c1565b810181811067ffffffffffffffff821117156127635761276261270c565b5b80604052505050565b60006127766123ac565b9050612782828261273b565b919050565b600067ffffffffffffffff8211156127a2576127a161270c565b5b6127ab826124c1565b9050602081019050919050565b82818337600083830152505050565b60006127da6127d584612787565b61276c565b9050828152602081018484840111156127f6576127f5612707565b5b6128018482856127b8565b509392505050565b600082601f83011261281e5761281d612702565b5b813561282e8482602086016127c7565b91505092915050565b6000806040838503121561284e5761284d6123b6565b5b600061285c8582860161254e565b925050602083013567ffffffffffffffff81111561287d5761287c6123bb565b5b61288985828601612809565b9150509250929050565b600081519050919050565b600082825260208201905092915050565b6000819050602082019050919050565b600082825260208201905092915050565b60006128db8261247b565b6128e581856128bf565b93506128f5818560208601612497565b6128fe816124c1565b840191505092915050565b600061291583836128d0565b905092915050565b6000602082019050919050565b600061293582612893565b61293f818561289e565b935083602082028501612951856128af565b8060005b8581101561298d578484038952815161296e8582612909565b94506129798361291d565b925060208a01995050600181019050612955565b50829750879550505050505092915050565b600060808201905081810360008301526129b981876124d2565b905081810360208301526129cd81866124d2565b905081810360408301526129e1818561292a565b90506129f060608301846126d8565b95945050505050565b612a0281612445565b8114612a0d57600080fd5b50565b600081359050612a1f816129f9565b92915050565b60008060408385031215612a3c57612a3b6123b6565b5b6000612a4a85828601612603565b9250506020612a5b85828601612a10565b9150509250929050565b60008060008060808587031215612a7f57612a7e6123b6565b5b6000612a8d87828801612603565b945050602085013567ffffffffffffffff811115612aae57612aad6123bb565b5b612aba87828801612809565b935050604085013567ffffffffffffffff811115612adb57612ada6123bb565b5b612ae787828801612809565b925050606085013567ffffffffffffffff811115612b0857612b076123bb565b5b612b1487828801612809565b91505092959194509250565b600067ffffffffffffffff821115612b3b57612b3a61270c565b5b612b44826124c1565b9050602081019050919050565b6000612b64612b5f84612b20565b61276c565b905082815260208101848484011115612b8057612b7f612707565b5b612b8b8482856127b8565b509392505050565b600082601f830112612ba857612ba7612702565b5b8135612bb8848260208601612b51565b91505092915050565b60008060008060808587031215612bdb57612bda6123b6565b5b6000612be987828801612603565b9450506020612bfa87828801612603565b9350506040612c0b8782880161254e565b925050606085013567ffffffffffffffff811115612c2c57612c2b6123bb565b5b612c3887828801612b93565b91505092959194509250565b60008060408385031215612c5b57612c5a6123b6565b5b6000612c6985828601612603565b9250506020612c7a85828601612603565b9150509250929050565b7f4e487b7100000000000000000000000000000000000000000000000000000000600052602260045260246000fd5b60006002820490506001821680612ccb57607f821691505b602082108103612cde57612cdd612c84565b5b50919050565b7f4552433732313a20617070726f76616c20746f2063757272656e74206f776e6560008201527f7200000000000000000000000000000000000000000000000000000000000000602082015250565b6000612d40602183612486565b9150612d4b82612ce4565b604082019050919050565b60006020820190508181036000830152612d6f81612d33565b9050919050565b7f4552433732313a20617070726f76652063616c6c6572206973206e6f7420746f60008201527f6b656e206f776e6572206f7220617070726f76656420666f7220616c6c000000602082015250565b6000612dd2603d83612486565b9150612ddd82612d76565b604082019050919050565b60006020820190508181036000830152612e0181612dc5565b9050919050565b7f4552433732313a2063616c6c6572206973206e6f7420746f6b656e206f776e6560008201527f72206f7220617070726f76656400000000000000000000000000000000000000602082015250565b6000612e64602d83612486565b9150612e6f82612e08565b604082019050919050565b60006020820190508181036000830152612e9381612e57565b9050919050565b7f4552433732313a20696e76616c696420746f6b656e2049440000000000000000600082015250565b6000612ed0601883612486565b9150612edb82612e9a565b602082019050919050565b60006020820190508181036000830152612eff81612ec3565b9050919050565b7f4552433732313a2061646472657373207a65726f206973206e6f74206120766160008201527f6c6964206f776e65720000000000000000000000000000000000000000000000602082015250565b6000612f62602983612486565b9150612f6d82612f06565b604082019050919050565b60006020820190508181036000830152612f9181612f55565b9050919050565b7f4d6978746170654e46543a20546f6b656e20646f6573206e6f74206578697374600082015250565b6000612fce602083612486565b9150612fd982612f98565b602082019050919050565b60006020820190508181036000830152612ffd81612fc1565b9050919050565b7f4d6978746170654e46543a2043616c6c6572206973206e6f74206f776e65722060008201527f6e6f7220617070726f7665640000000000000000000000000000000000000000602082015250565b6000613060602c83612486565b915061306b82613004565b604082019050919050565b6000602082019050818103600083015261308f81613053565b9050919050565b60008190508160005260206000209050919050565b60006020601f8301049050919050565b600082821b905092915050565b6000600883026130f87fffffffffffffffffffffffffffffffffffffffffffffffffffffffffffffffff826130bb565b61310286836130bb565b95508019841693508086168417925050509392505050565b6000819050919050565b600061313f61313a6131358461252d565b61311a565b61252d565b9050919050565b6000819050919050565b61315983613124565b61316d61316582613146565b8484546130c8565b825550505050565b600090565b613182613175565b61318d818484613150565b505050565b5b818110156131b1576131a660008261317a565b600181019050613193565b5050565b601f8211156131f6576131c781613096565b6131d0846130ab565b810160208510156131df578190505b6131f36131eb856130ab565b830182613192565b50505b505050565b600082821c905092915050565b6000613219600019846008026131fb565b1980831691505092915050565b60006132328383613208565b9150826002028217905092915050565b61324b8261247b565b67ffffffffffffffff8111156132645761326361270c565b5b61326e8254612cb3565b6132798282856131b5565b600060209050601f8311600181146132ac576000841561329a578287015190505b6132a48582613226565b86555061330c565b601f1984166132ba86613096565b60005b828110156132e2578489015182556001820191506020850194506020810190506132bd565b868310156132ff57848901516132fb601f891682613208565b8355505b6001600288020188555050505b505050505050565b600081905092915050565b600061332a8261247b565b6133348185613314565b9350613344818560208601612497565b80840191505092915050565b600061335c828561331f565b9150613368828461331f565b91508190509392505050565b7f4f776e61626c653a206e6577206f776e657220697320746865207a65726f206160008201527f6464726573730000000000000000000000000000000000000000000000000000602082015250565b60006133d0602683612486565b91506133db82613374565b604082019050919050565b600060208201905081810360008301526133ff816133c3565b9050919050565b7f4552433732313a207472616e736665722066726f6d20696e636f72726563742060008201527f6f776e6572000000000000000000000000000000000000000000000000000000602082015250565b6000613462602583612486565b915061346d82613406565b604082019050919050565b6000602082019050818103600083015261349181613455565b9050919050565b7f4552433732313a207472616e7366657220746f20746865207a65726f2061646460008201527f7265737300000000000000000000000000000000000000000000000000000000602082015250565b60006134f4602483612486565b91506134ff82613498565b604082019050919050565b60006020820190508181036000830152613523816134e7565b9050919050565b7f4f776e61626c653a2063616c6c6572206973206e6f7420746865206f776e6572600082015250565b6000613560602083612486565b915061356b8261352a565b602082019050919050565b6000602082019050818103600083015261358f81613553565b9050919050565b7f4552433732313a20617070726f766520746f2063616c6c657200000000000000600082015250565b60006135cc601983612486565b91506135d782613596565b602082019050919050565b600060208201905081810360008301526135fb816135bf565b9050919050565b7f45524337323155524953746f726167653a2055524920736574206f66206e6f6e60008201527f6578697374656e7420746f6b656e000000000000000000000000000000000000602082015250565b600061365e602e83612486565b915061366982613602565b604082019050919050565b6000602082019050818103600083015261368d81613651565b9050919050565b7f4552433732313a207472616e7366657220746f206e6f6e20455243373231526560008201527f63656976657220696d706c656d656e7465720000000000000000000000000000602082015250565b60006136f0603283612486565b91506136fb82613694565b604082019050919050565b6000602082019050818103600083015261371f816136e3565b9050919050565b600081519050919050565b600082825260208201905092915050565b600061374d82613726565b6137578185613731565b9350613767818560208601612497565b613770816124c1565b840191505092915050565b600060808201905061379060008301876125c2565b61379d60208301866125c2565b6137aa60408301856126d8565b81810360608301526137bc8184613742565b905095945050505050565b6000815190506137d6816123ec565b92915050565b6000602082840312156137f2576137f16123b6565b5b6000613800848285016137c7565b91505092915050565b7f4e487b7100000000000000000000000000000000000000000000000000000000600052601260045260246000fd5b7f4552433732313a206d696e7420746f20746865207a65726f2061646472657373600082015250565b600061386e602083612486565b915061387982613838565b602082019050919050565b6000602082019050818103600083015261389d81613861565b9050919050565b7f4552433732313a20746f6b656e20616c7265616479206d696e74656400000000600082015250565b60006138da601c83612486565b91506138e5826138a4565b602082019050919050565b60006020820190508181036000830152613909816138cd565b905091905056fea2646970667358221220dbd79b61f463e77c3d9026a9bbb5e1308b7e60bd7d16fed8d807f43462a702c464736f6c63430008140033",
  "linkReferences": {},
  "deployedLinkReferences": {}
}